:020000040000FA
:10000000900200203D030000510300005303000054
:1000100055030000570300005903000000000000D2
:100020000000000000000000000000005B03000072
:100030005D030000000000005F030000610300009A
:100040006303000063030000630300006303000018
:100050006303000063030000630300006303000008
:100060006F090000630300006303000063030000E6
:1000700063030000630300006303000063030000E8
:1000800063030000BB080000630300009508000044
:1000900063030000630300006303000063030000C8
:1000A000630300004D0800006303000063030000C9
:1000B00063030000630300001108000063030000F5
:1000C0006303000063030000630300006303000098
:1000D0006303000063030000630300006303000088
:1000E0006303000063030000630300006303000078
:1000F0006303000063030000630300006303000068
:10010000F70800001F090000470900006303000012
:100110006303000063030000630300006303000047
:100120006303000063030000630300006303000037
:100130006303000063030000630300006303000027
:1001400000000000000000000000000000000000AF
:100150006303000063030000630300006303000007
:10016000000000000000000000000000000000008F
:10017000000000000000000000000000000000007F
:10018000000000000000000000000000000000006F
:10019000000000000000000000000000000000005F
:1001A000000000000000000000000000000000004F
:1001B00063030000630300006F0800006303000096
:1001C0006303000063030000630300006303000097
:1001D0006303000063030000630300006303000087
:1001E0006303000063030000630300006303000077
:1001F0006303000063030000630300006303000067
:1002000063030000630300006303000000000000BC
:100210006303000063030000630300006303000046
:100220006303000063030000630300006303000036
:100230006303000063030000630300006303000026
:100240006303000063030000630300006303000016
:100250006303000063030000630300006303000006
:1002600063030000630300006303000000F002F872
:1002700000F03CF80AA090E8000C82448344AAF104
:100280000107DA4501D100F031F8AFF2090EBAE802
:100290000F0013F0010F18BFFB1A43F001031847BA
:1002A00088330000A8330000103A24BF78C878C112
:1002B000FAD8520724BF30C830C144BF04680C606C
:1002C000704700000023002400250026103A28BFB4
:1002D00078C1FBD8520728BF30C148BF0B607047B8
:1002E0001FB501F064FF1FBD10B510BD01F0B6F9D8
:1002F0001146FFF7F5FF00F04DF801F0D4F903B413
:10030000FFF7F2FF03BC01F0D9F900000138FDD17D
:1003100070470000EFF3108072B67047EFF3108063
:100320007047EFF3108062B6704730BF704780F3BC
:1003300011887047EFF31180704700004EF6885027
:10034000CEF20000016841F470010160FFF78EBF3A
:10035000FEE7FEE7FEE7FEE7FEE7FEE7FEE7FEE775
:10036000FEE7FEE772B6704762B67047EFF31080A3
:1003700072B6704780F31088704730BF70470248EC
:100380000249014A024B7047900000209002002071
:100390009000002001F00FF800F0BCFC00E000BF6E
:1003A000FDE7000010B5624801F08CFE212001F04D
:1003B00031FC03215F4801F088F903215D4801F019
:1003C00089F903215B4801F0F5F900231A4603215E
:1003D000584801F0B6F9E32300220321554801F003
:1003E000F8F90321534801F0EDF90321514801F0D8
:1003F00079F9E021212001F07FFC212001F03CFC73
:1004000010BD10B54A48401C01F05CFE4A4801F09E
:1004100059FE0E21494801F04FFB00220E214748AA
:1004200001F034FA002301220E21444801F082FA3F
:10043000402001F0EFFB412001F0ECFB422001F0F5
:10044000E9FB00213E4801F040F900213C4801F061
:1004500041F900213A4801F0ADF90121384801F095
:1004600034F90121364801F035F90121344801F011
:10047000A1F90221324801F028F90221304801F0A7
:1004800029F902212E4801F095F901230022114695
:100490002B4801F056F9602300221146284801F04C
:1004A00098F9022300221946254801F04AF96223EF
:1004B00000220221224801F08CF9022300220121AE
:1004C0001F4801F03EF96123002201211C4801F080
:1004D00080F900211A4801F075F90121184801F04E
:1004E00071F90221164801F06DF90021144801F05C
:1004F000F9F80121124801F0F5F80221104801F045
:10050000F1F82021402001F0F7FB2021412001F0EB
:10051000F3FB2021422001F0EFFB402001F0ACFB77
:10052000412001F0A9FB422001F0A6FB10BD000014
:10053000003800F000800340040800F00040024052
:100540000090034010B52E480078022802DC00F02D
:10055000CFFC02E000202B49087000F03AFE284949
:10056000087808460078FE2802D10520087004E0CB
:1005700023480078401C2249087010BD10B500F0D7
:1005800014FC2149087800EBD0714910B0EB41010F
:100590000AD11E4801F0C8F801211C4801F0C4F836
:1005A00002211A4801F0C0F817480078052190FB95
:1005B000F1F201FB120008B900F0F7FB12480078D5
:1005C0000A2190FBF1F201FB120058B90D480078A6
:1005D000012801D000F091FC03210D4801F0A4F89E
:1005E00000F098FB08480078FE2803D10520064952
:1005F000087004E004480078401C0349087010BDEE
:1006000001000020000000200200002000900340B4
:100610000080034010B5734801F054FD72487349DF
:100620000860081D006840F01F00091D08602E20AA
:1006300001F0F0FA11216E4801F03FF911216C48E8
:1006400001F048FA02221121694801F04BF9002219
:100650001121674801F01AF90A2301221121644887
:1006600001F068F91121624801F02EF940212E2095
:1006700001F042FB2E2001F0FFFA10BD10B55948E1
:1006800001F020FD5948001D006840F01F00574947
:10069000091D08600221564801F02AFA01220221B0
:1006A000534801F0F3F8082301220221504801F0D9
:1006B00041F9002202214E4801F060FA10BD10B548
:1006C0004C4890F9000080F002004A490870084642
:1006D00002780221464801F051FA10BD10B5414898
:1006E000401F01F0EFFCC0214FF0402001F000FA64
:1006F0000122C0214FF0402001F0C8F80C23012254
:10070000C0214FF0402001F015F910BD10B504468E
:1007100034B1402211464FF0402001F02FFA05E09D
:10072000002240214FF0402001F028FA10BD10B502
:100730000446224680214FF0402001F01FFA10BDF0
:1007400010B52848801E01F0BDFCC0212A4801F0E8
:10075000CFF90122C021284801F098F80C2301228A
:10076000C021254801F0E6F810BD10B5044654B18B
:1007700040221146204801F001FA802211461E480D
:1007800001F0FCF909E0002240211B4801F0F6F9D4
:1007900000228021184801F0F1F910BD10B5114870
:1007A000401E01F08FFC0121144801F0A1F9012243
:1007B0001146124801F06AF80C23012211460F4835
:1007C00001F0B8F810BD10B504462CB10122114655
:1007D0000A4801F0D3F904E000220121074801F0A2
:1007E000CDF910BD050800F04B434F4C2055024099
:1007F0000050024003000020007000400040024012
:1008000010B501F072FA10BD10B501F067FA10BD15
:1008100010B500240021674801F05DF8044611215D
:10082000644801F047F804F01100112802D100F0EB
:100830007EFA0AE014F0100F02D000F059FA04E03A
:1008400014F0010F01D000F041FA10BD10B50120E5
:100850005949086000221146584801F00CF828B1A7
:100860000021564801F002F800F083FA10BD10B5DF
:1008700000240021524801F087FC50B1FF2150486C
:1008800001F077FCFF214E4801F08CFC0446FFF795
:1008900059FE10BD10B5002400214A4801F074FC37
:1008A00050B1FF21474801F064FCFF21454801F0A9
:1008B00079FC0446FFF762FE10BD08B50022032153
:1008C000414800F017FFA8B103213F4800F0FDFEAA
:1008D0006A4603213C4800F05BFF40F6AB110098EC
:1008E000484340F2C351A1EB10300A21B0FBF1F0B4
:1008F0003649086008BD08B500221146344800F0AA
:10090000F9FE58B10021324800F0DFFE6A460021AE
:100910002F4800F03DFF2F490098086008BD08B53A
:10092000002201212A4800F0E5FE58B101212848A3
:1009300000F0CBFE6A460121254800F029FF264938
:100940000098086008BD08B500220221204800F088
:10095000D1FE58B102211E4800F0B7FE6A460221BE
:100960001B4800F015FF1D490098086008BD70B5D0
:100970000024002500260021194801F03BF9B8B1F8
:10098000174801F02DF906211D2000F0F1FD044665
:1009900007211D2000F0ECFD054608211D2000F078
:1009A000E7FD06460F4804600F4805600F480660E3
:1009B00070BD0000005002400400002000C0034051
:1009C0000060034000000340008003400800002056
:1009D000009003400C0000201400002010000020B4
:1009E00000000240180000201C0000202000002011
:1009F00070B505460C461DB90020FFF787FE02E0E2
:100A00004020FFF783FE204600F0C0FC70BD70B5AB
:100A100004460D460B2C01DC052D01DD002070BDC8
:100A2000C4EBC400C0B240F080010020FFF7E0FF3B
:100A300045F040010020FFF7DBFF0120EFE710B594
:100A4000002400BF04E000210120FFF7D1FF641C57
:100A5000B4F5FC7FF7D300210846FFF7D8FF10BD9F
:100A600010B500F05FFCFFF739FE0020FFF75FFED6
:100A7000012000F043FD8020FFF759FE21210020D6
:100A8000FFF7B6FFBA210020FFF7B2FF04210020D4
:100A9000FFF7AEFF14210020FFF7AAFF202100205E
:100AA000FFF7A6FF0C210020FFF7A2FFFFF7C7FF0B
:100AB00010BD70B50546002400BF0AE0A5F1200076
:100AC00000EB8000774A1044015D0120FFF790FFA2
:100AD000641C052CF2D300210120FFF789FF70BDB3
:100AE00010B5044603E02078FFF7E3FF641C20788C
:100AF0000028F8D110BD70B504460A2C08DA6AA0A7
:100B0000FFF7EEFF04F13001C8B2FFF7D2FFB6E005
:100B1000642C15DA66A0FFF7E3FF0A2094FBF0F0DF
:100B20003030C5B22846FFF7C4FF0A2094FBF0F12D
:100B300000FB11403030C5B22846FFF7BAFF9EE0F7
:100B4000B4F57A7F23DA5BA0FFF7CAFF642094FB39
:100B5000F0F03030C5B22846FFF7ABFF642094FBBD
:100B6000F0F100FB114084B20A2094FBF0F0303029
:100B7000C5B22846FFF79DFF0A2094FBF0F100FB69
:100B800011403030C5B22846FFF793FF77E042F2BC
:100B90001070844233DA2020FFF78BFF4FF47A7015
:100BA00094FBF0F03030C5B22846FFF782FF4FF4D7
:100BB0007A7094FBF0F100FB114084B2642094FB46
:100BC000F0F03030C5B22846FFF773FF642094FB85
:100BD000F0F100FB114084B20A2094FBF0F03030B9
:100BE000C5B22846FFF765FF0A2094FBF0F100FB31
:100BF00011403030C5B22846FFF75BFF3FE042F2BC
:100C0000107094FBF0F03030C5B22846FFF751FF6A
:100C100042F2107094FBF0F100FB114084B24FF4EB
:100C20007A7094FBF0F03030C5B22846FFF741FFF0
:100C30004FF47A7094FBF0F100FB114084B2642011
:100C400094FBF0F03030C5B22846FFF732FF642045
:100C500094FBF0F100FB114084B20A2094FBF0F009
:100C60003030C5B22846FFF724FF0A2094FBF0F18C
:100C700000FB11403030C5B22846FFF71AFF70BDA7
:100C800070B50546002400210846FFF7C0FE00BFEE
:100C900004E0295D0120FFF7ABFE641CB4F5FC7F86
:100CA000F7D370BDA0270000202020200000000006
:100CB000202020002020000010B5FFF7ABFCFFF73C
:100CC0003FFD4FF47A7000F01DFA10BD10B5002002
:100CD000FFF74BFD462000F0BFF9002000F0E7F9D8
:100CE00046207D490870002048700120887010BDA2
:100CF00010B50020FFF739FD002000F0ADF94620C7
:100D000000F0D5F946207449487000200870022090
:100D1000887010BD10B5002000F09EF9002000F092
:100D2000C6F900206C4948700870887010BD10B575
:100D30000020FFF71AFD3C2000F08EF93C2000F067
:100D4000B6F93C206449487008700320887010BDD3
:100D500010B50020FFF709FD5F2000F07DF95F204E
:100D600000F0A5F95F205C49487008700320887086
:100D700010BD10B5FFF7CEFF0120FFF7F6FC3220C3
:100D800000F06AF9322000F092F93220524948709E
:100D90000870042088704FF47A7000F0AFFB0020D8
:100DA0004E490860FFF7B6FF10BD70B54C480068AB
:100DB0004C490968884205D349480068494909688F
:100DC000401A04E04748006845490968401A04464B
:100DD0004348006844490968884205D34048006890
:100DE00041490968401A04E03F4800683C490968E5
:100DF000401A05463B4800683B490968884205D3CC
:100E00003848006838490968401A04E036480068E4
:100E100034490968401A0646782C27D2782D25D9FE
:100E200024D92F48016830480068783081421DD9A4
:100E30002C4801682C4800687830814216D92B482C
:100E4000007864280FDAFFF772FF28480078FE2840
:100E500005DA26480078401C244908703BE06420ED
:100E60002249087037E0FFF773FF34E0782C15D97A
:100E7000782D13D91A4801681A48006878308142E1
:100E80000CD917480168184800687830814205D9A4
:100E9000FFF72EFF0020154908701CE0782C15D9AB
:100EA000782E13D90F4801680D48006878308142C8
:100EB0000CD90C4801680C4800687830814205D98B
:100EC000FFF704FF00200949087004E0FFF722FF44
:100ED00000200649087070BD250000200400002095
:100EE00014000020100000200C000020240000202E
:100EF00010B54548FFF7C4FE10BD10B54348007853
:100F000020B9FFF79CFD0120404908700021022014
:100F1000FFF77DFD3E4991F9011088B2FFF7EBFD27
:100F20002520FFF7C6FD00210846FFF770FD39A018
:100F3000FFF7D6FD01210220FFF769FD344991F941
:100F4000001088B2FFF7D7FD2520FFF7B2FD012181
:100F50000020FFF75CFD31A0FFF7C2FD0221002059
:100F6000FFF755FD2FA0FFF7BBFD294890F90200C0
:100F7000052818D2DFE800F003070B0F13002BA0A1
:100F8000FFF7AEFD13E02AA0FFF7AAFD0FE029A0AE
:100F9000FFF7A6FD0BE028A0FFF7A2FD07E027A0C2
:100FA000FFF79EFD03E021A0FFF79AFD00BF00BF01
:100FB00003210420FFF72BFD2149098888B2FFF7A0
:100FC0009AFD03210020FFF722FD1EA0FFF788FDF8
:100FD00004210820FFF71BFD1C49098888B2FFF790
:100FE0008AFD04210846FFF712FD1949098888B2D5
:100FF000FFF781FD04210020FFF709FD154909884D
:1010000088B2FFF778FD10BD702D00002800002089
:10101000250000204D74724C000000004D74725287
:1010200000000000446972200000000053740000BA
:10103000464C000046520000467700004277000010
:101040000800002054656D703A0000001400002074
:101050000C0000201000002070B5044654B9002296
:101060004021A54800F08BFE4FF48071A24800F0AB
:101070006AFE1BE0632C00D963244FF480719E4804
:1010800000F06BFE60436421B0FBF1F52A464FF49B
:101090008371994800F07BFE4FF48071964800F010
:1010A00057FE01224021944800F069FE70BD70B5E2
:1010B000044654B9002280218F4800F060FE4FF4AE
:1010C00080718D4800F03FFE1BE0632C00D9632443
:1010D0004FF48071884800F040FE60436421B0FB0B
:1010E000F1F52A4640F20711834800F050FE4FF414
:1010F0008071814800F02CFE012280217E4800F0A2
:101100003EFE70BD10B50446002000F0BDFF7B48D8
:1011100000F0D8FF7A4800F0D5FF7A4800F0A8FC2C
:10112000794800F0A5FC0421784800F00BFD082167
:10113000764800F007FD00224FF480716E4800F001
:10114000EFFD22464FF480716B4800F00FFE012244
:101150004FF48371684800F01AFE012240F2071133
:10116000654800F014FE4FF48071634800F0F0FD14
:1011700010BD70B50446002000F086FF5F4800F007
:10118000A1FF5F4800F09EFF614800F071FC022162
:101190005E4800F0D7FC0022C021574800F0C0FD97
:1011A0002246C021544800F0E1FDC021524800F021
:1011B000D4FD00EB800040006421B0FBF1F52A462D
:1011C000C5214D4800F0E3FDC0214B4800F0C0FDB3
:1011D00070BD10B54F48007848B101222021464823
:1011E00000F0CDFDC021444800F0B2FD08E000222F
:1011F0002021414800F0C3FDC0213F4800F0A3FD7D
:10120000444890F9000080F001004249087010BD88
:101210002DE9F04106460F4615461C460CB901243F
:1012200002E0632C00D963243946304600F095FD76
:101230006421B1FBF4F1B0FBF1F842462946304697
:1012400000F0A5FDBDE8F08170B505460C46002014
:1012500000F01AFF294800F035FF2948801E00F0F1
:1012600031FF2D4800F004FC2C4800F001FC012166
:101270002B4800F067FC0221294800F063FC0022A3
:1012800040211D4800F04CFD2A4640211A4800F03C
:101290006DFD4021184800F060FD64214843B0FB1B
:1012A000F4F632464021144800F071FD4021124806
:1012B00000F053FD64214843B0FBF4F6324641216F
:1012C0000D4800F064FD40210B4800F041FD012273
:1012D0000321094800F053FD70BD10B50848801E79
:1012E00000F0DCFE4021044800F02DFD0022032127
:1012F000014800F044FD10BD00900240014000F0A4
:10130000050800F005080500050C05000050024026
:101310000504050029000020050003000504030062
:10132000007000407CB51D4800F0CCFE1C4800F069
:10133000C9FE1C4800F064FD40F6020000F098FB76
:1013400040F6024000F094FB41F2024000F090FBB6
:101350002C214FF0402000F003FC0021114800F048
:1013600029FD104800F023FD054600F053FD04461A
:1013700008200D4900231A46CDE9001021460948EE
:1013800000F01BFD074800F040FD7CBD10B5044691
:101390002146044800F02EFD10BD0000001C00F0A6
:1013A000000800F00080004008AF2F0010B514487E
:1013B00000F0DAFD10BD70B5FFF726FAFFF7F6FF73
:1013C00000F028FD044600F05DF800F02AF8FFF771
:1013D00047FBFFF71FF9FFF7B3F94FF47A70FFF7F8
:1013E00091FEFFF70EF8FEF7DDFF00F02BF900F09D
:1013F00011FD0546AC4201D1FFF702FA70BD0000B5
:101400004005400770B504460025002600F002FDA7
:1014100006464FF47A70B6FBF0F06043451E28464E
:1014200070BD10B53D4800F04DFE6E2000F0F2FB9F
:1014300001213B4800F09FFEFF21394800F08AFE61
:101440000021374800F052FE2221354800F052FEBC
:101450004FF47A70FFF7D6FF04462246FF2130484A
:1014600000F097FEFF212E4800F07CFE01212C4861
:1014700000F086FE20216E2000F03EFC6E2000F081
:10148000FBFB10BD10B5274800F01CFE232000F028
:10149000C1FB0121244800F06EFEFF21224800F02C
:1014A00059FE0021204800F021FE22211E4800F0B4
:1014B00021FE3220FFF7A6FF04462246FF211A48EC
:1014C00000F067FEFF21184800F04CFE012116488D
:1014D00000F056FE0021232000F00EFC232000F037
:1014E000CBFB10BD70B5054600242846FFF78AFFE8
:1014F000044600E0641E002CFCD170BD70B50546AA
:101500000024FFF781F92846FFF77CFF044600E03E
:10151000641E002CFCD1FFF773F970BD005C00F075
:1015200000600340000400F00000034070B5044672
:101530000E461546002221463C4800F067FB00217C
:101540003A4800F020FB0721384800F01AFB3146EA
:10155000364800F018FB0721344800F012FB2946FA
:10156000324800F010FB0721304800F00AFB70BD44
:1015700070B504460D460026012221462B4800F096
:1015800045FB0021294800F0FEFA0721274800F01A
:10159000F8FA2946254800F0F6FA0721234800F01A
:1015A000F0FA304670BD10B5214800F08BFD21489F
:1015B00000F088FD182000F02DFB1C4800F010FB07
:1015C0001A4800F011FB1C4800F052FA1B4800F0CA
:1015D0004FFA04211A4800F0A7FA0821184800F031
:1015E00095FA0A2301220421154800F0A3F90923E2
:1015F00001220821124800F09DF902220C21104816
:1016000000F044F900F006FC044600222146074899
:1016100000F0BCFA054800F0EAFA4021182000F07A
:101620006BFB182000F028FB10BD000000000240FA
:10163000002000F0010800F003080100030C010085
:101640000050004010B5FFF7A9F80120FFF7BBF8E4
:10165000FFF7A9FF10BD704770477047754600F04F
:1016600029F8AE4605006946534620F00700854636
:1016700018B020B5FEF783FEBDE820404FF000060D
:101680004FF000074FF000084FF0000B21F007016A
:10169000AC46ACE8C009ACE8C009ACE8C009ACE8AD
:1016A000C0098D4670470446AFF300802046FEF720
:1016B00026FE0000004870472C0000200149182039
:1016C000ABBEFEE7260002007047012202FA01F1DC
:1016D000C16070478268012303FA01F122EA010127
:1016E00081607047012202FA01F1C16082681143F2
:1016F0008160704732B1C0684FF0011202FA01F107
:1017000008407047406801228A4042F4803210400D
:1017100010F4803F08BF704740F470204FF48032CF
:1017200002FA01F1884370470A4601F00F010123D4
:101730006FF30F0203FA01F11143826A11438162D0
:10174000704730B4446989004FF00F0C0CFA01FC6B
:1017500002F00F0524EA0C048D402C434461046A16
:1017600003F0030324EA0C0C8B404CEA03030362EE
:10177000C36949004FF0300C0CFA01FC02F0300252
:1017800023EA0C0302FA01F11943C16130BC70472E
:1017900000EB411000F14001002003E08B6842F8AB
:1017A000043B401CCB6813F4807F18BF70470828A7
:1017B000F4D370470268012303FA01F122EA010120
:1017C000016070470268012303FA01F111430160CF
:1017D000704710B400EB4110910050F840CF0F2239
:1017E0008A4003F00F042CEA020C8C404CEA040CF3
:1017F000C0F800C0D0F818C0C3F303242CEA020CD0
:101800008C404CEA040CC0F818C0D0F804C0C3F3F4
:1018100003142CEA020C8C404CEA040CC0F804C0FF
:10182000D0F81CC0C3F303542CEA020C8C404CEAE1
:10183000040CC0F81CC013F4702F4FF001040DD03D
:10184000D0F814C0C3F302432CEA02028B401A43BF
:101850004261026904FA01F1114304E0026904FAE9
:1018600001F122EA0101016110BC7047012202FA74
:1018700001F10160704722B10068C84000F001002A
:1018800070474068C84000F001007047D0F800344D
:1018900012F0010F14BF0B438B43C0F8003412F059
:1018A000020FD0F8202414BF114322EA0101C0F82E
:1018B00020147047C0F81C14704700F58262D0F8FD
:1018C000100488431060704700F58262D0F810045D
:1018D000084310607047002914BFD0F81804D0F8EE
:1018E00014047047D0F8083412F0010F14BF0B43F2
:1018F0008B43C0F80834D0F8043412F0020F14BF40
:101900000B438B43C0F80434D0F80C3412F0040FAE
:1019100014BF194323EA0101C0F80C14D0F838159C
:1019200012F4803F14BF41F0010121F00101C0F821
:10193000381570472DE9F00701274FF0000C0326FA
:10194000C2F3411800F6C47407FA0CF50D4210D02A
:10195000D0F8C49F4FEA4C0506FA05FA29EA0A09AD
:10196000C4F80090D4F8009008FA05F549EA050596
:1019700025600CF1010C0CF0FF0CBCF1080FE3D357
:10198000D0F800C512F0010F14BF4CEA010C2CEA8C
:10199000010CC0F800C5D0F804C512F0020F14BF46
:1019A0004CEA010C2CEA010CC0F804C5D0F808C5BB
:1019B00012F0040F14BF4CEA010C2CEA010CC0F821
:1019C00008C5D0F818C512F0080F14BF4CEA010C76
:1019D0002CEA010CC0F818C512F0100FD0F83C2505
:1019E00014BF0A438A43C0F83C25D0F80C2513F0F5
:1019F000010F14BF0A438A43C0F80C25D0F8102504
:101A000013F0020F14BF0A438A43C0F81025D0F820
:101A1000142513F0040F14BF0A438A43C0F8142599
:101A2000D0F81C2513F0080F14BF0A438A43C0F8EE
:101A30001C25D0F8442513F4007F14BF0A438A43C1
:101A4000C0F84425D0F8402513F4407F14BF0A4362
:101A50008A43C0F84025D0F82825002B0CBF11433D
:101A600022EA0101C0F82815BDE8F0077047000020
:101A70000F4AC0F30741D26E01238B401A420D4A30
:101A80001ABF02EBC1014A6852F83120C0F30721A6
:101A900002F22C53D2F82C254FF00F0C0CFA01FC5B
:101AA00000F00F0022EA0C028840104318607047D3
:101AB00000E00F40C832000030B50C460546002259
:101AC000FFF7E4FE21462846BDE83040002301220E
:101AD000FFF730BF30B50C4605460022FFF7D6FEB3
:101AE00021462846BDE8304008230122FFF722BFE7
:101AF00030B50C46054608230122FFF71BFF21469F
:101B00002846BDE830400122FFF7C0BE30B50C4684
:101B100005460222FFF7BAFE21462846BDE83040BE
:101B200009230122FFF706BF30B50C460546022205
:101B3000FFF7ACFE21462846BDE8304008230122CD
:101B4000FFF7F8BE30B50C4605460222FFF79EFEB1
:101B500021462846BDE8304008230122FFF7EABEAF
:101B600030B50C4605460222FFF790FE2146284676
:101B7000BDE8304008230122FFF7DCBE40F82120F9
:101B8000704741607047816070470000036A43F00E
:101B900010030362002A14BF0E4A0F4A02EB8203AD
:101BA00001EB830302EB82025B1E9200B3FBF2F2B5
:101BB000521EC260D0F8C02F12F0010F08BF70474C
:101BC000064A1144521CB1FBF2F1491E41F080015A
:101BD000C1607047801A0600A08601007F47370168
:101BE0000121C161816170470021016170470121BC
:101BF0000161704721B18069002808BF704703E088
:101C00004069002808BF70470120704742EA41013F
:101C1000016070471649042804BF086820F480302A
:101C200018D0052804BF086820F4003012D0062818
:101C300012D00F2815D0102838BF7047103800F088
:101C40001F01012202FA01F142090A4850F822005C
:101C50000160704708607047086820F480200860C1
:101C600070474FF0E020016921F0020101617047E7
:101C700024ED00E0283400001649042804BF086859
:101C800040F4803018D0052804BF086840F40030C4
:101C900012D0062812D00F2815D0102838BF704750
:101CA000103800F01F01012202FA01F142090A482E
:101CB00050F822000160704708607047086840F4DF
:101CC0008020086070474FF0E020016941F0020178
:101CD0000161704724ED00E01434000010B5FEF7F8
:101CE00019FB002818BF012010BD10B5FEF719FB25
:101CF000002818BF012010BD084A20F00303D25865
:101D000013688007C00E4FF0FF0C0CFA00FC23EAAA
:101D10000C0301FA00F0184310607047783300009C
:101D2000084401686FF352011143016012F0020F81
:101D300014BFB0218C21016214BF4FF4306140F612
:101D40000C0141627047425822F001024250704734
:101D5000425842F00102425070470844016800694D
:101D600011F0020F14BF4000401C70470844016886
:101D700011F0020F14BF5108511E01617047002A73
:101D8000826814BF114322EA01018160704721F08B
:101D90003F031844036813F0020F18BF5208036989
:101DA0009A1A11F0010F14BFC26182617047D0F816
:101DB000C80F7047C0F8C81F704710B4002BDDE98A
:101DC00001C418BF04234360B1FBFCFC0021891C43
:101DD000BCFBF1F35B1EFF2BF9D801619107090EE3
:101DE00002F0300241EA03211143621E11430160F7
:101DF00010BC7047C26812F0020FFBD081607047C0
:101E0000416821F0020141607047416841F00201E0
:101E10004160704770B44B4D2A6E296F11F0004F2E
:101E200014BF01F0700002F03000202808BF4648BF
:101E300018D005DC88B1102808BF444812D009E04A
:101E4000302808BF47F230500CD0702808BF4FF43C
:101E5000004007D070BC002070477C203C4B00EA5B
:101E6000121018584FF0FF3311F0004F02D011F448
:101E7000006F06D001F0004C02F400645CEA040C30
:101E800036D1D5F860C1D5F8644104F01F06761C40
:101E9000C4F30424641C16FB04F46400B0FBF4F0E7
:101EA000CCF309044443CCF3892C00FB0CF0D5F8A7
:101EB00010C004EB902042F480020CF4704CBCF58E
:101EC000804F08BF234B13D009DCBCF5005F08BF6F
:101ED000214B0DD0BCF5405F08BF204B08E0BCF59E
:101EE000E04F08BF1E4B03D0BCF5104F08BF1D4B81
:101EF00012F4800F21D011F0004F19D011F0804F53
:101F000009D011F4006F0CD001F0004C02F4006213
:101F10005CEA020205D0C1F3C551491CB0FBF1F0E7
:101F20000BE04000C1F38651491CB0FBF1F004E026
:101F3000C2F3C351491CB0FBF1F0834238BF1846CD
:101F400070BC704700E00F4000093D000024F40021
:101F50006C340000005A620200B4C40480F0FA023B
:101F600040787D01002D3101434B30B4196E1A6F5A
:101F700021F4800141F4006142F4006419661C6799
:101F800021EA000212F0010F14D060F001021140AA
:101F90009A159A651966D3F850C0D2021CF4807F56
:101FA00008D1521E04BF30BC7047D3F850C01CF497
:101FB000807FF6D021F4FE6100F4FE621143DFF869
:101FC000BCC024F0700222F0004200EA0C0C4CEA83
:101FD000020200F0080C42EACC0219661A6700F40B
:101FE000005C21F4005122F400524CEA01014CEA59
:101FF00002024FF0400CC3F858C012F0004F08BF67
:1020000019661A6718BF196621F00101DFF870C060
:1020100021F0F86100EA0C0C4CEA010122F0FC52BC
:1020200000F0FC5C4CEA020210F0804F08BF22F086
:10203000804209D0DFF84CC022F4800200EA0C0C88
:1020400041F480014CEA020210F4006F08BF4FF423
:1020500000400AD1D3F868C11CF0010F01D1401E25
:10206000F8D121F4006122F4006219661A6730BCCD
:102070001020FEF74BB9000000E00F403000008058
:102080000100C0070000404003490A6E22F4F0122C
:10209000104308667047000000E00F40C0F30723BC
:1020A0000749C0B2194401F07043C1F3130143EA78
:1020B000411141EA800040F0007000220260704748
:1020C00000E60F40C0F307230749C0B2194401F0EE
:1020D0007043C1F3130143EA411141EA800040F02B
:1020E000007001220260704700E60F40C0F8C81F70
:1020F0007047000010B4C26822F0010222F480721E
:10210000C2600A0E0260114A1268114B02EA030C07
:10211000ACF18054CBB2C1F30722B4F520240DD129
:102120004FF4704C0CEA1114234343F400734360E2
:102130000CEA1121114341F4007104E043F40071F1
:10214000416042F40071816010BC704700E00F40B4
:102150000000FF70C26840F20113194022EA010139
:10216000C1607047C26840F2011319401143C16059
:10217000704741627047826922EA010181617047BC
:102180008269114381617047002914BF006AC069E8
:10219000704711F0FF0F18BF826211F47F4F18BF14
:1021A000C2627047FF290CBF806CC06C70474FF053
:1021B0004070E1EE100A704708080808081818185F
:1021C0003830303070F0E0C0C08000000000000007
:1021D00000000000000000000000000000000000FF
:1021E00000000000000000000000000000000000EF
:1021F0000000000000000080C0C0E0E0F07070301F
:10220000301818181808080808000000000000001E
:102210000000000000000000000001030303070F9E
:102220000E0C1C3838B8F8F0F0F8F8F8F8F8F8FCAC
:10223000FCF8F8F8F8F8F8F8F8F8F8F8F8F8F0E03A
:10224000E0F0F0F0F078383C1C1F0F0703030100AA
:10225000000000000000000000000000000000007E
:10226000000000000000000000000000000000006E
:1022700000000000000000060F0F0F0F0F070707F8
:102280001FFFFFFFFFFFFFFFFFFFFFFFFFFFFFFF3E
:10229000FFFF1F0F1F1F1F1F1F1F1E0E0400000028
:1022A0000F050B000000000000000000000000000F
:1022B000000000000000000000000000000000001E
:1022C000000000000000000000000000000000000E
:1022D000000000000001071FFFFFFFFFFFFFFFFFDF
:1022E000FFFF1F07030000000000000000000000C7
:1022F00000000000000000000000000000000000DE
:1023000000000000000000000000000000000000CD
:1023100000000000000000000000000000000000BD
:1023200000000000000000000000003C7F7FFFFF75
:10233000FFFFFFFF7F3F28000000000000000000BB
:10234000000000000000000000000000000000008D
:10235000000000000000000000000000000000007D
:10236000000000000000000000000000000000006D
:10237000000000000000000000000000000000005D
:10238000000000000000000000000000000000004D
:10239000000000000000000000000000000000003D
:1023A000000000000000000000000000000000002D
:1023B00008080808081818183830303070F0E0C0E5
:1023C000C0800000000000000000000000000000CD
:1023D00000000000000000000000000000000000FD
:1023E000000000000000000000000000000000806D
:1023F000C0C0E0E0F07070303018181818080808F5
:1024000008000000F008042424E424240404040444
:102410000408F1030303070F0E0C1C3838B8F8F05A
:10242000F0F8F8F8F8F8F8FCFCF8F8F8F8F8F8F82C
:10243000F8F8F8F8F8F8F0E0E0F0F0F0F078383C70
:102440001C1F0F0703030100000000000000000034
:102450000000000000000000FF00000404078444A6
:10246000408040408000000102FC000000000006A7
:102470000F0F0F0F0F0707071FFFFFFFFFFFFFFFE4
:10248000FFFFFFFFFFFFFFFFFFFF1F0F1F1F1F1FAC
:102490001F1F1E0E040000000F050B0000000000AF
:1024A000000000000000000000000000FF0000002D
:1024B0000000010284888402010000800000018283
:1024C0008484840404840404840810E00001071F49
:1024D000FFFFFFFFFFFFFFFFFFFF1F0703000000DD
:1024E00000000000000000000000000000000000EC
:1024F00000000000000000000000000000000000DC
:102500000F1020408080808088888A858080898F15
:102510008880808382828F80808F82858880808F70
:102520005020003C7F7FFFFFFFFFFFFF7F3F280021
:10253000000000000000000000000000000000009B
:10254000000000000000000000000000000000008B
:10255000000000000000000000000000000000007B
:10256000000000000000000000000000000000006B
:10257000000000000000000000000000000000005B
:10258000000000000000000000000000000000004B
:10259000000000000000000000000000000000003B
:1025A000000000000000000000000000FC04040423
:1025B000F80000FC44A424180000F8040404F80007
:1025C00000FC0000FC040404F80000FC242424D8CF
:1025D0000000F8040404F800000404FC04040000F3
:1025E000000000006080008060000040E00000000B
:1025F0000000C040C000000000000000000000001B
:1026000003020202010000030000010200000102B7
:1026100002020100000300000302020201008043E5
:10262000422222B1909091923222214040800003B8
:102630000000000000000000000102010000000096
:102640000300000000000301020000000000000081
:10265000000000000000000000000000000000007A
:102660000000000000000000000000000000C03872
:1026700006611052520301010000000101030252E1
:102680005010610638E0000000000000000000006B
:10269000000000000000000000000000000000003A
:1026A000000000000000000000000000000000002A
:1026B000000000000000000000000000000000001A
:1026C0000000FF024222F2223222B2A23223322240
:1026D0003222322232E2229202FF00000000000089
:1026E00000000000000000000000000000000000EA
:1026F00000000000000000000000000000000000DA
:1027000000000000000000000000000000000000C9
:10271000008080808000FF009249FF00000000C020
:1027200021120C30C080800000FF492400FF00808F
:102730008080800000000000000000000000000019
:102740000000000000000000000000000000000089
:102750000000000000000000000000000000000079
:10276000000000003F4040405E0C1F101412131682
:10277000121612161216121612161216121712111D
:10278000101F0C5E4040403F0000000000000000B1
:102790000000000000000000000000000000000039
:1027A000000000000000005F0000000700070014A8
:1027B0007F147F14242A7F2A122313086462364967
:1027C0005522500005030000001C22410000412258
:1027D0001C0014083E081408083E08080050300089
:1027E00000080808080800606000002010080402C3
:1027F0003E5149453E00427F4000426151494621D9
:1028000041454B311814127F1027454545393C4A44
:102810004949300171090503364949493606494994
:10282000291E0036360000005636000008142241EA
:102830000014141414140041221408020151090652
:10284000324979413E7E1111117E7F494949363E18
:10285000414141227F4141221C7F494949417F0931
:102860000909013E4149497A7F0808087F00417FF4
:1028700041002040413F017F081422417F404040F9
:10288000407F020C027F7F0408107F3E4141413EA1
:102890007F090909063E4151215E7F0919294646F3
:1028A0004949493101017F01013F4040403F1F201C
:1028B00040201F3F4038403F6314081463070870EE
:1028C00008076151494543007F4141000204081057
:1028D000200041417F00040201020440404040408A
:1028E000000102040020545454787F48444438388E
:1028F00044444420384444487F3854545418087E93
:102900000901020C5252523E7F0804047800447DB3
:1029100040002040443D007F1028440000417F409B
:10292000007C041804787C08040478384444443853
:102930007C14141408081414187C7C080404084837
:1029400054545420043F4440203C4040207C1C20F0
:1029500040201C3C4030403C44281028440C50503F
:10296000503C4464544C44000836410000007F0051
:1029700000004136080010080810081F247C241F9E
:1029800008080808081818183830303070F0E0C00F
:10299000C0800000000000000000000000000000F7
:1029A0000000000000000000000000000000000027
:1029B0000000000000000000000000000000008097
:1029C000C0C0E0E0F070703030181818180808081F
:1029D00008000000000000000000000000000000EF
:1029E000000001030303070F0E0C1C3838B8F8F081
:1029F000F0F8F8F8F8F8F8FCFCF8F8F8F8F8F8F857
:102A0000F8F8F8F8F8F8F0E0E0F0F0F0F078383C9A
:102A10001C1F0F070303010000000000000000005E
:102A200000000000000000000000000000000000A6
:102A30000000000000000000000000000000000690
:102A40000F0F0F0F0F0707071FFFFFFFFFFFFFFF0E
:102A5000FFFFFFFFFFFFFFFFFFFF1F0F1F1F1F1FD6
:102A60001F1F1E0E040000000F050B0000000000D9
:102A70000000000000000000000000000000000056
:102A80000000000000000000000000000000000046
:102A90000000000000000000000000000001071F0F
:102AA000FFFFFFFFFFFFFFFFFFFF1F070300000007
:102AB0000000000000000000000000000000000016
:102AC0000000000000000000000000000000000006
:102AD00000000000000000000000000000000000F6
:102AE00000000000000000000000000000000000E6
:102AF0000000003C7F7FFFFFFFFFFFFF7F3F2800BC
:102B000000000000000000000000000000000000C5
:102B100000000000000000000000000000000000B5
:102B200000000000000000000000000000000000A5
:102B30000000000000000000000000000000000095
:102B40000000000000000000000000000000000085
:102B50000000000000000000000000000000000075
:102B60000000000000000000000000000000000065
:102B700000000000000000000808080808181818E5
:102B80003830303070F0E0C0C0800000000000003D
:102B90000000000000000000000000000000000035
:102BA0000000000000000000000000000000000025
:102BB0000000000000000080C0C0E0E0F070703055
:102BC000301818181808080808000000F008042435
:102BD00024E42424040404040408F1030303070F79
:102BE0000E0C1C3838B8F8F0F0F8F8F8F8F8F8FCE3
:102BF000FCF8F8F8F8F8F8F8F8F8F8F8F8F8F0E071
:102C0000E0F0F0F0F078383C1C1F0F0703030100E0
:102C100000000000000000000000000000000000B4
:102C2000FF0000040407844440804040800000010D
:102C300002FC0000000000060F0F0F0F0F07070730
:102C40001FFFFFFFFFFFFFFFFFFFFFFFFFFFFFFF74
:102C5000FFFF1F0F1F1F1F1F1F1F1E0E040000005E
:102C60000F050B0000000000000000000000000045
:102C700000000000FF0000000000010284888402C0
:102C80000100008000000182848484040484040420
:102C9000840810E00001071FFFFFFFFFFFFFFFFF99
:102CA000FFFF1F07030000000000000000000000FD
:102CB0000000000000000000000000000000000014
:102CC00000000000000000000F1020408080808085
:102CD00088888A858080898F8880808382828F809F
:102CE000808F82858880808F5020003C7F7FFFFF0F
:102CF000FFFFFFFF7F3F28000000000000000000F2
:102D000000000000000000000000000000000000C3
:102D100000000000000000000000000000000000B3
:102D200000000000000000000000000000000000A3
:102D30000000000000000000000000000000000093
:102D40000000000000000000000000000000000083
:102D50000000000000000000000000000000000073
:102D60000000000000000000000000000000000063
:102D700000000000FC040404F80000FC44A4241833
:102D80000000F8040404F80000FC0000FC04040443
:102D9000F80000FC242424D80000F8040404F800FF
:102DA000000404FC040400000000000060800080B7
:102DB00060000040E00000000000C040C0000000D3
:102DC00000000000000000000302020201000003F6
:102DD00000000102000001020202010000030000E5
:102DE0000302020201008043422222B1909091929C
:102DF000322221404080000300000000000000005B
:102E000000010201000000000300000000000301B7
:102E100002000000000000000000000000000000B0
:102E200000000000000000000000000000000000A2
:102E3000000000000000C03806611052520301017A
:102E400000000001010302525010610638E000004A
:102E50000000000000000000000000000000000072
:102E60000000000000000000000000000000000062
:102E70000000000000000000000000000000000052
:102E800000000000000000000000FF024222F222C9
:102E90003222B2A2322332223222322232E2229271
:102EA00002FF000000000000000000000000000021
:102EB0000000000000000000000000000000000012
:102EC0000000000000000000000000000000000002
:102ED0000000000000000000008080808000FF00F3
:102EE0009249FF00000000C021120C30C080800019
:102EF00000FF492400FF0080808080000000000067
:102F000000000000000000000000000000000000C1
:102F100000000000000000000000000000000000B1
:102F20000000000000000000000000003F404040A2
:102F30005E0C1F1014121316121612161216121609
:102F40001216121612171211101F0C5E4040403F4D
:102F50000000000000000000000000000000000071
:102F60000000000000000000000000000000005F02
:102F700000000007000700147F147F14242A7F2A12
:102F800012231308646236495522500005030000DD
:102F9000001C2241000041221C0014083E081408B5
:102FA000083E0808005030000008080808080060C3
:102FB00060000020100804023E5149453E00427F57
:102FC000400042615149462141454B311814127F5E
:102FD0001027454545393C4A4949300171090503E7
:102FE0003649494936064949291E0036360000004F
:102FF0005636000008142241001414141414004121
:103000002214080201510906324979413E7E11110C
:10301000117E7F494949363E414141227F4141224B
:103020001C7F494949417F090909013E4149497AC3
:103030007F0808087F00417F41002040413F017F19
:10304000081422417F404040407F020C027F7F04F1
:1030500008107F3E4141413E7F090909063E41512A
:10306000215E7F09192946464949493101017F01FD
:10307000013F4040403F1F2040201F3F4038403F1D
:103080006314081463070870080761514945430039
:103090007F41410002040810200041417F000402EA
:1030A000010204404040404000010204002054540A
:1030B00054787F4844443838444444203844444891
:1030C0007F3854545418087E0901020C5252523E63
:1030D0007F0804047800447D40002040443D007F88
:1030E0001028440000417F40007C041804787C08CC
:1030F00004047838444444387C1414140808141424
:10310000187C7C080404084854545420043F44406C
:10311000203C4040207C1C2040201C3C4030403C57
:1031200044281028440C5050503C4464544C4400F3
:103130000836410000007F000000413608001008FA
:103140000810081F247C241F0040004010000000CD
:1031500000800540100000000050004011000000F9
:1031600000900540110000000060004012000000C7
:1031700000A0054012000000007000401300000095
:1031800000B00540130000000040024014000000A1
:1031900000C0054014000000005002402E00000056
:1031A00000D005402E000000006002402F0000000B
:1031B00000E005402F0000000070024030000000D9
:1031C00000F005403000000000D003404600000041
:1031D00000000640460000000010064047000000C6
:1031E0000020064048000000003006407F0000003C
:1031F00000400640800000000050064084000000AF
:10320000006006408C0000000040004010000000FC
:103210000080054010000000005000401100000038
:103220000090054011000000006000401200000006
:1032300000A00540120000000070004013000000D4
:1032400000B00540130000000040024014000000E0
:1032500000C0054014000000005002402E00000095
:1032600000D005402E000000006002402F0000004A
:1032700000E005402F000000007002403000000018
:1032800000F005403000000000D003404300000083
:10329000000006404300000000100640440000000B
:1032A00000200640450000000030064058000000A5
:1032B0000040064059000000005006405C0000003D
:1032C00000600640640000000040004000800540AF
:1032D00000500040009005400060004000A0054004
:1032E0000070004000B005400040024000C00540B2
:1032F0000050024000D005400060024000E0054060
:103300000070024000F0054000D00340000006407D
:103310000010064000100640002006400020064035
:1033200000300640003006400040064000400640A5
:103330000050064000500640006006400060064015
:103340000070064000700640008006400080064085
:1033500000900640009006400007000000060000B4
:10336000000500000004000000030000000200004F
:1033700000010000000000000000000018ED00E067
:103380001CED00E020ED00E000E400E004E400E0DB
:1033900008E400E00CE400E010E400E014E400E0E5
:1033A00018E400E01CE400E020E400E024E400E095
:1033B00028E400E02CE400E030E400E034E400E045
:1033C00038E400E03CE400E040E400E044E400E0F5
:1033D00048E400E04CE400E050E400E054E400E0A5
:1033E00058E400E05CE400E060E400E064E400E055
:1033F00068E400E06CE400E070E400E074E400E005
:1034000078E400E07CE400E080E400E084E400E0B4
:1034100088E400E000E100E004E100E008E100E011
:103420000CE100E010E100E080E100E084E100E078
:1034300088E100E08CE100E090E100E000E200E0E3
:1034400004E200E008E200E00CE200E010E200E04C
:1034500080E200E084E200E088E200E08CE200E04C
:1034600090E200E000D0121300389C1C40420F0094
:1034700000201C0080841E0000802500999E3600DC
:103480000040380000093D0000803E0000004B0075
:10349000404B4C0000204E00808D5B0000C05D0062
:1034A0000080700000127A0000007D008096980075
:1034B000001BB7000080BB00C0E8CE00647ADA00D1
:1034C0000024F4000000FA0080A81201002D310150
:1034D00000366E0140787D014000000000000000D1
:1034E0003E00080000000000A000000002000000F4
:1034F00034540100000000002B70060000000000A2
:10350000280000000000000027000100000000006B
:103510002000000000000000500000000200000039
:103520001AAC000000000000179409000000000021
:1035300016980500000000001400000000000000C4
:103540001380080000000000A00000000800000038
:103550001000000000000000280000000200000031
:1035600040000000040000006000000000000000B7
:103570005D000C0000000000500000000000000092
:103580004E0002000000000041AC010000000000FD
:103590003C000000000000003A800900000000002C
:1035A00030000000000000002800000000000000C3
:1035B000270001000000000023600600000000005A
:1035C00021600800000000001E0000000000000054
:1035D0001DC00400000000005000000002000000B8
:1035E00018000000000000001400000000000000AF
:1035F00060000000040000000024F40030003000EF
:10360000005A62029100910000879303D200D20019
:1036100000B4C4041301130100E1F5055401540181
:10362000000E270795019501483600000000002094
:103630002C000000A8020000743600002C000020BE
:1036400064020000C402000001000000000000004D
:10365000000000000000000000000000000000006A
:10366000000000000000000000000000000000005A
:043670000000000056
:040000050000033DB7
:00000001FF
