:020000040000FA
:10000000800200203D030000510300005303000064
:1000100055030000570300005903000000000000D2
:100020000000000000000000000000005B03000072
:100030005D030000000000005F030000610300009A
:100040006303000063030000630300006303000018
:100050006303000063030000630300006303000008
:1000600063030000630300006303000063030000F8
:1000700063030000630300006303000063030000E8
:10008000630300005708000063030000310800000C
:1000900063030000630300006303000063030000C8
:1000A00063030000E907000063030000630300002E
:1000B0006303000063030000AD070000630300005A
:1000C0006303000063030000630300006303000098
:1000D0006303000063030000630300006303000088
:1000E0006303000063030000630300006303000078
:1000F0006303000063030000630300006303000068
:1001000063030000A7080000CF0800007F0800007C
:100110006303000063030000630300006303000047
:100120006303000063030000630300006303000037
:100130006303000063030000630300006303000027
:1001400000000000000000000000000000000000AF
:100150006303000063030000630300006303000007
:10016000000000000000000000000000000000008F
:10017000000000000000000000000000000000007F
:10018000000000000000000000000000000000006F
:10019000000000000000000000000000000000005F
:1001A000000000000000000000000000000000004F
:1001B00063030000630300000B08000063030000FA
:1001C0006303000063030000630300006303000097
:1001D0006303000063030000630300006303000087
:1001E0006303000063030000630300006303000077
:1001F0006303000063030000630300006303000067
:1002000063030000630300006303000000000000BC
:100210006303000063030000630300006303000046
:100220006303000063030000630300006303000036
:100230006303000063030000630300006303000026
:100240006303000063030000630300006303000016
:100250006303000063030000630300006303000006
:1002600063030000630300006303000000F002F872
:1002700000F03CF80AA090E8000C82448344AAF104
:100280000107DA4501D100F031F8AFF2090EBAE802
:100290000F0013F0010F18BFFB1A43F001031847BA
:1002A0005830000078300000103A24BF78C878C178
:1002B000FAD8520724BF30C830C144BF04680C606C
:1002C000704700000023002400250026103A28BFB4
:1002D00078C1FBD8520728BF30C148BF0B607047B8
:1002E0001FB501F0CCFD1FBD10B510BD01F083F8A6
:1002F0001146FFF7F5FF00F04DF801F0A1F803B447
:10030000FFF7F2FF03BC01F0A5F800000138FDD1B2
:1003100070470000EFF3108072B67047EFF3108063
:100320007047EFF3108062B6704730BF704780F3BC
:1003300011887047EFF31180704700004EF6885027
:10034000CEF20000016841F470010160FFF78EBF3A
:10035000FEE7FEE7FEE7FEE7FEE7FEE7FEE7FEE775
:10036000FEE7FEE772B6704762B67047EFF31080A3
:1003700072B6704780F31088704730BF70470248EC
:100380000249014A024B7047800000208002002091
:100390008000002000F075FF00F04CFC00E000BF82
:1003A000FDE7000010B5624801F0F4FC212001F0E7
:1003B00099FA03215F4801F054F803215D4801F0E8
:1003C00055F803215B4801F0C1F800231A460321C8
:1003D000584801F082F8E32300220321554801F038
:1003E000C4F80321534801F0B9F80321514801F042
:1003F00045F8E021212001F0E7FA212001F0A4FADC
:1004000010BD10B54A48401C01F0C4FC4A4801F038
:10041000C1FC0E21494801F01BFA00220E21474879
:1004200001F000F9002301220E21444801F04EF9A9
:10043000432001F057FA422001F054FA412001F024
:1004400051FA01213E4801F00CF801213C4801F02D
:100450000DF801213A4801F079F80221384801F0FD
:1004600000F80221364801F001F80221344801F079
:100470006DF80321324800F0F4FF0321304800F00A
:10048000F5FF03212E4801F061F8032300221946ED
:100490002B4801F022F8602300220321284801F0B4
:1004A00064F800231A460221254801F016F8622359
:1004B00000220221224801F058F8012300221946A7
:1004C0001F4801F00AF86123002201211C4801F0B5
:1004D0004CF801211A4801F041F80121184800F0B8
:1004E000CDFF0221164801F039F80221144800F02E
:1004F000C5FF0321124801F031F80321104800F034
:10050000BDFF2021412001F05FFA2021422001F0AF
:100510005BFA2021432001F057FA412001F014FA40
:10052000422001F011FA432001F00EFA10BD000044
:10053000003800F000800340040800F00040024052
:100540000090034010B52C480078022804DC0020FD
:100550002A49087000F02AFC00F0A1FD264908781D
:1005600008460078FE2802D10520087004E02248E1
:100570000078401C2049087010BD10B500F09BFBAE
:100580001F49087800EBD0714910B0EB41010DD143
:1005900000F016FC01211B4800F092FF02211948CF
:1005A00000F08EFF0321174800F08AFF14480078FE
:1005B000052190FBF1F201FB120008B900F07BFB72
:1005C0000F4800780A2190FBF1F201FB120028B9D4
:1005D00003210D4800F074FF00F02CFB0848007860
:1005E000FE2803D105200649087004E0044800787D
:1005F000401C0349087010BD000000201C000020B2
:1006000001000020009003400080034010B55D48C9
:1006100001F0C0FB5C485D490860081D006840F0BF
:100620001F00091D08602E2001F05CF911215848B7
:1006300001F00FF81121564801F018F9022211219A
:10064000534801F01BF800221121514800F0EAFF45
:100650000A23012211214E4801F038F811214C489B
:1006600000F0FEFF40212E2001F0AEF92E2001F017
:100670006BF910BD10B5434801F08CFB4348001DD9
:10068000006840F01F004149091D086002214048F0
:1006900001F0FAF8012202213D4800F0C3FF0823CF
:1006A000012202213A4801F011F8002202213848C3
:1006B00001F014F910BD10B5364890F9000080F033
:1006C000020034490870084602780221304801F0DF
:1006D00005F910BD10B52B48401F01F05BFBC02190
:1006E0004FF0402001F0D0F80122C0214FF040200F
:1006F00000F098FF0C230122C0214FF0402000F0B1
:10070000E5FF10BD10B5044634B1402211464FF04C
:10071000402001F0E3F805E0002240214FF04020A6
:1007200001F0DCF810BD10B50446224680214FF0E0
:10073000402001F0D3F810BD10B504461148801ECA
:1007400001F028FB8021144801F09EF8012280214D
:10075000114800F067FF0C23012280210E4800F0B1
:10076000B5FF34B1802211464FF0402001F0B6F8B9
:1007700005E0002280214FF0402001F0AFF810BDCD
:1007800070477047050800F04B434F4C205502401E
:1007900000500240020000200070004010B501F03F
:1007A0000CF910BD10B501F001F910BD10B5002411
:1007B0000021514800F05BFF044611214E4800F033
:1007C00045FF04F01100112802D100F040FA0AE0C0
:1007D00014F0100F02D000F01EFA04E014F0010F24
:1007E00001D000F009FA10BD10B50120434908609E
:1007F00000221146424800F00AFF28B1002140487B
:1008000000F000FF00F03FFA10BD10B500240021F9
:100810003C4801F021FB50B1FF213A4801F011FBA7
:10082000FF21384801F026FB0446FFF78BFE10BD80
:1008300010B500240021344801F00EFB50B1FF2117
:10084000314801F0FEFAFF212F4801F013FB044666
:10085000FFF793FE10BD08B5002203212B4800F0DE
:1008600015FE58B10321294800F0FBFD6A4603211B
:10087000264800F059FE26490098086008BD08B5D2
:1008800000220321234800F001FE58B10321214832
:1008900000F0E7FD6A4603211E4800F045FE1E49B0
:1008A0000098086008BD08B500220121194800F031
:1008B000EDFD58B10121174800F0D3FD6A46012132
:1008C000144800F031FE15490098086008BD08B5CD
:1008D000002202210F4800F0D9FD58B102210D4835
:1008E00000F0BFFD6A4602210A4800F01DFE0C49D7
:1008F0000098086008BD000000500240040000207D
:1009000000C003400060034000000340008003403B
:1009100008000020009003400C000020140000207C
:100920001000002070B505460C461DB90020FFF7E9
:10093000E9FE02E04020FFF7E5FE204600F08CFCD7
:1009400070BD70B504460D460B2C01DC052D01DD94
:10095000002070BDC4EBC400C0B240F08001002094
:10096000FFF7E0FF45F040010020FFF7DBFF01202B
:10097000EFE710B5002400BF04E000210120FFF7DD
:10098000D1FF641CB4F5FC7FF7D300210846FFF7C4
:10099000D8FF10BD08B500F02BFCFFF79BFE002030
:1009A000FFF7C1FE0020009002E00098401C00907C
:1009B00000980A28F9D38020FFF7B5FE21210020F6
:1009C000FFF7B0FFBA210020FFF7ACFF04210020A1
:1009D000FFF7A8FF14210020FFF7A4FF202100202B
:1009E000FFF7A0FF0C210020FFF79CFFFFF7C1FFDE
:1009F00008BD70B50546002400BF0AE0A5F120003F
:100A000000EB8000774A1044015D0120FFF78AFF68
:100A1000641C052CF2D300210120FFF783FF70BD79
:100A200010B5044603E02078FFF7E3FF641C20784C
:100A30000028F8D110BD70B504460A2C08DA6AA067
:100A4000FFF7EEFF04F13001C8B2FFF7D2FFB6E0C6
:100A5000642C15DA66A0FFF7E3FF0A2094FBF0F0A0
:100A60003030C5B22846FFF7C4FF0A2094FBF0F1EE
:100A700000FB11403030C5B22846FFF7BAFF9EE0B8
:100A8000B4F57A7F23DA5BA0FFF7CAFF642094FBFA
:100A9000F0F03030C5B22846FFF7ABFF642094FB7E
:100AA000F0F100FB114084B20A2094FBF0F03030EA
:100AB000C5B22846FFF79DFF0A2094FBF0F100FB2A
:100AC00011403030C5B22846FFF793FF77E042F27D
:100AD0001070844233DA2020FFF78BFF4FF47A70D6
:100AE00094FBF0F03030C5B22846FFF782FF4FF498
:100AF0007A7094FBF0F100FB114084B2642094FB07
:100B0000F0F03030C5B22846FFF773FF642094FB45
:100B1000F0F100FB114084B20A2094FBF0F0303079
:100B2000C5B22846FFF765FF0A2094FBF0F100FBF1
:100B300011403030C5B22846FFF75BFF3FE042F27C
:100B4000107094FBF0F03030C5B22846FFF751FF2B
:100B500042F2107094FBF0F100FB114084B24FF4AC
:100B60007A7094FBF0F03030C5B22846FFF741FFB1
:100B70004FF47A7094FBF0F100FB114084B26420D2
:100B800094FBF0F03030C5B22846FFF732FF642006
:100B900094FBF0F100FB114084B20A2094FBF0F0CA
:100BA0003030C5B22846FFF724FF0A2094FBF0F14D
:100BB00000FB11403030C5B22846FFF71AFF70BD68
:100BC00070B50546002400210846FFF7BAFE00BFB5
:100BD00004E0295D0120FFF7A5FE641CB4F5FC7F4D
:100BE000F7D370BD702400002020202000000000FA
:100BF000202020002020000010B5462000F092F9AF
:100C0000002000F0BAF946206249087000204870C0
:100C10000120887010BD10B5002000F083F9462037
:100C200000F0ABF946205B494870002008700220B4
:100C3000887010BD10B5002000F074F9002000F09D
:100C40009CF90020534948700870887010BD10B599
:100C50003C2000F067F93C2000F08FF93C204D4922
:100C6000487008700320887010BD10B55F2000F038
:100C700059F95F2000F081F95F20464948700870FB
:100C80000320887010BD10B5FFF7D4FF32214FF458
:100C90007A7000F03FFA32203E4948700870042014
:100CA00088704FF47A7000F08BFB00203A4908609E
:100CB00000F079FA10BD70B5384800683849096805
:100CC000884205D33548006835490968401A04E070
:100CD0003348006831490968401A04462F480068C3
:100CE00030490968884205D32C4800682D490968B5
:100CF000401A04E02B48006828490968401A054654
:100D00002748006827490968884205D324480068B5
:100D100024490968401A04E022480068204909680B
:100D2000401A0646502C19D2502D17D916D91E48F4
:100D3000007864280FDAFFF78AFF1B480078FE2846
:100D400005DA19480078401C1749087020E0642033
:100D5000154908701CE0FFF788FF19E0502C07D9EF
:100D6000502D05D9FFF757FF00200F4908700FE0FD
:100D700014F1500F07D2502E05D9FFF73DFF002088
:100D80000949087004E0FFF755FF00200649087084
:100D900070BD000019000020040000201400002095
:100DA000100000200C0000201800002010B548485A
:100DB000FFF706FF10BD10B54648FFF701FF10BD55
:100DC00010B54548007820B9FFF7D3FD012042490E
:100DD000087000210220FFF7B4FD404991F901108D
:100DE00088B2FFF728FE2520FFF703FE0021084602
:100DF000FFF7A7FD3AA0FFF713FE01210220FFF73E
:100E0000A0FD364991F9001088B2FFF714FE2520A5
:100E1000FFF7EFFD01210020FFF793FD32A0FFF760
:100E2000FFFD02210020FFF78CFD31A0FFF7F8FD48
:100E30002A4890F90200052818D2DFE800F00307DD
:100E40000B0F13002CA0FFF7EBFD13E02BA0FFF717
:100E5000E7FD0FE02AA0FFF7E3FD0BE029A0FFF775
:100E6000DFFD07E028A0FFF7DBFD03E022A0FFF78E
:100E7000D7FD00BF00BF03210420FFF762FD234917
:100E8000098888B2FFF7D7FD03210020FFF759FD3D
:100E90001FA0FFF7C5FD04210820FFF752FD1E49E2
:100EA000098888B2FFF7C7FD04210846FFF749FD0E
:100EB0001A49098888B2FFF7BEFD04210020FFF718
:100EC00040FD1749098888B2FFF7B5FD10BD000045
:100ED000402A0000502600001C00002019000020BD
:100EE0004D74724C000000004D74725200000000FE
:100EF000446972200000000053740000464C00005A
:100F000046520000467700004277000008000020AB
:100F100054656D703A000000140000200C000020A1
:100F20001000002070B5044654B900224021A548A5
:100F300000F08DFD4FF48071A24800F06CFD1BE0C5
:100F4000632C00D963244FF480719E4800F06DFD3E
:100F500060436421B0FBF1F52A464FF48371994850
:100F600000F07DFD4FF48071964800F059FD01229C
:100F70004021944800F06BFD70BD70B5044654B933
:100F8000002280218F4800F062FD4FF480718D486F
:100F900000F041FD1BE0632C00D963244FF4807105
:100FA000884800F042FD60436421B0FBF1F52A4619
:100FB00040F20711834800F052FD4FF480718148E0
:100FC00000F02EFD012280217E4800F040FD70BD22
:100FD00010B50446002000F0BFFE7B4800F0DAFEAA
:100FE0007A4800F0D7FE7A4800F00EFC794800F00D
:100FF0000BFC0421784800F055FC0821764800F0ED
:1010000051FC00224FF480716E4800F0F1FC224642
:101010004FF480716B4800F011FD01224FF4837191
:10102000684800F01CFD012240F20711654800F0FD
:1010300016FD4FF48071634800F0F2FC10BD70B5EE
:101040000446002000F088FE5F4800F0A3FE5F48E1
:1010500000F0A0FE614800F0D7FB02215E4800F0DE
:1010600021FC0022C021574800F0C2FC2246C021CA
:10107000544800F0E3FCC021524800F0D6FC00EBDD
:10108000800040006421B0FBF1F52A46C5214D489F
:1010900000F0E5FCC0214B4800F0C2FC70BD10B56B
:1010A0004F48007848B101222021464800F0CFFC8B
:1010B000C021444800F0B4FC08E00022202141484F
:1010C00000F0C5FCC0213F4800F0A5FC444890F961
:1010D000000080F001004249087010BD2DE9F04188
:1010E00006460F4615461C460CB9012402E0632C47
:1010F00000D963243946304600F097FC6421B1FBE7
:10110000F4F1B0FBF1F842462946304600F0A7FC66
:10111000BDE8F08170B505460C46002000F01CFECD
:10112000294800F037FE2948801E00F033FE2D4884
:1011300000F06AFB2C4800F067FB01212B4800F00F
:10114000B1FB0221294800F0ADFB002240211D48DF
:1011500000F04EFC2A4640211A4800F06FFC402166
:10116000184800F062FC64214843B0FBF4F63246B4
:101170004021144800F073FC4021124800F055FC57
:1011800064214843B0FBF4F6324641210D4800F09B
:1011900066FC40210B4800F043FC01220321094872
:1011A00000F055FC70BD10B50848801E00F0DEFD53
:1011B0004021044800F02FFC00220321014800F0E8
:1011C00046FC10BD00900240014000F0050800F010
:1011D00005080500050C0500005002400504050047
:1011E0001D000020050003000504030000700040FE
:1011F0007CB51D4800F0CEFD1C4800F0CBFD1C481E
:1012000000F066FC40F6020000F0FEFA40F60240F4
:1012100000F0FAFA41F2024000F0F6FA2C214FF009
:10122000402000F04DFB0021114800F02BFC10483D
:1012300000F025FC054600F055FC044608200D4949
:1012400000231A46CDE900102146094800F01DFC94
:10125000074800F042FC7CBD10B504462146044816
:1012600000F030FC10BD0000001C00F0000800F091
:101270000080004008AF2F0010B5124800F0DCFCE1
:1012800010BD10B5FFF78EFAFFF7F6FF00F02AFC4D
:101290000446FFF77FFBFFF7B9F900F023FC044693
:1012A0004FF47A70FFF794FE00F04EF800F01BF850
:1012B00000F018FC0446FFF7A4F8FFF773F8FFF7F7
:1012C0006DFA10BD4005400770B5044600250026A4
:1012D00000F008FC06464FF47A70B6FBF0F060436D
:1012E000451E284670BD10B53D4800F053FD6E20E8
:1012F00000F0F8FA01213B4800F0A5FDFF21394834
:1013000000F090FD0021374800F058FD22213548BB
:1013100000F058FD4FF47A70FFF7D6FF04462246DE
:10132000FF21304800F09DFDFF212E4800F082FD96
:1013300001212C4800F08CFD20216E2000F044FBA0
:101340006E2000F001FB10BD10B5274800F022FD13
:10135000232000F0C7FA0121244800F074FDFF218A
:10136000224800F05FFD0021204800F027FD2221E7
:101370001E4800F027FD3220FFF7A6FF0446224654
:10138000FF211A4800F06DFDFF21184800F052FDC2
:101390000121164800F05CFD0021232000F014FB21
:1013A000232000F0D1FA10BD70B505460024284670
:1013B000FFF78AFF044600E0641E002CFCD170BDDC
:1013C00070B505460024FFF7EDF92846FFF77CFFCE
:1013D000044600E0641E002CFCD1FFF7DFF970BD6D
:1013E000005C00F000600340000400F000000340D7
:1013F000704770477047754600F028F8AE46050004
:101400006946534620F00700854618B020B5FEF720
:10141000B6FFBDE820404FF000064FF000074FF048
:1014200000084FF0000B21F00701AC46ACE8C00902
:10143000ACE8C009ACE8C009ACE8C0098D4670470B
:101440000446AFF300802046FEF759FF004870477E
:101450002000002001491820ABBEFEE72600020054
:101460007047012202FA01F1C160704782680123CE
:1014700003FA01F122EA010181607047012202FAB8
:1014800001F1C160826811438160704732B1C06868
:101490004FF0011202FA01F1084070474068012242
:1014A0008A4042F48032104010F4803F08BF7047F9
:1014B00040F470204FF4803202FA01F18843704703
:1014C0000A4601F00F0101236FF30F0203FA01F145
:1014D0001143826A11438162704730B444698900C4
:1014E0004FF00F0C0CFA01FC02F00F0524EA0C047B
:1014F0008D402C434461046A03F0030324EA0C0C7E
:101500008B404CEA03030362C36949004FF0300C7F
:101510000CFA01FC02F0300223EA0C0302FA01F19A
:101520001943C16130BC704700EB411000F140012C
:10153000002003E08B6842F8043B401CCB6813F4A6
:10154000807F18BF70470828F4D3704702680123D2
:1015500003FA01F122EA01010160704702680123E8
:1015600003FA01F111430160704710B400EB411020
:10157000910050F840CF0F228A4003F00F042CEA6C
:10158000020C8C404CEA040CC0F800C0D0F818C023
:10159000C3F303242CEA020C8C404CEA040CC0F880
:1015A00018C0D0F804C0C3F303142CEA020C8C401A
:1015B0004CEA040CC0F804C0D0F81CC0C3F30354B8
:1015C0002CEA020C8C404CEA040CC0F81CC013F44A
:1015D000702F4FF001040DD0D0F814C0C3F30243B4
:1015E0002CEA02028B401A434261026904FA01F1BB
:1015F000114304E0026904FA01F122EA01010161E8
:1016000010BC7047012202FA01F10160704722B15B
:101610000068C84000F0010070474068C84000F012
:1016200001007047D0F8003412F0010F14BF0B43D3
:101630008B43C0F8003412F0020FD0F8202414BFFE
:10164000114322EA0101C0F820147047C0F81C14AD
:10165000704700F58262D0F810048843106070472C
:1016600000F58262D0F8100408431060704700292A
:1016700014BFD0F81804D0F814047047D0F8083418
:1016800012F0010F14BF0B438B43C0F80834D0F89D
:10169000043412F0020F14BF0B438B43C0F8043420
:1016A000D0F80C3412F0040F14BF194323EA0101DF
:1016B000C0F80C14D0F8381512F4803F14BF41F074
:1016C000010121F00101C0F8381570472DE9F0073C
:1016D00001274FF0000C0326C2F3411800F6C47432
:1016E00007FA0CF50D4210D0D0F8C49F4FEA4C0514
:1016F00006FA05FA29EA0A09C4F80090D4F800901D
:1017000008FA05F549EA050525600CF1010C0CF015
:10171000FF0CBCF1080FE3D3D0F800C512F0010FA5
:1017200014BF4CEA010C2CEA010CC0F800C5D0F83B
:1017300004C512F0020F14BF4CEA010C2CEA010C94
:10174000C0F804C5D0F808C512F0040F14BF4CEA65
:10175000010C2CEA010CC0F808C5D0F818C512F02D
:10176000080F14BF4CEA010C2CEA010CC0F818C594
:1017700012F0100FD0F83C2514BF0A438A43C0F87A
:101780003C25D0F80C2513F0010F14BF0A438A43FF
:10179000C0F80C25D0F8102513F0020F14BF0A432F
:1017A0008A43C0F81025D0F8142513F0040F14BF95
:1017B0000A438A43C0F81425D0F81C2513F0080FFB
:1017C00014BF0A438A43C0F81C25D0F8442513F4FB
:1017D000007F14BF0A438A43C0F84425D0F840254F
:1017E00013F4407F14BF0A438A43C0F84025D0F861
:1017F0002825002B0CBF114322EA0101C0F828154F
:10180000BDE8F007704700000F4AC0F30741D26EF1
:1018100001238B401A420D4A1ABF02EBC1014A68EC
:1018200052F83120C0F3072102F22C53D2F82C25B4
:101830004FF00F0C0CFA01FC00F00F0022EA0C0232
:10184000884010431860704700E00F40982F000058
:1018500030B50C4605460022FFF7E4FE2146284637
:10186000BDE8304000230122FFF730BF30B50C4601
:1018700005460022FFF7D6FE21462846BDE8304047
:1018800008230122FFF722BF30B50C460546082386
:101890000122FFF71BFF21462846BDE83040012208
:1018A000FFF7C0BE30B50C4605460222FFF7BAFE70
:1018B00021462846BDE8304008230122FFF706BF35
:1018C00030B50C4605460222FFF7ACFE21462846FD
:1018D000BDE8304008230122FFF7F8BE40F8212080
:1018E000704700001649042804BF086820F48030BF
:1018F00018D0052804BF086820F4003012D006284C
:1019000012D00F2815D0102838BF7047103800F0BB
:101910001F01012202FA01F142090A4850F822008F
:101920000160704708607047086820F480200860F4
:1019300070474FF0E020016921F00201016170471A
:1019400024ED00E0F83000001649042804BF0868C0
:1019500040F4803018D0052804BF086840F40030F7
:1019600012D0062812D00F2815D0102838BF704783
:10197000103800F01F01012202FA01F142090A4861
:1019800050F822000160704708607047086840F412
:101990008020086070474FF0E020016941F00201AB
:1019A0000161704724ED00E0E430000010B5FEF75F
:1019B000B1FC002818BF012010BD10B5FEF7B1FC26
:1019C000002818BF012010BD084A20F00303D25898
:1019D00013688007C00E4FF0FF0C0CFA00FC23EADE
:1019E0000C0301FA00F01843106070474830000003
:1019F000084401686FF352011143016012F0020FB5
:101A000014BFB0218C21016214BF4FF4306140F645
:101A10000C0141627047425822F001024250704767
:101A2000425842F001024250704708440168006980
:101A300011F0020F14BF4000401C704708440168B9
:101A400011F0020F14BF5108511E01617047002AA6
:101A5000826814BF114322EA01018160704721F0BE
:101A60003F031844036813F0020F18BF52080369BC
:101A70009A1A11F0010F14BFC26182617047D0F849
:101A8000C80F7047C0F8C81F704710B4002BDDE9BD
:101A900001C418BF04234360B1FBFCFC0021891C76
:101AA000BCFBF1F35B1EFF2BF9D801619107090E16
:101AB00002F0300241EA03211143621E114301602A
:101AC00010BC7047C26812F0020FFBD081607047F3
:101AD000416821F0020141607047416841F0020114
:101AE0004160704770B44B4D2A6E296F11F0004F62
:101AF00014BF01F0700002F03000202808BF4648F3
:101B000018D005DC88B1102808BF444812D009E07D
:101B1000302808BF47F230500CD0702808BF4FF46F
:101B2000004007D070BC002070477C203C4B00EA8E
:101B3000121018584FF0FF3311F0004F02D011F47B
:101B4000006F06D001F0004C02F400645CEA040C63
:101B500036D1D5F860C1D5F8644104F01F06761C73
:101B6000C4F30424641C16FB04F46400B0FBF4F01A
:101B7000CCF309044443CCF3892C00FB0CF0D5F8DA
:101B800010C004EB902042F480020CF4704CBCF5C1
:101B9000804F08BF234B13D009DCBCF5005F08BFA2
:101BA000214B0DD0BCF5405F08BF204B08E0BCF5D1
:101BB000E04F08BF1E4B03D0BCF5104F08BF1D4BB4
:101BC00012F4800F21D011F0004F19D011F0804F86
:101BD00009D011F4006F0CD001F0004C02F4006247
:101BE0005CEA020205D0C1F3C551491CB0FBF1F01B
:101BF0000BE04000C1F38651491CB0FBF1F004E05A
:101C0000C2F3C351491CB0FBF1F0834238BF184600
:101C100070BC704700E00F4000093D000024F40054
:101C20003C310000005A620200B4C40480F0FA02A1
:101C300040787D01002D3101434B30B4196E1A6F8D
:101C400021F4800141F4006142F4006419661C67CC
:101C500021EA000212F0010F14D060F001021140DD
:101C60009A159A651966D3F850C0D2021CF4807F89
:101C700008D1521E04BF30BC7047D3F850C01CF4CA
:101C8000807FF6D021F4FE6100F4FE621143DFF89C
:101C9000BCC024F0700222F0004200EA0C0C4CEAB6
:101CA000020200F0080C42EACC0219661A6700F43E
:101CB000005C21F4005122F400524CEA01014CEA8C
:101CC00002024FF0400CC3F858C012F0004F08BF9A
:101CD00019661A6718BF196621F00101DFF870C094
:101CE00021F0F86100EA0C0C4CEA010122F0FC52F0
:101CF00000F0FC5C4CEA020210F0804F08BF22F0BA
:101D0000804209D0DFF84CC022F4800200EA0C0CBB
:101D100041F480014CEA020210F4006F08BF4FF456
:101D200000400AD1D3F868C11CF0010F01D1401E58
:101D3000F8D121F4006122F4006219661A6730BC00
:101D40001020FEF7E3BA000000E00F4030000080F2
:101D50000100C0070000404003490A6E22F4F0125F
:101D6000104308667047000000E00F40C0F30723EF
:101D70000749C0B2194401F07043C1F3130143EAAB
:101D8000411141EA800040F000700022026070477B
:101D900000E60F40C0F307230749C0B2194401F021
:101DA0007043C1F3130143EA411141EA800040F05E
:101DB000007001220260704700E60F40C0F8C81FA3
:101DC0007047000010B4C26822F0010222F4807251
:101DD000C2600A0E0260114A1268114B02EA030C3B
:101DE000ACF18054CBB2C1F30722B4F520240DD15D
:101DF0004FF4704C0CEA1114234343F40073436016
:101E00000CEA1121114341F4007104E043F4007124
:101E1000416042F40071816010BC704700E00F40E7
:101E20000000FF70C26840F20113194022EA01016C
:101E3000C1607047C26840F2011319401143C1608C
:101E4000704741627047826922EA010181617047EF
:101E50008269114381617047002914BF006AC0691B
:101E6000704711F0FF0F18BF826211F47F4F18BF47
:101E7000C2627047FF290CBF806CC06C70474FF086
:101E80004070E1EE100A7047080808080818181892
:101E90003830303070F0E0C0C0800000000000003A
:101EA0000000000000000000000000000000000032
:101EB0000000000000000000000000000000000022
:101EC0000000000000000080C0C0E0E0F070703052
:101ED0003018181818080808080000000000000052
:101EE0000000000000000000000001030303070FD2
:101EF0000E0C1C3838B8F8F0F0F8F8F8F8F8F8FCE0
:101F0000FCF8F8F8F8F8F8F8F8F8F8F8F8F8F0E06D
:101F1000E0F0F0F0F078383C1C1F0F0703030100DD
:101F200000000000000000000000000000000000B1
:101F300000000000000000000000000000000000A1
:101F400000000000000000060F0F0F0F0F0707072B
:101F50001FFFFFFFFFFFFFFFFFFFFFFFFFFFFFFF71
:101F6000FFFF1F0F1F1F1F1F1F1F1E0E040000005B
:101F70000F050B0000000000000000000000000042
:101F80000000000000000000000000000000000051
:101F90000000000000000000000000000000000041
:101FA000000000000001071FFFFFFFFFFFFFFFFF12
:101FB000FFFF1F07030000000000000000000000FA
:101FC0000000000000000000000000000000000011
:101FD0000000000000000000000000000000000001
:101FE00000000000000000000000000000000000F1
:101FF00000000000000000000000003C7F7FFFFFA9
:10200000FFFFFFFF7F3F28000000000000000000EE
:1020100000000000000000000000000000000000C0
:1020200000000000000000000000000000000000B0
:1020300000000000000000000000000000000000A0
:102040000000000000000000000000000000000090
:102050000000000000000000000000000000000080
:102060000000000000000000000000000000000070
:102070000000000000000000000000000000000060
:1020800008080808081818183830303070F0E0C018
:10209000C080000000000000000000000000000000
:1020A0000000000000000000000000000000000030
:1020B00000000000000000000000000000000080A0
:1020C000C0C0E0E0F0707030301818181808080828
:1020D00008000000F008042424E424240404040478
:1020E0000408F1030303070F0E0C1C3838B8F8F08E
:1020F000F0F8F8F8F8F8F8FCFCF8F8F8F8F8F8F860
:10210000F8F8F8F8F8F8F0E0E0F0F0F0F078383CA3
:102110001C1F0F0703030100000000000000000067
:102120000000000000000000FF00000404078444D9
:10213000408040408000000102FC000000000006DA
:102140000F0F0F0F0F0707071FFFFFFFFFFFFFFF17
:10215000FFFFFFFFFFFFFFFFFFFF1F0F1F1F1F1FDF
:102160001F1F1E0E040000000F050B0000000000E2
:10217000000000000000000000000000FF00000060
:1021800000000102848884020100008000000182B6
:102190008484840404840404840810E00001071F7C
:1021A000FFFFFFFFFFFFFFFFFFFF1F070300000010
:1021B000000000000000000000000000000000001F
:1021C000000000000000000000000000000000000F
:1021D0000F1020408080808088888A858080898F49
:1021E0008880808382828F80808F82858880808FA4
:1021F0005020003C7F7FFFFFFFFFFFFF7F3F280055
:1022000000000000000000000000000000000000CE
:1022100000000000000000000000000000000000BE
:1022200000000000000000000000000000000000AE
:10223000000000000000000000000000000000009E
:10224000000000000000000000000000000000008E
:10225000000000000000000000000000000000007E
:10226000000000000000000000000000000000006E
:10227000000000000000000000000000FC04040456
:10228000F80000FC44A424180000F8040404F8003A
:1022900000FC0000FC040404F80000FC242424D802
:1022A0000000F8040404F800000404FC0404000026
:1022B000000000006080008060000040E00000003E
:1022C0000000C040C000000000000000000000004E
:1022D00003020202010000030000010200000102EB
:1022E0000202010000030000030202020100804319
:1022F000422222B1909091923222214040800003EC
:1023000000000000000000000001020100000000C9
:1023100003000000000003010200000000000000B4
:1023200000000000000000000000000000000000AD
:102330000000000000000000000000000000C038A5
:102340000661105252030101000000010103025214
:102350005010610638E0000000000000000000009E
:10236000000000000000000000000000000000006D
:10237000000000000000000000000000000000005D
:10238000000000000000000000000000000000004D
:102390000000FF024222F2223222B2A23223322273
:1023A0003222322232E2229202FF000000000000BC
:1023B000000000000000000000000000000000001D
:1023C000000000000000000000000000000000000D
:1023D00000000000000000000000000000000000FD
:1023E000008080808000FF009249FF00000000C054
:1023F00021120C30C080800000FF492400FF0080C3
:10240000808080000000000000000000000000004C
:1024100000000000000000000000000000000000BC
:1024200000000000000000000000000000000000AC
:10243000000000003F4040405E0C1F1014121316B5
:102440001216121612161216121612161217121150
:10245000101F0C5E4040403F0000000000000000E4
:10246000000000000000000000000000000000006C
:10247000000000000000005F0000000700070014DB
:102480007F147F14242A7F2A12231308646236499A
:102490005522500005030000001C2241000041228B
:1024A0001C0014083E081408083E080800503000BC
:1024B00000080808080800606000002010080402F6
:1024C0003E5149453E00427F40004261514946210C
:1024D00041454B311814127F1027454545393C4A78
:1024E00049493001710905033649494936064949C8
:1024F000291E00363600000056360000081422411E
:102500000014141414140041221408020151090685
:10251000324979413E7E1111117E7F494949363E4B
:10252000414141227F4141221C7F494949417F0964
:102530000909013E4149497A7F0808087F00417F27
:1025400041002040413F017F081422417F4040402C
:10255000407F020C027F7F0408107F3E4141413ED4
:102560007F090909063E4151215E7F091929464626
:102570004949493101017F01013F4040403F1F204F
:1025800040201F3F4038403F631408146307087021
:1025900008076151494543007F414100020408108A
:1025A000200041417F0004020102044040404040BD
:1025B000000102040020545454787F4844443838C1
:1025C00044444420384444487F3854545418087EC6
:1025D0000901020C5252523E7F0804047800447DE7
:1025E00040002040443D007F1028440000417F40CF
:1025F000007C041804787C08040478384444443887
:102600007C14141408081414187C7C08040408486A
:1026100054545420043F4440203C4040207C1C2023
:1026200040201C3C4030403C44281028440C505072
:10263000503C4464544C44000836410000007F0084
:1026400000004136080010080810081F247C241FD1
:1026500008080808081818183830303070F0E0C042
:10266000C08000000000000000000000000000002A
:10267000000000000000000000000000000000005A
:1026800000000000000000000000000000000080CA
:10269000C0C0E0E0F0707030301818181808080852
:1026A0000800000000000000000000000000000022
:1026B000000001030303070F0E0C1C3838B8F8F0B4
:1026C000F0F8F8F8F8F8F8FCFCF8F8F8F8F8F8F88A
:1026D000F8F8F8F8F8F8F0E0E0F0F0F0F078383CCE
:1026E0001C1F0F0703030100000000000000000092
:1026F00000000000000000000000000000000000DA
:1027000000000000000000000000000000000006C3
:102710000F0F0F0F0F0707071FFFFFFFFFFFFFFF41
:10272000FFFFFFFFFFFFFFFFFFFF1F0F1F1F1F1F09
:102730001F1F1E0E040000000F050B00000000000C
:102740000000000000000000000000000000000089
:102750000000000000000000000000000000000079
:102760000000000000000000000000000001071F42
:10277000FFFFFFFFFFFFFFFFFFFF1F07030000003A
:102780000000000000000000000000000000000049
:102790000000000000000000000000000000000039
:1027A0000000000000000000000000000000000029
:1027B0000000000000000000000000000000000019
:1027C0000000003C7F7FFFFFFFFFFFFF7F3F2800EF
:1027D00000000000000000000000000000000000F9
:1027E00000000000000000000000000000000000E9
:1027F00000000000000000000000000000000000D9
:1028000000000000000000000000000000000000C8
:1028100000000000000000000000000000000000B8
:1028200000000000000000000000000000000000A8
:102830000000000000000000000000000000000098
:102840000000000000000000080808080818181818
:102850003830303070F0E0C0C08000000000000070
:102860000000000000000000000000000000000068
:102870000000000000000000000000000000000058
:102880000000000000000080C0C0E0E0F070703088
:10289000301818181808080808000000F008042468
:1028A00024E42424040404040408F1030303070FAC
:1028B0000E0C1C3838B8F8F0F0F8F8F8F8F8F8FC16
:1028C000FCF8F8F8F8F8F8F8F8F8F8F8F8F8F0E0A4
:1028D000E0F0F0F0F078383C1C1F0F070303010014
:1028E00000000000000000000000000000000000E8
:1028F000FF00000404078444408040408000000141
:1029000002FC0000000000060F0F0F0F0F07070763
:102910001FFFFFFFFFFFFFFFFFFFFFFFFFFFFFFFA7
:10292000FFFF1F0F1F1F1F1F1F1F1E0E0400000091
:102930000F050B0000000000000000000000000078
:1029400000000000FF0000000000010284888402F3
:102950000100008000000182848484040484040453
:10296000840810E00001071FFFFFFFFFFFFFFFFFCC
:10297000FFFF1F0703000000000000000000000030
:102980000000000000000000000000000000000047
:1029900000000000000000000F10204080808080B8
:1029A00088888A858080898F8880808382828F80D2
:1029B000808F82858880808F5020003C7F7FFFFF42
:1029C000FFFFFFFF7F3F2800000000000000000025
:1029D00000000000000000000000000000000000F7
:1029E00000000000000000000000000000000000E7
:1029F00000000000000000000000000000000000D7
:102A000000000000000000000000000000000000C6
:102A100000000000000000000000000000000000B6
:102A200000000000000000000000000000000000A6
:102A30000000000000000000000000000000000096
:102A400000000000FC040404F80000FC44A4241866
:102A50000000F8040404F80000FC0000FC04040476
:102A6000F80000FC242424D80000F8040404F80032
:102A7000000404FC040400000000000060800080EA
:102A800060000040E00000000000C040C000000006
:102A90000000000000000000030202020100000329
:102AA0000000010200000102020201000003000018
:102AB0000302020201008043422222B190909192CF
:102AC000322221404080000300000000000000008E
:102AD00000010201000000000300000000000301EB
:102AE00002000000000000000000000000000000E4
:102AF00000000000000000000000000000000000D6
:102B0000000000000000C0380661105252030101AD
:102B100000000001010302525010610638E000007D
:102B200000000000000000000000000000000000A5
:102B30000000000000000000000000000000000095
:102B40000000000000000000000000000000000085
:102B500000000000000000000000FF024222F222FC
:102B60003222B2A2322332223222322232E22292A4
:102B700002FF000000000000000000000000000054
:102B80000000000000000000000000000000000045
:102B90000000000000000000000000000000000035
:102BA0000000000000000000008080808000FF0026
:102BB0009249FF00000000C021120C30C08080004C
:102BC00000FF492400FF008080808000000000009A
:102BD00000000000000000000000000000000000F5
:102BE00000000000000000000000000000000000E5
:102BF0000000000000000000000000003F404040D6
:102C00005E0C1F101412131612161216121612163C
:102C10001216121612171211101F0C5E4040403F80
:102C200000000000000000000000000000000000A4
:102C30000000000000000000000000000000005F35
:102C400000000007000700147F147F14242A7F2A45
:102C50001223130864623649552250000503000010
:102C6000001C2241000041221C0014083E081408E8
:102C7000083E0808005030000008080808080060F6
:102C800060000020100804023E5149453E00427F8A
:102C9000400042615149462141454B311814127F91
:102CA0001027454545393C4A49493001710905031A
:102CB0003649494936064949291E00363600000082
:102CC0005636000008142241001414141414004154
:102CD0002214080201510906324979413E7E111140
:102CE000117E7F494949363E414141227F4141227F
:102CF0001C7F494949417F090909013E4149497AF7
:102D00007F0808087F00417F41002040413F017F4C
:102D1000081422417F404040407F020C027F7F0424
:102D200008107F3E4141413E7F090909063E41515D
:102D3000215E7F09192946464949493101017F0130
:102D4000013F4040403F1F2040201F3F4038403F50
:102D5000631408146307087008076151494543006C
:102D60007F41410002040810200041417F0004021D
:102D7000010204404040404000010204002054543D
:102D800054787F48444438384444442038444448C4
:102D90007F3854545418087E0901020C5252523E96
:102DA0007F0804047800447D40002040443D007FBB
:102DB0001028440000417F40007C041804787C08FF
:102DC00004047838444444387C1414140808141457
:102DD000187C7C080404084854545420043F4440A0
:102DE000203C4040207C1C2040201C3C4030403C8B
:102DF00044281028440C5050503C4464544C440027
:102E00000836410000007F0000004136080010082D
:102E10000810081F247C241F004000401000000000
:102E2000008005401000000000500040110000002C
:102E300000900540110000000060004012000000FA
:102E400000A00540120000000070004013000000C8
:102E500000B00540130000000040024014000000D4
:102E600000C0054014000000005002402E00000089
:102E700000D005402E000000006002402F0000003E
:102E800000E005402F00000000700240300000000C
:102E900000F005403000000000D003404600000074
:102EA00000000640460000000010064047000000F9
:102EB0000020064048000000003006407F0000006F
:102EC00000400640800000000050064084000000E2
:102ED000006006408C000000004000401000000030
:102EE000008005401000000000500040110000006C
:102EF000009005401100000000600040120000003A
:102F000000A0054012000000007000401300000007
:102F100000B0054013000000004002401400000013
:102F200000C0054014000000005002402E000000C8
:102F300000D005402E000000006002402F0000007D
:102F400000E005402F00000000700240300000004B
:102F500000F005403000000000D0034043000000B6
:102F6000000006404300000000100640440000003E
:102F700000200640450000000030064058000000D8
:102F80000040064059000000005006405C00000070
:102F900000600640640000000040004000800540E2
:102FA00000500040009005400060004000A0054037
:102FB0000070004000B005400040024000C00540E5
:102FC0000050024000D005400060024000E0054093
:102FD0000070024000F0054000D0034000000640B1
:102FE0000010064000100640002006400020064069
:102FF00000300640003006400040064000400640D9
:103000000050064000500640006006400060064048
:1030100000700640007006400080064000800640B8
:1030200000900640009006400007000000060000E7
:103030000005000000040000000300000002000082
:1030400000010000000000000000000018ED00E09A
:103050001CED00E020ED00E000E400E004E400E00E
:1030600008E400E00CE400E010E400E014E400E018
:1030700018E400E01CE400E020E400E024E400E0C8
:1030800028E400E02CE400E030E400E034E400E078
:1030900038E400E03CE400E040E400E044E400E028
:1030A00048E400E04CE400E050E400E054E400E0D8
:1030B00058E400E05CE400E060E400E064E400E088
:1030C00068E400E06CE400E070E400E074E400E038
:1030D00078E400E07CE400E080E400E084E400E0E8
:1030E00088E400E000E100E004E100E008E100E045
:1030F0000CE100E010E100E080E100E084E100E0AC
:1031000088E100E08CE100E090E100E000E200E016
:1031100004E200E008E200E00CE200E010E200E07F
:1031200080E200E084E200E088E200E08CE200E07F
:1031300090E200E000D0121300389C1C40420F00C7
:1031400000201C0080841E0000802500999E36000F
:103150000040380000093D0000803E0000004B00A8
:10316000404B4C0000204E00808D5B0000C05D0095
:103170000080700000127A0000007D0080969800A8
:10318000001BB7000080BB00C0E8CE00647ADA0004
:103190000024F4000000FA0080A81201002D310183
:1031A00000366E0140787D01400000000000000004
:1031B0003E00080000000000A00000000200000027
:1031C00034540100000000002B70060000000000D5
:1031D000280000000000000027000100000000009F
:1031E000200000000000000050000000020000006D
:1031F0001AAC000000000000179409000000000055
:1032000016980500000000001400000000000000F7
:103210001380080000000000A0000000080000006B
:103220001000000000000000280000000200000064
:1032300040000000040000006000000000000000EA
:103240005D000C00000000005000000000000000C5
:103250004E0002000000000041AC01000000000030
:103260003C000000000000003A800900000000005F
:1032700030000000000000002800000000000000F6
:10328000270001000000000023600600000000008D
:1032900021600800000000001E0000000000000087
:1032A0001DC00400000000005000000002000000EB
:1032B00018000000000000001400000000000000E2
:1032C00060000000040000000024F4003000300022
:1032D000005A62029100910000879303D200D2004D
:1032E00000B4C4041301130100E1F50554015401B5
:1032F000000E2707950195011833000000000020FB
:1033000020000000A8020000383300002000002048
:1033100060020000C4020000000000000000000085
:10332000000000000000000000000000000000009D
:08333000000000000000000095
:040000050000033DB7
:00000001FF
