:020000040000FA
:10000000900200203D030000510300005303000054
:1000100055030000570300005903000000000000D2
:100020000000000000000000000000005B03000072
:100030005D030000000000005F030000610300009A
:100040006303000063030000630300006303000018
:100050006303000063030000630300006303000008
:1000600063030000630300006303000063030000F8
:1000700063030000630300006303000063030000E8
:1000800063030000F708000063030000D1080000CC
:1000900063030000630300006303000063030000C8
:1000A000630300008908000063030000630300008D
:1000B00063030000630300004D08000063030000B9
:1000C0006303000063030000630300006303000098
:1000D0006303000063030000630300006303000088
:1000E0006303000063030000630300006303000078
:1000F0006303000063030000630300006303000068
:10010000330900005B09000083090000630300005D
:100110006303000063030000630300006303000047
:100120006303000063030000630300006303000037
:100130006303000063030000630300006303000027
:1001400000000000000000000000000000000000AF
:100150006303000063030000630300006303000007
:10016000000000000000000000000000000000008F
:10017000000000000000000000000000000000007F
:10018000000000000000000000000000000000006F
:10019000000000000000000000000000000000005F
:1001A000000000000000000000000000000000004F
:1001B0006303000063030000AB080000630300005A
:1001C0006303000063030000630300006303000097
:1001D0006303000063030000630300006303000087
:1001E0006303000063030000630300006303000077
:1001F0006303000063030000630300006303000067
:1002000063030000630300006303000000000000BC
:100210006303000063030000630300006303000046
:100220006303000063030000630300006303000036
:100230006303000063030000630300006303000026
:100240006303000063030000630300006303000016
:100250006303000063030000630300006303000006
:1002600063030000630300006303000000F002F872
:1002700000F03CF80AA090E8000C82448344AAF104
:100280000107DA4501D100F031F8AFF2090EBAE802
:100290000F0013F0010F18BFFB1A43F001031847BA
:1002A0001C3400003C340000103A24BF78C878C1E8
:1002B000FAD8520724BF30C830C144BF04680C606C
:1002C000704700000023002400250026103A28BFB4
:1002D00078C1FBD8520728BF30C148BF0B607047B8
:1002E0001FB501F0AEFF1FBD10B510BD01F003FA40
:1002F0001146FFF7F5FF00F04DF801F021FA03B4C5
:10030000FFF7F2FF03BC01F025FA00000138FDD130
:1003100070470000EFF3108072B67047EFF3108063
:100320007047EFF3108062B6704730BF704780F3BC
:1003300011887047EFF31180704700004EF6885027
:10034000CEF20000016841F470010160FFF78EBF3A
:10035000FEE7FEE7FEE7FEE7FEE7FEE7FEE7FEE775
:10036000FEE7FEE772B6704762B67047EFF31080A3
:1003700072B6704780F31088704730BF70470248EC
:100380000249014A024B7047900000209002002071
:100390009000002001F01BF800F0B0FC00E000BF6E
:1003A000FDE7000010B5624801F0D6FE212001F003
:1003B0007BFC03215F4801F0D4F903215D4801F083
:1003C000D5F903215B4801F041FA00231A460321C5
:1003D000584801F002FAE32300220321554801F0B6
:1003E00044FA0321534801F039FA0321514801F03E
:1003F000C5F9E021212001F0C9FC212001F086FC93
:1004000010BD10B54A48401C01F0A6FE4A4801F054
:10041000A3FE0E21494801F09BFB00220E21474814
:1004200001F080FA002301220E21444801F0CEFAA7
:10043000402001F039FC412001F036FC422001F05F
:1004400033FC00213E4801F08CF900213C4801F0CA
:100450008DF900213A4801F0F9F90121384801F0FD
:1004600080F90121364801F081F90121344801F079
:10047000EDF90221324801F074F90221304801F00F
:1004800075F902212E4801F0E1F9012300221146FD
:100490002B4801F0A2F9602300221146284801F000
:1004A000E4F9022300221946254801F096F9622357
:1004B00000220221224801F0D8F902230022012162
:1004C0001F4801F08AF96123002201211C4801F034
:1004D000CCF900211A4801F0C1F90121184801F0B6
:1004E000BDF90221164801F0B9F90021144801F0C4
:1004F00045F90121124801F041F90221104801F0AB
:100500003DF92021402001F041FC2021412001F053
:100510003DFC2021422001F039FC402001F0F6FB97
:10052000412001F0F3FB422001F0F0FB10BD000080
:10053000003800F000800340040800F00040024052
:100540000090034010B539480078022802DC00F022
:10055000DBFC02E000203649087000F046FE33491B
:10056000087808460078FE2802D10520087004E0CB
:100570002E480078401C2D49087010BD10B500F0C1
:1005800008FC2C49087800EBD0714910B0EB410110
:100590001FD1294801F014F90121274801F010F971
:1005A0000221254801F00CF92448007888B1062181
:1005B0001D2000F0F6FF2249086007211D2000F0F1
:1005C000F0FF2049086008211D2000F0EAFF1E49C5
:1005D000086018480078052190FBF1F201FB120039
:1005E00008B900F0D6FB134800780A2190FBF1F21D
:1005F00001FB120058B90E480078012801D000F024
:1006000088FC0321114801F0DBF800F077FB094872
:100610000078FE2803D105200649087004E005484B
:100620000078401C0349087010BD00000100002044
:100630000000002002000020009003402A0000205B
:10064000180000201C000020200000200080034033
:1006500010B5734801F080FD724873490860081DA9
:10066000006840F01F00091D08602E2001F01CFBEF
:1006700011216E4801F06DF911216C4801F076FAF4
:1006800002221121694801F079F9002211216748FD
:1006900001F048F90A2301221121644801F096F97A
:1006A0001121624801F05CF940212E2001F06EFB1F
:1006B0002E2001F02BFB10BD10B5594801F04CFD68
:1006C0005948001D006840F01F005749091D086087
:1006D0000221564801F058FA01220221534801F044
:1006E00021F9082301220221504801F06FF900226C
:1006F00002214E4801F08EFA10BD10B54C4890F919
:10070000000080F002004A49087008460278022181
:10071000464801F07FFA10BD10B54148401F01F076
:100720001BFDC0214FF0402001F02EFA0122C02114
:100730004FF0402001F0F6F80C230122C0214FF0C9
:10074000402001F043F910BD10B5044634B14022F9
:1007500011464FF0402001F05DFA05E000224021F3
:100760004FF0402001F056FA10BD10B50446224665
:1007700080214FF0402001F04DFA10BD10B52848FF
:10078000801E01F0E9FCC0212A4801F0FDF9012298
:10079000C021284801F0C6F80C230122C0212548B9
:1007A00001F014F910BD10B5044654B140221146B1
:1007B000204801F02FFA802211461E4801F02AFA43
:1007C00009E0002240211B4801F024FA0022802188
:1007D000184801F01FFA10BD10B51148401E01F075
:1007E000BBFC0121144801F0CFF901221146124847
:1007F00001F098F80C23012211460F4801F0E6F8A9
:1008000010BD10B504462CB1012211460A4801F072
:1008100001FA04E000220121074801F0FBF910BDB4
:10082000050800F04B434F4C205502400050024059
:1008300003000020007000400040024010B501F0AD
:100840009EFA10BD10B501F093FA10BD10B500244A
:100850000021564801F08BF804461121534801F05D
:1008600075F804F01100112802D100F054FA0AE0E2
:1008700014F0100F02D000F02FFA04E014F0010F72
:1008800001D000F017FA10BD10B5012048490860EA
:1008900000221146474801F03AF828B100214548A6
:1008A00001F030F800F059FA10BD10B50024002115
:1008B000414801F0B3FC50B1FF213F4801F0A3FCD7
:1008C000FF213D4801F0B8FC0446FFF73BFE10BD98
:1008D00010B500240021394801F0A0FC50B1FF21DF
:1008E000364801F090FCFF21344801F0A5FC044695
:1008F000FFF744FE10BD08B500220321304800F088
:1009000045FFA8B103212E4800F02BFF6A460321C2
:100910002B4800F089FF40F6AB110098484340F2A5
:10092000C351A1EB10300A21B0FBF1F0254908605A
:1009300008BD08B500221146234800F027FF58B132
:100940000021214800F00DFF6A4600211E4800F0FA
:100950006BFF1E490098086008BD08B50022012100
:10096000194800F013FF58B10121174800F0F9FEB3
:100970006A460121144800F057FF154900980860A5
:1009800008BD08B5002202210F4800F0FFFE58B153
:1009900002210D4800F0E5FE6A4602210A4800F0F7
:1009A00043FF0C490098086008BD00000050024059
:1009B0000400002000C0034000600340000003402A
:1009C0000080034008000020009003400C0000203D
:1009D000140000201000002070B505460C461DB91B
:1009E0000020FFF7B1FE02E04020FFF7ADFE2046F9
:1009F00000F0D8FC70BD70B504460D460B2C01DC30
:100A0000052D01DD002070BDC4EBC400C0B240F074
:100A100080010020FFF7E0FF45F040010020FFF7D4
:100A2000DBFF0120EFE710B5002400BF04E0002148
:100A30000120FFF7D1FF641CB4F5FC7FF7D3002140
:100A40000846FFF7D8FF10BD10B500F077FCFFF7A0
:100A500063FE0020FFF789FE012000F05BFD80208F
:100A6000FFF783FE21210020FFF7B6FFBA21002007
:100A7000FFF7B2FF04210020FFF7AEFF1421002092
:100A8000FFF7AAFF20210020FFF7A6FF0C2100207E
:100A9000FFF7A2FFFFF7C7FF10BD70B505460024A2
:100AA00000BF0AE0A5F1200000EB8000774A104467
:100AB000015D0120FFF790FF641C052CF2D300219B
:100AC0000120FFF789FF70BD10B5044603E02078D0
:100AD000FFF7E3FF641C20780028F8D110BD70B543
:100AE00004460A2C08DA6AA0FFF7EEFF04F1300191
:100AF000C8B2FFF7D2FFB6E0642C15DA66A0FFF7A4
:100B0000E3FF0A2094FBF0F03030C5B22846FFF72F
:100B1000C4FF0A2094FBF0F100FB11403030C5B255
:100B20002846FFF7BAFF9EE0B4F57A7F23DA5BA090
:100B3000FFF7CAFF642094FBF0F03030C5B22846BE
:100B4000FFF7ABFF642094FBF0F100FB114084B28F
:100B50000A2094FBF0F03030C5B22846FFF79DFF25
:100B60000A2094FBF0F100FB11403030C5B228465A
:100B7000FFF793FF77E042F21070844233DA2020CF
:100B8000FFF78BFF4FF47A7094FBF0F03030C5B272
:100B90002846FFF782FF4FF47A7094FBF0F100FBD8
:100BA000114084B2642094FBF0F03030C5B2284686
:100BB000FFF773FF642094FBF0F100FB114084B257
:100BC0000A2094FBF0F03030C5B22846FFF765FFED
:100BD0000A2094FBF0F100FB11403030C5B22846EA
:100BE000FFF75BFF3FE042F2107094FBF0F0303013
:100BF000C5B22846FFF751FF42F2107094FBF0F1A6
:100C000000FB114084B24FF47A7094FBF0F0303066
:100C1000C5B22846FFF741FF4FF47A7094FBF0F11C
:100C200000FB114084B2642094FBF0F03030C5B278
:100C30002846FFF732FF642094FBF0F100FB1140DF
:100C400084B20A2094FBF0F03030C5B22846FFF79A
:100C500024FF0A2094FBF0F100FB11403030C5B2B4
:100C60002846FFF71AFF70BD70B505460024002125
:100C70000846FFF7C0FE00BF04E0295D0120FFF732
:100C8000ABFE641CB4F5FC7FF7D370BD34280000C4
:100C90002020202000000000202020002020000034
:100CA00010B5FFF7D5FCFFF769FD4FF47A7000F03F
:100CB00035FA10BD10B50020FFF775FD462000F095
:100CC000D7F9002000F0FFF946208649087000207F
:100CD00048700120887010BD10B50020FFF763FD3B
:100CE000002000F0C5F9462000F0EDF946207D49CE
:100CF0004870002008700220887010BD10B50020D8
:100D000000F0B6F9002000F0DEF9002075494870C7
:100D10000870887010BD10B50020FFF744FD3C201E
:100D200000F0A6F93C2000F0CEF93C206D49487057
:100D300008700320887010BD10B50020FFF733FD48
:100D40005F2000F095F95F2000F0BDF95F20654954
:100D5000487008700320887010BD10B5FFF7CEFFF3
:100D60000120FFF720FD322000F082F9322000F050
:100D7000AAF932205B4948700870042088704FF44B
:100D80007A7000F0C7FB002057490860FFF7B6FFF4
:100D900010BD70B55548006855490968884205D3AB
:100DA0005248006852490968401A04E050480068F7
:100DB0004E490968401A04464C4800684D49096884
:100DC000884205D3494800684A490968401A04E046
:100DD0004848006845490968401A05464448006883
:100DE00044490968884205D3414800684149096877
:100DF000401A04E03F4800683D490968401A064629
:100E0000782C27D2782D25D924D93848016839483B
:100E10000068783081421DD935480168354800683E
:100E20007830814216D93448007864280FDAFFF709
:100E300072FF31480078FE2805DA2F480078401C00
:100E40002D4908703BE064202B49087037E0FFF71C
:100E500073FF34E0782C15D9782D13D92348016815
:100E600023480068783081420CD920480168214825
:100E700000687830814205D9FFF72EFF00201E4917
:100E800008701CE0782C15D9782E13D91848016801
:100E900016480068783081420CD915480168154819
:100EA00000687830814205D9FFF704FF002012491D
:100EB000087004E0FFF722FF00200F4908700F4878
:100EC0000068322801D9FFF7F5FE0D480068322886
:100ED00001D9FFF701FF0B480068322801D9FFF75D
:100EE0001AFF70BD2500002004000020140000201F
:100EF000100000200C00002024000020180000201A
:100F00001C0000202000002010B54548FFF7ACFE73
:100F100010BD10B54348007820B9FFF784FD0120CB
:100F20004049087000210220FFF765FD3E4991F914
:100F3000011088B2FFF7D3FD2520FFF7AEFD002199
:100F40000846FFF758FD39A0FFF7BEFD012102203A
:100F5000FFF751FD344991F9001088B2FFF7BFFD4A
:100F60002520FFF79AFD01210020FFF744FD31A065
:100F7000FFF7AAFD02210020FFF73DFD2FA0FFF79C
:100F8000A3FD294890F90200052818D2DFE800F0F7
:100F900003070B0F13002BA0FFF796FD13E02AA009
:100FA000FFF792FD0FE029A0FFF78EFD0BE028A0D0
:100FB000FFF78AFD07E027A0FFF786FD03E021A0E9
:100FC000FFF782FD00BF00BF03210420FFF713FDE0
:100FD0002149098888B2FFF782FD03210020FFF72D
:100FE0000AFD1EA0FFF770FD04210820FFF703FD96
:100FF0001C49098888B2FFF772FD04210846FFF7F3
:10100000FAFC1949098888B2FFF769FD042100201C
:10101000FFF7F1FC1549098888B2FFF760FD10BDA4
:10102000042E000028000020250000204D74724C82
:10103000000000004D7472520000000044697220EC
:101040000000000053740000464C000046520000AF
:1010500046770000427700000800002054656D705C
:101060003A000000140000200C00002010000020B6
:1010700070B5044654B900224021A54800F0C9FECD
:101080004FF48071A24800F0A8FE1BE0632C00D949
:1010900063244FF480719E4800F0A9FE60436421F0
:1010A000B0FBF1F52A464FF48371994800F0B9FE80
:1010B0004FF48071964800F095FE0122402194483B
:1010C00000F0A7FE70BD70B5044654B9002280211F
:1010D0008F4800F09EFE4FF480718D4800F07DFE39
:1010E0001BE0632C00D963244FF48071884800F022
:1010F0007EFE60436421B0FBF1F52A4640F2071101
:10110000834800F08EFE4FF48071814800F06AFE43
:10111000012280217E4800F07CFE70BD10B504469F
:10112000002000F0FBFF7B4801F016F87A4801F040
:1011300013F87A4800F0E8FC794800F0E5FC042157
:10114000784800F04BFD0821764800F047FD00226A
:101150004FF480716E4800F02DFE22464FF48071EE
:101160006B4800F04DFE01224FF48371684800F097
:1011700058FE012240F20711654800F052FE4FF47C
:101180008071634800F02EFE10BD70B5044600204B
:1011900000F0C4FF5F4800F0DFFF5F4800F0DCFFB5
:1011A000614800F0B1FC02215E4800F017FD00220A
:1011B000C021574800F0FEFD2246C021544800F0EF
:1011C0001FFEC021524800F012FE00EB80004000DC
:1011D0006421B0FBF1F52A46C5214D4800F021FEFF
:1011E000C0214B4800F0FEFD70BD10B54F4800789F
:1011F00048B101222021464800F00BFEC02144489E
:1012000000F0F0FD08E000222021414800F001FE3E
:10121000C0213F4800F0E1FD444890F9000080F013
:1012200001004249087010BD2DE9F04106460F4605
:1012300015461C460CB9012402E0632C00D9632436
:101240003946304600F0D3FD6421B1FBF4F1B0FB28
:10125000F1F842462946304600F0E3FDBDE8F08152
:1012600070B505460C46002000F058FF294800F0F4
:1012700073FF2948801E00F06FFF2D4800F044FCEA
:101280002C4800F041FC01212B4800F0A7FC022172
:10129000294800F0A3FC002240211D4800F08AFDEF
:1012A0002A4640211A4800F0ABFD4021184800F0C2
:1012B0009EFD64214843B0FBF4F6324640211448B9
:1012C00000F0AFFD4021124800F091FD6421484339
:1012D000B0FBF4F6324641210D4800F0A2FD40215A
:1012E0000B4800F07FFD01220321094800F091FD29
:1012F00070BD10B50848801E00F01AFF4021044858
:1013000000F06BFD00220321014800F082FD10BDBA
:1013100000900240014000F0050800F005080500BB
:10132000050C0500005002400504050029000020BE
:101330000500030005040300007000407CB51D4853
:1013400000F00AFF1C4800F007FF1C4800F0A2FD57
:1013500040F6020000F0D8FB40F6024000F0D4FB5B
:1013600041F2024000F0D0FB2C214FF0402000F071
:1013700043FC0021114800F067FD104800F061FDBA
:10138000054600F091FD044608200D4900231A4649
:10139000CDE900102146094800F059FD074800F04A
:1013A0007EFD7CBD10B504462146044800F06CFD6E
:1013B00010BD0000001C00F0000800F0008000409C
:1013C00008AF2F0010B5144800F018FE10BD70B51E
:1013D000FFF738FAFFF7F6FF00F066FD044600F06D
:1013E0005DF800F02AF8FFF72FFBFFF731F9FFF760
:1013F000C5F94FF47A70FFF791FEFFF702F8FEF798
:10140000D1FF00F043F900F04FFD0546AC4201D199
:10141000FFF714FA70BD00004005400770B50446A0
:101420000025002600F040FD06464FF47A70B6FB1A
:10143000F0F06043451E284670BD10B53D4800F0F1
:101440008BFE6E2000F030FC01213B4800F0DDFEF9
:10145000FF21394800F0C8FE0021374800F090FE17
:101460002221354800F090FE4FF47A70FFF7D6FF46
:1014700004462246FF21304800F0D5FEFF212E48C9
:1014800000F0BAFE01212C4800F0C4FE20216E209D
:1014900000F07CFC6E2000F039FC10BD10B5274830
:1014A00000F05AFE232000F0FFFB0121244800F049
:1014B000ACFEFF21224800F097FE0021204800F0FA
:1014C0005FFE22211E4800F05FFE3220FFF7A6FFDC
:1014D00004462246FF211A4800F0A5FEFF211848C5
:1014E00000F08AFE0121164800F094FE002123201E
:1014F00000F04CFC232000F009FC10BD70B505463F
:1015000000242846FFF78AFF044600E0641E002CF2
:10151000FCD170BD70B505460024FFF793F928464D
:10152000FFF77CFF044600E0641E002CFCD1FFF7AF
:1015300085F970BD005C00F000600340000400F01D
:101540000000034010B500BF4A4800F066FB0028C9
:10155000FAD110BD2DE9F04104460E46154600278C
:1015600000222146434800F09BFB424800F061FB0B
:10157000C7B231463F4800F05AFB07203D4948605A
:10158000084600F056FBC7B229463A4800F04FFB28
:10159000072038494860084600F04BFBC7B2BDE859
:1015A000F0812DE9F04104460D4600270026002277
:1015B0002146304800F074FB2E4800F03AFBC7B2D9
:1015C00029462C4800F033FB07212A4800F02BFB6A
:1015D000FFF7B8FF274800F02CFBC7B201222146D5
:1015E000244800F05DFBFFF7ADFF224800F021FB2F
:1015F000C7B2204800F019FB064607211D4800F03D
:1016000012FB1C4800F015FB10B93046BDE8F08114
:101610000020FBE710B5184800F09EFD174800F0C9
:101620009BFD174800F070FA164800F06DFA04218F
:10163000154800F0C5FA0821134800F0B3FA0A2350
:1016400001220421104800F0C1F9092301220821D8
:101650000D4800F0BBF902220C210B4800F062F9A2
:1016600000F022FC044600222146024800F0EEFA77
:1016700010BD000000000240002000F0010800F052
:1016800003080100030C01000050004010B5FFF7F3
:10169000A3F80120FFF7B5F8FFF7BCFF05221621DC
:1016A0001D20FFF757FF002210211D20FFF752FFDA
:1016B000002211211D20FFF74DFF002212211D20C5
:1016C000FFF748FF002213211D20FFF743FF0022F0
:1016D00014211D20FFF73EFF002215211D20FFF7DA
:1016E00039FF01200149087010BD00002A000020C8
:1016F000704770477047754600F028F8AE46050001
:101700006946534620F00700854618B020B5FEF71D
:1017100036FEBDE820404FF000064FF000074FF0C6
:1017200000084FF0000B21F00701AC46ACE8C009FF
:10173000ACE8C009ACE8C009ACE8C0098D46704708
:101740000446AFF300802046FEF7D9FD00487047FD
:101750002C00002001491820ABBEFEE72600020045
:101760007047012202FA01F1C160704782680123CB
:1017700003FA01F122EA010181607047012202FAB5
:1017800001F1C160826811438160704732B1C06865
:101790004FF0011202FA01F108407047406801223F
:1017A0008A4042F48032104010F4803F08BF7047F6
:1017B00040F470204FF4803202FA01F18843704700
:1017C0000A4601F00F0101236FF30F0203FA01F142
:1017D0001143826A11438162704730B444698900C1
:1017E0004FF00F0C0CFA01FC02F00F0524EA0C0478
:1017F0008D402C434461046A03F0030324EA0C0C7B
:101800008B404CEA03030362C36949004FF0300C7C
:101810000CFA01FC02F0300223EA0C0302FA01F197
:101820001943C16130BC704700EB411000F1400129
:10183000002003E08B6842F8043B401CCB6813F4A3
:10184000807F18BF70470828F4D3704702680123CF
:1018500003FA01F122EA01010160704702680123E5
:1018600003FA01F111430160704710B400EB41101D
:10187000910050F840CF0F228A4003F00F042CEA69
:10188000020C8C404CEA040CC0F800C0D0F818C020
:10189000C3F303242CEA020C8C404CEA040CC0F87D
:1018A00018C0D0F804C0C3F303142CEA020C8C4017
:1018B0004CEA040CC0F804C0D0F81CC0C3F30354B5
:1018C0002CEA020C8C404CEA040CC0F81CC013F447
:1018D000702F4FF001040DD0D0F814C0C3F30243B1
:1018E0002CEA02028B401A434261026904FA01F1B8
:1018F000114304E0026904FA01F122EA01010161E5
:1019000010BC7047012202FA01F10160704722B158
:101910000068C84000F0010070474068C84000F00F
:1019200001007047D0F8003412F0010F14BF0B43D0
:101930008B43C0F8003412F0020FD0F8202414BFFB
:10194000114322EA0101C0F820147047C0F81C14AA
:10195000704700F58262D0F8100488431060704729
:1019600000F58262D0F81004084310607047002927
:1019700014BFD0F81804D0F814047047D0F8083415
:1019800012F0010F14BF0B438B43C0F80834D0F89A
:10199000043412F0020F14BF0B438B43C0F804341D
:1019A000D0F80C3412F0040F14BF194323EA0101DC
:1019B000C0F80C14D0F8381512F4803F14BF41F071
:1019C000010121F00101C0F8381570472DE9F00739
:1019D00001274FF0000C0326C2F3411800F6C4742F
:1019E00007FA0CF50D4210D0D0F8C49F4FEA4C0511
:1019F00006FA05FA29EA0A09C4F80090D4F800901A
:101A000008FA05F549EA050525600CF1010C0CF012
:101A1000FF0CBCF1080FE3D3D0F800C512F0010FA2
:101A200014BF4CEA010C2CEA010CC0F800C5D0F838
:101A300004C512F0020F14BF4CEA010C2CEA010C91
:101A4000C0F804C5D0F808C512F0040F14BF4CEA62
:101A5000010C2CEA010CC0F808C5D0F818C512F02A
:101A6000080F14BF4CEA010C2CEA010CC0F818C591
:101A700012F0100FD0F83C2514BF0A438A43C0F877
:101A80003C25D0F80C2513F0010F14BF0A438A43FC
:101A9000C0F80C25D0F8102513F0020F14BF0A432C
:101AA0008A43C0F81025D0F8142513F0040F14BF92
:101AB0000A438A43C0F81425D0F81C2513F0080FF8
:101AC00014BF0A438A43C0F81C25D0F8442513F4F8
:101AD000007F14BF0A438A43C0F84425D0F840254C
:101AE00013F4407F14BF0A438A43C0F84025D0F85E
:101AF0002825002B0CBF114322EA0101C0F828154C
:101B0000BDE8F007704700000F4AC0F30741D26EEE
:101B100001238B401A420D4A1ABF02EBC1014A68E9
:101B200052F83120C0F3072102F22C53D2F82C25B1
:101B30004FF00F0C0CFA01FC00F00F0022EA0C022F
:101B4000884010431860704700E00F405C3300008D
:101B500030B50C4605460022FFF7E4FE2146284634
:101B6000BDE8304000230122FFF730BF30B50C46FE
:101B700005460022FFF7D6FE21462846BDE8304044
:101B800008230122FFF722BF30B50C460546082383
:101B90000122FFF71BFF21462846BDE83040012205
:101BA000FFF7C0BE30B50C4605460222FFF7BAFE6D
:101BB00021462846BDE8304009230122FFF706BF31
:101BC00030B50C4605460222FFF7ACFE21462846FA
:101BD000BDE8304008230122FFF7F8BE30B50C46BF
:101BE00005460222FFF79EFE21462846BDE830400A
:101BF00008230122FFF7EABE30B50C460546022253
:101C0000FFF790FE21462846BDE830400823012218
:101C1000FFF7DCBE40F821207047406810F001005B
:101C200018BF01207047416070478068704781602D
:101C30007047406810F0010F05D110F0120F1CBF63
:101C400000F01C007047002070470000036A43F05A
:101C500010030362002A14BF0E4A0F4A02EB8203EC
:101C600001EB830302EB82025B1E9200B3FBF2F2F4
:101C7000521EC260D0F8C02F12F0010F08BF70478B
:101C8000064A1144521CB1FBF2F1491E41F0800199
:101C9000C1607047801A0600A08601007F473701A7
:101CA00042EA4101016070471649042804BF0868F0
:101CB00020F4803018D0052804BF086820F40030D4
:101CC00012D0062812D00F2815D0102838BF704720
:101CD000103800F01F01012202FA01F142090A48FE
:101CE00050F822000160704708607047086820F4CF
:101CF0008020086070474FF0E020016921F0020168
:101D00000161704724ED00E0BC340000164904284E
:101D100004BF086840F4803018D0052804BF086864
:101D200040F4003012D0062812D00F2815D0102809
:101D300038BF7047103800F01F01012202FA01F18C
:101D400042090A4850F82200016070470860704755
:101D5000086840F48020086070474FF0E020016977
:101D600041F002010161704724ED00E0A834000059
:101D700010B5FEF7CFFA002818BF012010BD10B52E
:101D8000FEF7CFFA002818BF012010BD084A20F046
:101D90000303D25813688007C00E4FF0FF0C0CFAF3
:101DA00000FC23EA0C0301FA00F0184310607047AE
:101DB0000C340000084401686FF3520111430160C4
:101DC00012F0020F14BFB0218C21016214BF4FF436
:101DD000306140F60C0141627047425822F0010226
:101DE00042507047425842F0010242507047084446
:101DF0000168006911F0020F14BF4000401C7047D9
:101E00000844016811F0020F14BF5108511E01610E
:101E10007047002A826814BF114322EA01018160E1
:101E2000704721F03F031844036813F0020F18BFF6
:101E3000520803699A1A11F0010F14BFC26182613E
:101E40007047D0F8C80F7047C0F8C81F704710B46B
:101E5000002BDDE901C418BF04234360B1FBFCFC87
:101E60000021891CBCFBF1F35B1EFF2BF9D801613B
:101E70009107090E02F0300241EA03211143621E6C
:101E80001143016010BC7047C26812F0020FFBD012
:101E900081607047416821F00201416070474168EC
:101EA00041F002014160704770B44B4D2A6E296FBA
:101EB00011F0004F14BF01F0700002F03000202834
:101EC00008BF464818D005DC88B1102808BF444830
:101ED00012D009E0302808BF47F230500CD07028EB
:101EE00008BF4FF4004007D070BC002070477C2032
:101EF0003C4B00EA121018584FF0FF3311F0004F1E
:101F000002D011F4006F06D001F0004C02F400641E
:101F10005CEA040C36D1D5F860C1D5F8644104F010
:101F20001F06761CC4F30424641C16FB04F464002E
:101F3000B0FBF4F0CCF309044443CCF3892C00FB50
:101F40000CF0D5F810C004EB902042F480020CF4A1
:101F5000704CBCF5804F08BF234B13D009DCBCF597
:101F6000005F08BF214B0DD0BCF5405F08BF204B80
:101F700008E0BCF5E04F08BF1E4B03D0BCF5104F86
:101F800008BF1D4B12F4800F21D011F0004F19D063
:101F900011F0804F09D011F4006F0CD001F0004C0B
:101FA00002F400625CEA020205D0C1F3C551491C8B
:101FB000B0FBF1F00BE04000C1F38651491CB0FBCF
:101FC000F1F004E0C2F3C351491CB0FBF1F08342CD
:101FD00038BF184670BC704700E00F4000093D0054
:101FE0000024F40000350000005A620200B4C4046A
:101FF00080F0FA0240787D01002D3101434B30B46E
:10200000196E1A6F21F4800141F4006142F40064FA
:1020100019661C6721EA000212F0010F14D060F06B
:10202000010211409A159A651966D3F850C0D20280
:102030001CF4807F08D1521E04BF30BC7047D3F817
:1020400050C01CF4807FF6D021F4FE6100F4FE62E3
:102050001143DFF8BCC024F0700222F0004200EA15
:102060000C0C4CEA020200F0080C42EACC021966A1
:102070001A6700F4005C21F4005122F400524CEA8B
:1020800001014CEA02024FF0400CC3F858C012F0B4
:10209000004F08BF19661A6718BF196621F00101C1
:1020A000DFF870C021F0F86100EA0C0C4CEA010185
:1020B00022F0FC5200F0FC5C4CEA020210F0804F6F
:1020C00008BF22F0804209D0DFF84CC022F4800221
:1020D00000EA0C0C41F480014CEA020210F4006F9B
:1020E00008BF4FF400400AD1D3F868C11CF0010FBB
:1020F00001D1401EF8D121F4006122F4006219667A
:102100001A6730BC1020FEF701B9000000E00F4054
:10211000300000800100C0070000404003490A6E03
:1021200022F4F012104308667047000000E00F40F0
:10213000C0F307230749C0B2194401F07043C1F34B
:10214000130143EA411141EA800040F0007000228F
:102150000260704700E60F40C0F307230749C0B292
:10216000194401F07043C1F3130143EA411141EAFC
:10217000800040F0007001220260704700E60F40CE
:10218000C0F8C81F7047000010B4C26822F00102F6
:1021900022F48072C2600A0E0260114A1268114B6A
:1021A00002EA030CACF18054CBB2C1F30722B4F5C0
:1021B00020240DD14FF4704C0CEA1114234343F446
:1021C000007343600CEA1121114341F4007104E0F3
:1021D00043F40071416042F40071816010BC7047AB
:1021E00000E00F400000FF70C26840F20113194088
:1021F00022EA0101C1607047C26840F20113194030
:102200001143C160704741627047826922EA01014F
:10221000816170478269114381617047002914BF51
:10222000006AC069704711F0FF0F18BF826211F495
:102230007F4F18BFC2627047FF290CBF806CC06C13
:1022400070474FF04070E1EE100A70470808080828
:10225000081818183830303070F0E0C0C080000026
:10226000000000000000000000000000000000006E
:10227000000000000000000000000000000000005E
:10228000000000000000000000000080C0C0E0E08E
:10229000F07070303018181818080808080000008E
:1022A000000000000000000000000000000001032A
:1022B0000303070F0E0C1C3838B8F8F0F0F8F8F8E4
:1022C000F8F8F8FCFCF8F8F8F8F8F8F8F8F8F8F886
:1022D000F8F8F0E0E0F0F0F0F078383C1C1F0F0761
:1022E00003030100000000000000000000000000E7
:1022F00000000000000000000000000000000000DE
:102300000000000000000000000000060F0F0F0F8B
:102310000F0707071FFFFFFFFFFFFFFFFFFFFFFF85
:10232000FFFFFFFFFFFF1F0F1F1F1F1F1F1F1E0E9F
:10233000040000000F050B0000000000000000007A
:10234000000000000000000000000000000000008D
:10235000000000000000000000000000000000007D
:1023600000000000000000000001071FFFFFFFFF4A
:10237000FFFFFFFFFFFF1F0703000000000000003A
:10238000000000000000000000000000000000004D
:10239000000000000000000000000000000000003D
:1023A000000000000000000000000000000000002D
:1023B0000000000000000000000000000000003CE1
:1023C0007F7FFFFFFFFFFFFF7F3F2800000000002F
:1023D00000000000000000000000000000000000FD
:1023E00000000000000000000000000000000000ED
:1023F00000000000000000000000000000000000DD
:1024000000000000000000000000000000000000CC
:1024100000000000000000000000000000000000BC
:1024200000000000000000000000000000000000AC
:10243000000000000000000000000000000000009C
:102440000000000008080808081818183830303054
:1024500070F0E0C0C080000000000000000000003C
:10246000000000000000000000000000000000006C
:10247000000000000000000000000000000000005C
:1024800000000080C0C0E0E0F07070303018181814
:102490001808080808000000F008042424E4242494
:1024A000040404040408F1030303070F0E0C1C3892
:1024B00038B8F8F0F0F8F8F8F8F8F8FCFCF8F8F8A4
:1024C000F8F8F8F8F8F8F8F8F8F8F0E0E0F0F0F0DC
:1024D000F078383C1C1F0F070303010000000000C8
:1024E000000000000000000000000000FF000004E9
:1024F00004078444408040408000000102FC00004A
:10250000000000060F0F0F0F0F0707071FFFFFFF49
:10251000FFFFFFFFFFFFFFFFFFFFFFFFFFFF1F0F9B
:102520001F1F1F1F1F1F1E0E040000000F050B00A2
:10253000000000000000000000000000000000009B
:10254000FF00000000000102848884020100008076
:10255000000001828484840404840404840810E05C
:102560000001071FFFFFFFFFFFFFFFFFFFFF1F0728
:102570000300000000000000000000000000000058
:10258000000000000000000000000000000000004B
:10259000000000000F1020408080808088888A859D
:1025A0008080898F8880808382828F80808F8285DF
:1025B0008880808F5020003C7F7FFFFFFFFFFFFF60
:1025C0007F3F280000000000000000000000000025
:1025D00000000000000000000000000000000000FB
:1025E00000000000000000000000000000000000EB
:1025F00000000000000000000000000000000000DB
:1026000000000000000000000000000000000000CA
:1026100000000000000000000000000000000000BA
:1026200000000000000000000000000000000000AA
:10263000000000000000000000000000000000009A
:10264000FC040404F80000FC44A424180000F8046E
:102650000404F80000FC0000FC040404F80000FC82
:10266000242424D80000F8040404F800000404FC26
:102670000404000000000000608000806000004052
:10268000E00000000000C040C000000000000000AA
:10269000000000000302020201000003000001022A
:1026A0000000010202020100000300000302020216
:1026B00001008043422222B1909091923222214027
:1026C0004080000300000000000000000001020143
:1026D00000000000030000000000030102000000F1
:1026E00000000000000000000000000000000000EA
:1026F00000000000000000000000000000000000DA
:102700000000C038066110525203010100000001B0
:10271000010302525010610638E000000000000082
:1027200000000000000000000000000000000000A9
:102730000000000000000000000000000000000099
:102740000000000000000000000000000000000089
:10275000000000000000FF024222F2223222B2A258
:10276000322332223222322232E2229202FF00004F
:102770000000000000000000000000000000000059
:102780000000000000000000000000000000000049
:102790000000000000000000000000000000000039
:1027A00000000000008080808000FF009249FF0050
:1027B000000000C021120C30C080800000FF4924BE
:1027C00000FF00808080800000000000000000000A
:1027D00000000000000000000000000000000000F9
:1027E00000000000000000000000000000000000E9
:1027F00000000000000000003F4040405E0C1F1041
:102800001412131612161216121612161216121689
:1028100012171211101F0C5E4040403F00000000D4
:1028200000000000000000000000000000000000A8
:1028300000000000000000000000005F0000000732
:10284000000700147F147F14242A7F2A1223130800
:10285000646236495522500005030000001C2241E5
:10286000000041221C0014083E081408083E080815
:1028700000503000000808080808006060000020D0
:10288000100804023E5149453E00427F400042612B
:102890005149462141454B311814127F10274545B7
:1028A00045393C4A494930017109050336494949CE
:1028B00036064949291E003636000000563600000B
:1028C00008142241001414141414004122140802A4
:1028D00001510906324979413E7E1111117E7F492D
:1028E0004949363E414141227F4141221C7F4949AD
:1028F00049417F090909013E4149497A7F08080891
:102900007F00417F41002040413F017F0814224168
:102910007F404040407F020C027F7F0408107F3ED2
:102920004141413E7F090909063E4151215E7F092F
:10293000192946464949493101017F01013F40407B
:10294000403F1F2040201F3F4038403F6314081481
:102950006307087008076151494543007F41410002
:1029600002040810200041417F00040201020440DB
:1029700040404040000102040020545454787F48F5
:102980004444383844444420384444487F385454FC
:102990005418087E0901020C5252523E7F0804046A
:1029A0007800447D40002040443D007F10284400D2
:1029B00000417F40007C041804787C0804047838C7
:1029C000444444387C14141408081414187C7C08FB
:1029D0000404084854545420043F4440203C4040E0
:1029E000207C1C2040201C3C4030403C44281028C7
:1029F000440C5050503C4464544C44000836410050
:102A000000007F0000004136080010080810081F71
:102A1000247C241F0808080808181818383030309B
:102A200070F0E0C0C0800000000000000000000066
:102A30000000000000000000000000000000000096
:102A40000000000000000000000000000000000086
:102A500000000080C0C0E0E0F0707030301818183E
:102A6000180808080800000000000000000000002E
:102A700000000000000001030303070F0E0C1C38C8
:102A800038B8F8F0F0F8F8F8F8F8F8FCFCF8F8F8CE
:102A9000F8F8F8F8F8F8F8F8F8F8F0E0E0F0F0F006
:102AA000F078383C1C1F0F070303010000000000F2
:102AB0000000000000000000000000000000000016
:102AC0000000000000000000000000000000000006
:102AD000000000060F0F0F0F0F0707071FFFFFFF74
:102AE000FFFFFFFFFFFFFFFFFFFFFFFFFFFF1F0FC6
:102AF0001F1F1F1F1F1F1E0E040000000F050B00CD
:102B000000000000000000000000000000000000C5
:102B100000000000000000000000000000000000B5
:102B200000000000000000000000000000000000A5
:102B30000001071FFFFFFFFFFFFFFFFFFFFF1F0752
:102B40000300000000000000000000000000000082
:102B50000000000000000000000000000000000075
:102B60000000000000000000000000000000000065
:102B70000000000000000000000000000000000055
:102B8000000000000000003C7F7FFFFFFFFFFFFF11
:102B90007F3F28000000000000000000000000004F
:102BA0000000000000000000000000000000000025
:102BB0000000000000000000000000000000000015
:102BC0000000000000000000000000000000000005
:102BD00000000000000000000000000000000000F5
:102BE00000000000000000000000000000000000E5
:102BF00000000000000000000000000000000000D5
:102C000000000000000000000000000008080808A4
:102C1000081818183830303070F0E0C0C08000005C
:102C200000000000000000000000000000000000A4
:102C30000000000000000000000000000000000094
:102C4000000000000000000000000080C0C0E0E0C4
:102C5000F0707030301818181808080808000000C4
:102C6000F008042424E42424040404040408F103E4
:102C70000303070F0E0C1C3838B8F8F0F0F8F8F81A
:102C8000F8F8F8FCFCF8F8F8F8F8F8F8F8F8F8F8BC
:102C9000F8F8F0E0E0F0F0F0F078383C1C1F0F0797
:102CA000030301000000000000000000000000001D
:102CB00000000000FF0000040407844440804040FE
:102CC0008000000102FC0000000000060F0F0F0F43
:102CD0000F0707071FFFFFFFFFFFFFFFFFFFFFFFBC
:102CE000FFFFFFFFFFFF1F0F1F1F1F1F1F1F1E0ED6
:102CF000040000000F050B000000000000000000B1
:102D00000000000000000000FF00000000000102C1
:102D1000848884020100008000000182848484048D
:102D200004840404840810E00001071FFFFFFFFF74
:102D3000FFFFFFFFFFFF1F07030000000000000070
:102D40000000000000000000000000000000000083
:102D50000000000000000000000000000F102040F4
:102D60008080808088888A858080898F8880808321
:102D700082828F80808F82858880808F5020003C67
:102D80007F7FFFFFFFFFFFFF7F3F28000000000065
:102D90000000000000000000000000000000000033
:102DA0000000000000000000000000000000000023
:102DB0000000000000000000000000000000000013
:102DC0000000000000000000000000000000000003
:102DD00000000000000000000000000000000000F3
:102DE00000000000000000000000000000000000E3
:102DF00000000000000000000000000000000000D3
:102E00000000000000000000FC040404F80000FCC6
:102E100044A424180000F8040404F80000FC000096
:102E2000FC040404F80000FC242424D80000F80466
:102E30000404F800000404FC040400000000000086
:102E40006080008060000040E00000000000C040A2
:102E5000C0000000000000000000000003020202A9
:102E60000100000300000102000001020202010053
:102E7000000300000302020201008043422222B14B
:102E80009090919232222140408000030000000087
:102E9000000000000001020100000000030000002B
:102EA000000003010200000000000000000000001C
:102EB0000000000000000000000000000000000012
:102EC00000000000000000000000C0380661105241
:102ED000520301010000000101030252501061067B
:102EE00038E00000000000000000000000000000CA
:102EF00000000000000000000000000000000000D2
:102F000000000000000000000000000000000000C1
:102F10000000000000000000000000000000FF02B0
:102F20004222F2223222B2A2322332223222322230
:102F300032E2229202FF00000000000000000000C8
:102F40000000000000000000000000000000000081
:102F50000000000000000000000000000000000071
:102F600000000000000000000000000000808080E1
:102F70008000FF009249FF00000000C021120C30C9
:102F8000C080800000FF492400FF00808080800016
:102F90000000000000000000000000000000000031
:102FA0000000000000000000000000000000000021
:102FB0000000000000000000000000000000000011
:102FC0003F4040405E0C1F101412131612161216CA
:102FD000121612161216121612171211101F0C5E6C
:102FE0004040403F000000000000000000000000E2
:102FF00000000000000000000000000000000000D1
:103000000000005F00000007000700147F147F1419
:10301000242A7F2A1223130864623649552250005D
:1030200005030000001C2241000041221C0014087E
:103030003E081408083E0808005030000008080840
:103040000808006060000020100804023E51494555
:103050003E00427F400042615149462141454B318B
:103060001814127F1027454545393C4A494930011B
:10307000710905033649494936064949291E003672
:1030800036000000563600000814224100141414C3
:1030900014140041221408020151090632497941F1
:1030A0003E7E1111117E7F494949363E4141412200
:1030B0007F4141221C7F494949417F090909013E5D
:1030C0004149497A7F0808087F00417F410020403C
:1030D000413F017F081422417F404040407F020C65
:1030E000027F7F0408107F3E4141413E7F0909096C
:1030F000063E4151215E7F09192946464949493119
:1031000001017F01013F4040403F1F2040201F3F01
:103110004038403F63140814630708700807615182
:10312000494543007F41410002040810200041410D
:103130007F000402010204404040404000010204BC
:103140000020545454787F48444438384444442040
:10315000384444487F3854545418087E0901020CFE
:103160005252523E7F0804047800447D40002040C3
:10317000443D007F1028440000417F40007C04183B
:1031800004787C0804047838444444387C141414CB
:1031900008081414187C7C0804040848545454206B
:1031A000043F4440203C4040207C1C2040201C3CEC
:1031B0004030403C44281028440C5050503C44645B
:1031C000544C44000836410000007F0000004136A6
:1031D000080010080810081F247C241F004000402D
:1031E000100000000080054010000000005000406A
:1031F0001100000000900540110000000060004038
:103200001200000000A00540120000000070004005
:103210001300000000B00540130000000040024011
:103220001400000000C005401400000000500240DF
:103230002E00000000D005402E000000006002407B
:103240002F00000000E005402F0000000070024049
:103250003000000000F005403000000000D00340C6
:103260004600000000000640460000000010064036
:1032700047000000002006404800000000300640E3
:103280007F00000000400640800000000050064023
:1032900084000000006006408C00000000400040F8
:1032A00010000000008005401000000000500040A9
:1032B0001100000000900540110000000060004077
:1032C0001200000000A00540120000000070004045
:1032D0001300000000B00540130000000040024051
:1032E0001400000000C0054014000000005002401F
:1032F0002E00000000D005402E00000000600240BB
:103300002F00000000E005402F0000000070024088
:103310003000000000F005403000000000D0034005
:10332000430000000000064043000000001006407B
:103330004400000000200640450000000030064028
:1033400058000000004006405900000000500640B0
:103350005C00000000600640640000000040004087
:103360000080054000500040009005400060004093
:1033700000A005400070004000B005400040024041
:1033800000C005400050024000D0054000600240EF
:1033900000E005400070024000F0054000D003400E
:1033A00000000640001006400010064000200640C5
:1033B0000020064000300640003006400040064035
:1033C00000400640005006400050064000600640A5
:1033D0000060064000700640007006400080064015
:1033E0000080064000900640009006400007000064
:1033F00000060000000500000004000000030000BB
:1034000000020000000100000000000000000000B9
:1034100018ED00E01CED00E020ED00E000E400E02D
:1034200004E400E008E400E00CE400E010E400E064
:1034300014E400E018E400E01CE400E020E400E014
:1034400024E400E028E400E02CE400E030E400E0C4
:1034500034E400E038E400E03CE400E040E400E074
:1034600044E400E048E400E04CE400E050E400E024
:1034700054E400E058E400E05CE400E060E400E0D4
:1034800064E400E068E400E06CE400E070E400E084
:1034900074E400E078E400E07CE400E080E400E034
:1034A00084E400E088E400E000E100E004E100E002
:1034B00008E100E00CE100E010E100E080E100E064
:1034C00084E100E088E100E08CE100E090E100E0D0
:1034D00000E200E004E200E008E200E00CE200E0CC
:1034E00010E200E080E200E084E200E088E200E038
:1034F0008CE200E090E200E000D0121300389C1C47
:1035000040420F0000201C0080841E000080250027
:10351000999E36000040380000093D0000803E00C2
:1035200000004B00404B4C0000204E00808D5B00A3
:1035300000C05D000080700000127A0000007D0075
:1035400080969800001BB7000080BB00C0E8CE004A
:10355000647ADA000024F4000000FA0080A8120166
:10356000002D310100366E0140787D0140000000E1
:10357000000000003E00080000000000A000000065
:103580000200000034540100000000002B7006000F
:1035900000000000280000000000000027000100DB
:1035A00000000000200000000000000050000000AB
:1035B000020000001AAC000000000000179409008F
:1035C0000000000016980500000000001400000034
:1035D000000000001380080000000000A0000000B0
:1035E000080000001000000000000000280000009B
:1035F0000200000040000000040000006000000025
:10360000000000005D000C00000000005000000001
:10361000000000004E0002000000000041AC01006C
:10362000000000003C000000000000003A8009009B
:103630000000000030000000000000002800000032
:1036400000000000270001000000000023600600C9
:103650000000000021600800000000001E000000C3
:10366000000000001DC00400000000005000000029
:10367000020000001800000000000000140000001C
:103680000000000060000000040000000024F400BE
:1036900030003000005A62029100910000879303CD
:1036A000D200D20000B4C4041301130100E1F505F7
:1036B00054015401000E270795019501DC360000E6
:1036C000000000202C000000A802000008370000C5
:1036D0002C00002064020000C40200000100000071
:1036E00000000000000000000000000000000000DA
:1036F00000000000000000000000000000000000CA
:083700000000000000000000C1
:040000050000033DB7
:00000001FF
