:020000040000FA
:100000001015002045030000590300005B030000A9
:100010005D0300005F0300006103000000000000BA
:10002000000000000000000000000000630300006A
:100030006503000000000000670300005144000059
:100040006B0300006B0300006B030000293B000002
:100050006B0300006B0300006B0300006B030000E8
:100060006B0300006B0300006B0300006B030000D8
:100070006B0300006B0300006B0300006B030000C8
:100080006B030000CB0600006B030000134400006C
:100090006B030000154400006B0300006B030000BD
:1000A0006B030000F10900006B0300006B0300000C
:1000B0006B0300006B030000293C00006B03000091
:1000C0006B0300006B0300006B0300006B03000078
:1000D0006B0300006B0300006B0300006B03000068
:1000E0006B0300006B0300006B0300006B03000058
:1000F0006B0300006B0300006B0300006B03000048
:1001000083070000AD070000D70700006B03000065
:100110006B0300006B0300006B0300006B03000027
:100120006B0300006B0300006B0300006B03000017
:100130006B0300006B0300006B0300006B03000007
:1001400000000000000000000000000000000000AF
:100150006B0300006B0300006B0300006B030000E7
:10016000000000000000000000000000000000008F
:10017000000000000000000000000000000000007F
:10018000000000000000000000000000000000006F
:10019000000000000000000000000000000000005F
:1001A000000000000000000000000000000000004F
:1001B0006B0300006B030000174400006B0300009A
:1001C000294400006B0300006B0300006B03000078
:1001D000D73000006B030000133000006B030000F9
:1001E000412F00006B0300006B0300006B03000055
:1001F0006B0300006B0300006B0300006B03000047
:100200006B0300006B0300006B03000000000000A4
:100210006B0300006B0300006B0300006B03000026
:100220006B0300006B0300006B0300006B03000016
:100230006B0300006B0300006B0300006B03000006
:100240006B0300006B0300006B0300006B030000F6
:100250006B0300006B0300006B0300006B030000E6
:100260006B0300006B0300006B03000000F002F85A
:1002700000F03CF80AA090E8000C82448344AAF104
:100280000107DA4501D100F031F8AFF2090EBAE802
:100290000F0013F0010F18BFFB1A43F001031847BA
:1002A000006F0000206F0000103A24BF78C878C1AA
:1002B000FAD8520724BF30C830C144BF04680C606C
:1002C000704700000023002400250026103A28BFB4
:1002D00078C1FBD8520728BF30C148BF0B607047B8
:1002E0001FB505F061FA1FBD10B510BD04F0D7F8B9
:1002F0001146FFF7F5FF00F0A1F804F0F5F803B49C
:10030000FFF7F2FF03BC04F0FDF800000138FDD157
:10031000704700000138FDD170470000EFF31080F6
:1003200072B67047EFF310807047EFF3108062B63B
:10033000704730BF704780F311887047EFF311802A
:10034000704700004EF68850CEF20000016841F47C
:1003500070010160FFF78ABFFEE7FEE7FEE7FEE7F8
:10036000FEE7FEE7FEE7FEE7FEE7FEE772B6704750
:1003700062B67047EFF3108072B6704780F3108852
:10038000704730BF704702480249014A024B70472C
:1003900010130020101500201013002004E05E4808
:1003A00003F01FFB00F052FAF9E705E05A480C3061
:1003B00003F017FB00F04EFAF8E705E05648183056
:1003C00003F00FFB00F054FAF8E715E0534803F090
:1003D00008FB322003F0FBFA0121514804F08CFAAB
:1003E00018B901204F49087002E000204D490870FB
:1003F0000121052003F00DFDE8E716E04748103025
:1004000003F0EFFA322003F0E2FA1021444804F03E
:1004100073FA18B901204449087002E000204249EB
:1004200008701021052003F0F4FCE7E700BFFEE7A9
:1004300000BFFEE701E000F085FCFCE730B58DB0C1
:10044000502003F04EF900F04DFC04F09FFB0546F0
:1004500000F01CFB00F074F8344803F0EAFA34486A
:1004600003F0E7FA334803F0E4FA334803F0E1FA23
:100470003248007880B10021284803F0B0FA00210A
:100480002648103003F0ABFA0A2002231A46112145
:100490000090052003F01BFC0A211F4803F019FB04
:1004A00032211D480C3003F014FB64211A48183027
:1004B00003F00FFBFE20AFF28301FA22AFF28F03AD
:1004C000CDE90832CDE90A101046AFF29F010122B2
:1004D000AFF2D903CDE90432CDE906101046AFF2F0
:1004E00015113222AFF22D13CDE90032CDE9021001
:1004F0000523AFF249120121AFF25F1003F0AFF90B
:1005000004F044FB4FF47A71B0FBF1F4204603F0A1
:100510002FFA00200DB030BDC81100208C12002031
:100520000050024001000020020000207400002062
:10053000AC000020E40000201C010020000000208E
:1005400010B5AF4804F07AFC212004F021FA032111
:10055000AC4803F0DEFF0321AA4803F0DFFF0321CC
:10056000A84804F04BF800231A460321A54804F0DC
:100570000CF8E32300220321A24804F04EF80321E3
:10058000A04804F043F803219E4803F0CFFFE02188
:10059000212004F06FFA212004F02CFA10BD10B5D0
:1005A0009748401C04F04AFC974804F047FC0E2191
:1005B000964804F0A4F900220E21944804F08AF829
:1005C000002301220E21914804F0D7F8402004F0C6
:1005D000DFF9412004F0DCF9422004F0D9F90021D0
:1005E0008B4803F096FF0021894803F097FF002114
:1005F000874804F003F80121854803F08AFF0121B0
:10060000834803F08BFF0121814803F0F7FF0221AB
:100610007F4803F07EFF02217D4803F07FFF022127
:100620007B4803F0EBFF012300221146784803F0DA
:10063000ACFF602300221146754803F0EEFF022351
:1006400000221946724803F0A0FF62230022022113
:100650006F4803F0E2FF0223002201216C4803F0FF
:1006600094FF612300220121694803F0D6FF002195
:10067000674803F0CBFF0121654803F0C7FF022163
:10068000634803F0C3FF0021614803F04FFF0121DD
:100690005F4803F04BFF02215D4803F047FF202134
:1006A000402004F0E7F92021412004F0E3F9202163
:1006B000422004F0DFF9402004F09CF9412004F0CE
:1006C00099F9422004F096F910BD30B52DED088B54
:1006D00081B0002203214B4803F030FF00284CD0AA
:1006E0000321484803F015FF6A460321454803F0FB
:1006F00073FF009804F051FE41EC1B0B9FED450B7E
:1007000053EC102B04F05CFE41EC1A0B9FED430BF5
:1007100053EC102B04F0BCFC41EC190B9FED410B8A
:1007200053EC102B04F04AFF41EC180B04F008FEC8
:100730000446009804F031FE41EC1B0B9FED3B0B8F
:1007400053EC102B04F03CFE41EC1A0B9FED330BE5
:1007500053EC102B04F09CFC41EC190B9FED350B76
:1007600053EC102B04F02CFE41EC180B04F0E8FDC8
:1007700005462146314803F06EF901B0BDEC088B07
:1007800030BD08B500221146214803F0D7FE60B104
:1007900000211F4803F0BDFE6A4600211C4803F0FB
:1007A0001BFF2748009903F056F908BD08B5002241
:1007B0000121174803F0C2FE60B10121144803F083
:1007C000A8FE6A460121124803F006FF1D48009961
:1007D00003F041F908BD08B5002202210C4803F0DE
:1007E000ADFE60B102210A4803F093FE6A46022181
:1007F000074803F0F1FE1448009903F02CF908BDF6
:10080000003800F000800340040800F0004002407F
:10081000009003400000000000F06E400000000067
:100820000000B0400000000000706240666666662E
:1008300066660A400000000000408F4074000020FF
:10084000AC0000201C010020E400002010B500F0E6
:10085000C0FA10BD10B500210F4803F089FE012138
:100860000D4803F085FE02210B4803F081FE10BD08
:1008700010B500F043FB09480078012801D000F0D2
:1008800042FB00F0B4FC0321054803F071FE002098
:100890000249087010BD00000090034003000020D2
:1008A00000800340012048490870704710B5474850
:1008B00004F0C4FA4648006840F01F00444908604C
:1008C0000221444804F037F801220221414803F094
:1008D00001FF0823012202213E4803F04EFF0022BF
:1008E00002213C4804F051F810BD10B53A4890F987
:1008F000000080F0020038490870084602780221A2
:10090000344804F042F810BD10B53048401F04F0E0
:1009100095FAC0214FF0402004F00DF80122C021CB
:100920004FF0402003F0D6FE0C230122C0214FF0EF
:10093000402003F022FF10BD10B5044634B1402220
:1009400011464FF0402004F020F805E0002240213D
:100950004FF0402004F019F810BD10B504462246AF
:1009600080214FF0402004F010F810BD10B517485A
:10097000801E04F063FAC021184803F0DCFF012256
:10098000C021164803F0A6FE0C230122C021134803
:1009900003F0F3FE10BD10B5044654B140221146D9
:1009A0000E4803F0F2FF802211460C4803F0EDFFE1
:1009B00009E000224021094803F0E7FF00228021DE
:1009C000064803F0E2FF10BD00000020050800F01B
:1009D00024550240005002400400002000700040F6
:1009E00010B504F040F810BD10B504F035F810BD96
:1009F00010B501200749086000221146064803F09F
:100A00005EFE28B10021044803F054FE00F0C9F94D
:100A100010BD00000800002000C0034070B505466E
:100A20000C461DB90020FFF787FF02E04020FFF7CA
:100A300083FF204600F0D0FC70BD70B504460D4623
:100A40000B2C01DC052D01DD002070BDC4EBC400C2
:100A5000C0B240F080010020FFF7E0FF45F0400108
:100A60000020FFF7DBFF0120EFE710B5002400BFF7
:100A700004E000210120FFF7D1FF641CB4F5FC7FE6
:100A8000F7D300210846FFF7D8FF10BD10B500F0DE
:100A900057FCFFF739FF0020FFF75FFF012000F050
:100AA00031FD8020FFF759FF21210020FFF7B6FF1D
:100AB000BA210020FFF7B2FF04210020FFF7AEFFAC
:100AC00014210020FFF7AAFF20210020FFF7A6FF36
:100AD0000D210020FFF7A2FFFFF7C7FF10BD70B583
:100AE0000546002400BF0AE0A5F1200000EB8000CD
:100AF000774A1044015D0120FFF790FF641C052C2C
:100B0000F2D300210120FFF789FF70BD10B5044624
:100B100003E02078FFF7E3FF641C20780028F8D179
:100B200010BD70B504460A2C08DA6AA0FFF7EEFF84
:100B300004F13001C8B2FFF7D2FFB6E0642C15DA39
:100B400066A0FFF7E3FF0A2094FBF0F03030C5B257
:100B50002846FFF7C4FF0A2094FBF0F100FB114088
:100B60003030C5B22846FFF7BAFF9EE0B4F57A7F71
:100B700023DA5BA0FFF7CAFF642094FBF0F030306B
:100B8000C5B22846FFF7ABFF642094FBF0F100FBF1
:100B9000114084B20A2094FBF0F03030C5B22846F0
:100BA000FFF79DFF0A2094FBF0F100FB114030306D
:100BB000C5B22846FFF793FF77E042F210708442F7
:100BC00033DA2020FFF78BFF4FF47A7094FBF0F0BC
:100BD0003030C5B22846FFF782FF4FF47A7094FB9D
:100BE000F0F100FB114084B2642094FBF0F030304F
:100BF000C5B22846FFF773FF642094FBF0F100FBB9
:100C0000114084B20A2094FBF0F03030C5B228467F
:100C1000FFF765FF0A2094FBF0F100FB1140303034
:100C2000C5B22846FFF75BFF3FE042F2107094FB2D
:100C3000F0F03030C5B22846FFF751FF42F2107095
:100C400094FBF0F100FB114084B24FF47A7094FBF6
:100C5000F0F03030C5B22846FFF741FF4FF47A700C
:100C600094FBF0F100FB114084B2642094FBF0F09F
:100C70003030C5B22846FFF732FF642094FBF0F114
:100C800000FB114084B20A2094FBF0F03030C5B272
:100C90002846FFF724FF0A2094FBF0F100FB1140E7
:100CA0003030C5B22846FFF71AFF70BD70B5054653
:100CB000002400210846FFF7C0FE00BF04E0295DC4
:100CC0000120FFF7ABFE641CB4F5FC7FF7D370BDC9
:100CD0009A5D00002020202000000000202020003D
:100CE0002020000010B5FFF7DDFDFFF73FFE4FF4B9
:100CF0007A7000F015FAFFF752FC10BD10B5002015
:100D0000FFF749FE462000F0B5F9002000F0DDF9BC
:100D1000462072490870002048700120887010BD7C
:100D200010B50020FFF737FE002000F0A3F94620A1
:100D300000F0CBF946206949487000200870022075
:100D4000887010BD10B5002000F094F9002000F06C
:100D5000BCF90020614948700870887010BD10B55A
:100D60000020FFF718FE3C2000F084F93C2000F042
:100D7000ACF93C205949487008700320887010BDB8
:100D800010B50020FFF707FE5F2000F073F95F2029
:100D900000F09BF95F20514948700870032088706B
:100DA00010BD10B5FFF7CEFF0120FFF7F4FD322094
:100DB00000F060F9322000F088F93220474948708D
:100DC000087004208870002045490860FFF7BAFFCA
:100DD00010BD2DE9F0470024002500260027A0467D
:100DE000A146404802F057FE04463F4802F053FE39
:100DF00005463E4802F04FFE0646AE4201D3701B48
:100E000000E0A81B0746A64201D3301B00E0A01B50
:100E10008046A54201D3281B00E0601B8146344870
:100E2000007810B13348007868B9782F22D2B8F131
:100E3000780F1FD9B8F1780F1CD904F178008642D9
:100E400018D9854216D92C48007864280FDAFFF7A4
:100E500086FF29480078FE2805DA27480078401CDC
:100E60002549087037E064202349087033E0FFF714
:100E700087FF30E01E48007860B9782F10D9B8F1AC
:100E8000780F0DD905F17800864209D904F1780070
:100E9000864205D9FFF744FF0020174908701AE081
:100EA0001448007860B9782F10D9B9F1780F0DD9AE
:100EB00006F17800854209D904F17800854205D908
:100EC000FFF71CFF00200C49087004E0FFF73AFF11
:100ED000002009490870BDE8F087000018000020D4
:100EE00008000020AC000020E40000201C010020CD
:100EF00001000020020000201B00002010B549481E
:100F0000FFF7D4FE10BD70B54748007820B9FFF751
:100F1000ACFD01204449087000210220FFF78DFD3F
:100F2000424991F9011088B2FFF7FBFD2520FFF738
:100F3000D6FD00210846FFF780FD3DA0FFF7E6FD46
:100F400001210220FFF779FD384991F9001088B29C
:100F5000FFF7E7FD2520FFF7C2FD01210020FFF785
:100F60006CFD35A0FFF7D2FD02210020FFF765FDE3
:100F700033A0FFF7CBFD2D4890F90200052818D2C9
:100F8000DFE800F003070B0F13002FA0FFF7BEFDF3
:100F900013E02EA0FFF7BAFD0FE02DA0FFF7B6FD7E
:100FA0000BE02CA0FFF7B2FD07E02BA0FFF7AEFD92
:100FB00003E025A0FFF7AAFD00BF00BF0321042026
:100FC000FFF73BFD254802F066FD0546A8B2FFF796
:100FD000A8FD03210020FFF730FD21A0FFF796FDBB
:100FE00004210820FFF729FD1F4802F054FD0446A4
:100FF000A0B2FFF796FD04210846FFF71EFD1B482F
:1010000002F049FD0446A0B2FFF78BFD0421002049
:10101000FFF713FD164802F03EFD0446A0B2FFF7AD
:1010200080FD70BD6A6300001C00002018000020D5
:101030004D74724C000000004D74725200000000AC
:10104000446972200000000053740000464C000008
:1010500046520000467700004277000074000020EE
:1010600054656D703A0000001C010020AC000020A7
:10107000E400002070B5044654B900224021A54880
:1010800003F03BFD4FF48071A24803F01AFD1BE012
:10109000632C00D963244FF480719E4803F01BFD3C
:1010A00060436421B0FBF1F52A464FF483719948FF
:1010B00003F02BFD4FF48071964803F007FD0122E9
:1010C0004021944803F019FD70BD70B5044654B931
:1010D000002280218F4803F010FD4FF480718D486D
:1010E00003F0EFFC1BE0632C00D963244FF4807104
:1010F000884803F0F0FC60436421B0FBF1F52A4618
:1011000040F20711834803F000FD4FF480718148DD
:1011100003F0DCFC012280217E4803F0EEFC70BD70
:1011200010B50446002003F06BFE7B4803F086FEFA
:101130007A4803F083FE7A4803F0BCFB794803F059
:10114000B9FB0421784803F004FC0821764803F039
:1011500000FC00224FF480716E4803F09FFC224691
:101160004FF480716B4803F0BFFC01224FF4837190
:10117000684803F0CAFC012240F20711654803F0F9
:10118000C4FC4FF48071634803F0A0FC10BD70B53F
:101190000446002003F034FE5F4803F04FFE5F4832
:1011A00003F04CFE614803F085FB02215E4803F02A
:1011B000D0FB0022C021574803F070FC2246C0211A
:1011C000544803F091FCC021524803F084FC00EB2A
:1011D000800040006421B0FBF1F52A46C5214D484E
:1011E00003F093FCC0214B4803F070FC70BD10B5B8
:1011F0004F48007848B101222021464803F07DFC89
:10120000C021444803F062FC08E00022202141484C
:1012100003F073FCC0213F4803F053FC444890F9AD
:10122000000080F001004249087010BD2DE9F04136
:1012300006460F4615461C460CB9012402E0632CF5
:1012400000D963243946304603F045FC6421B1FBE4
:10125000F4F1B0FBF1F842462946304603F055FC64
:10126000BDE8F08170B505460C46002003F0C8FDCE
:10127000294803F0E3FD2948801E03F0DFFD2D48D7
:1012800003F018FB2C4803F015FB01212B4803F059
:1012900060FB0221294803F05CFB002240211D482D
:1012A00003F0FCFB2A4640211A4803F01DFC4021B4
:1012B000184803F010FC64214843B0FBF4F63246B2
:1012C0004021144803F021FC4021124803F003FCA4
:1012D00064214843B0FBF4F6324641210D4803F047
:1012E00014FC40210B4803F0F1FB012203210948C3
:1012F00003F003FC70BD10B50848801E03F08AFDA2
:101300004021044803F0DDFB00220321014803F0E3
:10131000F4FB10BD00900240014000F0050800F011
:1013200005080500050C05000050024005040500F5
:101330001D000020050003000504030000700040AC
:101340001CB5294803F07AFD284803F077FD2848AA
:1013500003F011FC40F6020003F0ACFA40F6024044
:1013600003F0A8FA41F2024003F0A4FA2C214FF056
:10137000402003F0FCFA00211D4803F0D6FB03F0E7
:1013800005FC044608201B4900231A46CDE900103D
:101390002146174803F0CCFB154803F0F1FB1CBDB8
:1013A00010B5114803F04AFD1048C01C03F046FD7B
:1013B000114803F0E0FB114803F07CFA104803F0F9
:1013C00079FA104803F076FA0F4803F073FA002117
:1013D000094803F0AAFB10BD10B504462146044895
:1013E00003F0C3FB10BD0000001C00F0000800F07B
:1013F0000080004008AF2F0000B000400100030053
:101400000104030001080300010C030070B5044649
:101410000025002603F0BAFB06464FF47A70B6FBAF
:10142000F0F06043451E284670BD10B53D4803F0FE
:1014300005FD6E2003F0ACFA01213B4803F06DFD81
:10144000FF21394803F058FD0021374803F020FD03
:101450002221354803F020FD4FF47A70FFF7D6FFC4
:1014600004462246FF21304803F060FDFF212E484C
:1014700003F04AFD01212C4803F054FD20216E2089
:1014800003F0F8FA6E2003F0B5FA10BD10B5274846
:1014900003F0D4FC232003F07BFA0121244803F05D
:1014A0003CFDFF21224803F027FD0021204803F0E6
:1014B000EFFC22211E4803F0EFFC3220FFF7A6FFCD
:1014C00004462246FF211A4803F030FDFF21184848
:1014D00003F01AFD0121164803F024FD002123200A
:1014E00003F0C8FA232003F085FA10BD70B5054655
:1014F00000242846FFF78AFF044600E0641E002C03
:10150000FCD170BD70B505460024FFF76DFA284682
:10151000FFF77CFF044600E0641E002CFCD1FFF7BF
:101520005FFA70BD005C00F000600340000400F052
:1015300000000340FE48006840F00800FC490860D5
:1015400000BFFC48006800F008000028F9D0FA4805
:10155000006820F04000F8490860081D006820F08D
:101560007060091D0860F548006820F04000F349EC
:101570000860F2482030006820F04000EF49203138
:101580000860ED481838006820F04000EA49183932
:101590000860E9480C38006840F04000E6490C3922
:1015A00008607047E6480068C0B27047E0480068CD
:1015B00040F00800DE49086000BFDE48006800F027
:1015C00008000028F9D0DF48DB4908390860FF200F
:1015D000091D0860081D006820F08000091D0860D2
:1015E000081D006820F07040091D0860D34800689D
:1015F00020F08000D1490860D0482030006820F0F9
:101600008000CE4920310860CB481838006820F0AF
:101610008000C94918390860C7480C38006840F094
:101620008000C5490C3908607047C7480068C0B2DF
:101630007047BF483030006840F00100BC4930318D
:10164000086000BFBB483030006800F0010000288F
:10165000F8D0BE48006820F00F00BC49086008467A
:10166000006840F00100086043F21020B8490862A9
:10167000704710B5AE48006840F01A00AC490860E9
:1016800000BFAC48006800F01A001A28F9D1B14830
:10169000006820F01000AF490860A748006840F0DB
:1016A0000800A5490860AC48006840F02000AA493D
:1016B0000860A848001D006820F47020A549091D95
:1016C0000860A648006820F01000A44908609B4804
:1016D000006820F0080099490860A148006820F0DF
:1016E00020009F4908609D482030006820F01000CD
:1016F0009A492031086091482030006840F0080085
:101700008E492031086096482030006840F0200063
:101710009349203108608F480C38006840F0100071
:101720008C490C39086084480C38006820F00800A7
:1017300081490C39086088480C38006820F0200086
:1017400085490C390860FFF774FF8148006820F074
:1017500002007F4908600846406920F0F0004861B7
:101760004B200866602048660846806820F002002A
:1017700088600846006840F00200086010BD10B59F
:101780000223734CA36200BF714B5B6803F002033A
:10179000002BF9D06E4B9B6EC3F38F0303806C4B11
:1017A0009B6EC3F38F030B806E4B1B6C1370022375
:1017B000674CE36010BD10B5B0F5806F05DAB1F588
:1017C000806F02DAB2F5806F00DB10BD584B1B1F33
:1017D0001B6843F00203564C241F2360231D1B6823
:1017E00043F02003241D236000BF524B1B6803F00D
:1017F0002003002BF9D05C4B1B6843F008035A4CC4
:101800002360594BFC331B6843F00803564CFC34EF
:101810002360564B1B6823F4704303F5E043534C9D
:101820002360231F1B6823F00803241F236000BFCD
:10183000404B1B1F1B6803F00203002BF8D04C4BDE
:10184000DB6823F480734A4CE360042323600A239B
:10185000A360484B1B68C3F3CF23474C2380234628
:101860001B885B1E424CE362434B1B8843439B1225
:1018700063632346DB6843F48243E3602C4B1B1F06
:101880001B6843F008032A4C241F2360231D1B6898
:1018900043F00203241D236000BF264B1B6803F0A6
:1018A0000203002BF9D02E4B20331B6843F00803B2
:1018B0002B4C20342360284B0C3B1B6843F008035F
:1018C000254C0C3C2360244B1B1D1B6823F47043E8
:1018D00003F5E043204C241D2360231F1B6823F0E5
:1018E0000803241F236000BF124B1B1F1B6803F05B
:1018F0000803002BF8D0214BDB6823F480731F4CC6
:10190000E360042323600A23A3601B4B1B885B1E38
:10191000E362194B1B884B439B1263632346DB68CE
:1019200043F48243E360024B54331B6828E0000019
:1019300008E60F4008EA0F40287500400074004098
:10194000007100404B434F4C00720040C48F034075
:1019500000800340284502402855004000440240D2
:101960000054004000400240205402402C550240E8
:10197000001003402000002024000020003003401D
:1019800043F00103FC4C2360FB4B543B1B6843F0CA
:101990000403F94C543C236000BFF84B1B6803F070
:1019A0000403002BF9D0F64B1B6843F01003F44CF2
:1019B0002360F34BFC331B6843F01003F04CFC3402
:1019C0002360F04B1B6823F4702303F5E023ED4CF8
:1019D0002360231F1B6823F01003241F236000BF14
:1019E000E64B54331B6803F00103002BF8D0E64BA1
:1019F000DB6823F00103E44CE360042323600A2343
:101A00006360E24B1B885B1EA362E04B1B88534361
:101A10009B1223632346DB6843F04103E36000BF6E
:101A2000D3E610B5B0F5806F05DAB1F5806F02DA54
:101A3000B2F5806F00DB10BDD44B1B8843439B1273
:101A4000D34C6363D14B1B884B439B12D14C6363D4
:101A5000CE4B1B8853439B12CB4C236300BFEAE75A
:101A600010B518B10823CC4C236202E00023CA4C05
:101A7000236219B10823C94C236202E00023C74C3A
:101A800023621AB11023C64C236402E00023C44C25
:101A9000236410BD70B504460D461646B64854384A
:101AA000006840F02600B4495439086000BFB348CC
:101AB000006800F026002628F9D1BA48006820F016
:101AC0000800B8490860AF48001F006820F0100007
:101AD000AC49091F0860B448006820F00800B2490A
:101AE0000860B048001D006820F47040AD49091D31
:101AF0000860A448006820F47020A2490860AA4841
:101B0000001D006820F47040A749091D0860A7481F
:101B1000006840F00800A54908609948203800682E
:101B200040F01000964920390860A148006840F054
:101B300008009F4908609D482030006820F0080098
:101B40009A49203108608E48006820F010008C49C6
:101B5000086097482030006820F008009449203140
:101B6000086090481838006820F008008D4918393E
:101B7000086084481C38006820F0100081491C3936
:101B8000086089481838006820F00800864918392C
:101B9000086084480C38006840F0080081490C391E
:101BA000086078481038006840F010007549103916
:101BB00008607D480C38006840F008007A490C390C
:101BC0000860324629462046FFF74AFF70BD10B52F
:101BD00028B1714B1B6A83F008036F4C236229B153
:101BE0006E4B1B6A83F008036C4C23622AB16C4B6A
:101BF0001B6C83F010036A4C236410BDB0F5806F3A
:101C000000DB70475C495839096841F002015A4AC3
:101C1000583A1160111D096841F02001121D116030
:101C200000BF5649096801F020010029F9D05F4939
:101C30002031096841F004015C4A203211605949A1
:101C40000C39096841F00401564A0C3A11605549B3
:101C5000091D096821F4706101F5E061514A121D06
:101C60001160111F096821F00401121F116000BFEB
:101C70004249091F096801F002010029F8D04449CE
:101C8000C96821F00101424AD160042111600A2192
:101C9000516048490968C1F3CF213C4A118011467F
:101CA0000988491E3A4A9162384909884143891294
:101CB00011631146C96841F04101D16000BFA0E73E
:101CC000B0F5806F00DB70473049098841438912C5
:101CD0002F4A116300BFF6E710B5FFF7AAFC2648AC
:101CE0005438006840F0080023495439086000BFA8
:101CF0002248006800F008000028F9D02E4800684B
:101D000040F007002C4908602C48006820F00700CC
:101D10002A49086029482030006840F00700274918
:101D20002031086024480C38006820F00700224960
:101D30000C390860FFF77DFC2148006820F00400A2
:101D40001F4908600846406920F47060486140F20D
:101D500067501B49803108604FF4C0601849C1F8D2
:101D600084000846806820F0040088600846006807
:101D700040F00400086010BD5CE60F4008EA0F4028
:101D8000206400402C6500400060034024000020D7
:101D9000001003400030034000500240005000405B
:101DA0000060004028550240285500400054024081
:101DB00000540040200000202875004000740040BE
:101DC0000080034010B50423FE4CA36200BFFD4B0E
:101DD0005B6803F00403002BF9D0FA4B88331B68CF
:101DE000C3F38F030380F74B88331B68C3F38F0360
:101DF0000B80F44B88331B68C3F38F0313800423D9
:101E0000F04CE36010BD10B5FFF713FCEE4800681E
:101E100040F01000EC49086000BFEC48006800F09A
:101E200010000028F9D0EA48006840F02000E84996
:101E30000860E848006820F02000E6490860E548AE
:101E40002030006840F02000E24920310860E0487E
:101E50000C38006820F02000DD490C390860FFF7DD
:101E6000E8FBD848006820F00800D649086008461A
:101E7000406920F4704048610820D249A0310860D0
:101E80000620D049C1F8A4000846806820F0080068
:101E900088600846006840F00800086010BD08210E
:101EA000C84A916200BFC749496801F0080100298A
:101EB000F9D0C449A8310968C1F38F010180082114
:101EC000C04AD1607047014600BFC348C06800F0F7
:101ED00010001028F9D000204FF040221064BF4AB3
:101EE0001064BD48816000BFBB48C06800F00400BA
:101EF0000028F9D010204FF040221064B6488068C6
:101F0000C0B27047014600BFB348C06800F010007F
:101F10001028F9D000204FF0402210641020AF4A62
:101F20001064AD48816000BFAB48C06800F0040099
:101F30000028F9D010204FF040221064A648806895
:101F4000C0B2704710B5044604E045F6C240FEF743
:101F5000DDF9641E002CF8D110BD2DE9F0410446D6
:101F600014F8017B1DE014F8010BFFF7ACFF14F827
:101F7000015B05F0800625F0800503E014F8010BF5
:101F8000FFF7C0FF281EA5F10101CDB2F6D146B181
:101F900014F8016BFF2E01D14FF4FA763046FFF7AB
:101FA000D1FF381EA7F10101CFB2DCD1BDE8F0812D
:101FB00010B5044600208A4908708A490870824892
:101FC000006840F023008049086000BF7F48006837
:101FD00000F023002328F9D18348844908601F209A
:101FE000091D0860081D006820F01100091D086027
:101FF0007F48006820F090007D4908607D480068B7
:1020000020F010007B49086078480C30006820F010
:102010000F1076490C3108607548001D006876493C
:102020000840764908447249091D08607148001D3E
:10203000006820F470206F49091D0860704800682E
:1020400040F011006E4908606E48006840F01000D2
:102050006C4908606A482030006820F01100684927
:10206000203108606848006840F0900066490860C8
:1020700064482030006820F0100062492031086078
:102080005A48001F006840F011005849091F0860B5
:1020900057480C38006840F0900055490C390860EA
:1020A00054480C38006840F0100052490C39086060
:1020B00000204FF0402108640120484948604FF457
:1020C000FA70FFF73FFF0020444948604FF4FA7070
:1020D000FFF738FF0120414948604FF4FA70FFF7DD
:1020E00031FF10204FF04021086437481430006859
:1020F00040F0040034491431086000BF3348143004
:10210000006800F004000028F8D03348406820F050
:102110000200314948600846406820F004004860E9
:102120003A48006820F00F00401D384908602A48EE
:10213000006920F0FF00001D27490861084600687B
:102140004FF6C0718843244908600846006820F0B3
:10215000300008600846006820F00F00C01D0860CD
:102160000846406840F00200486014B12046FFF77E
:10217000F4FE10BD2DE9F04104460D4616461F46FB
:102180002A20FFF7A0FE0020FFF7BCFE15490978C2
:102190002144C8B2FFF7B6FE0020FFF7B3FE114995
:1021A00009783144C8B2FFF7ADFE2B20FFF78BFE54
:1021B0000020FFF7A7FE0A4909782944C8B2FFF7B3
:1021C000A1FE25E00080034008E60F4008EA0F402A
:1021D000284502400044024000A000400050024058
:1021E00033000020320000204B434F4C205502406A
:1021F0002855004028450040FFFFF00F0000022056
:10220000005402400044004020540040C8AF004049
:102210000020FFF777FEFE4909783944C8B2FFF77E
:1022200071FE2C20FFF74FFEBDE8F0812DE9F0474D
:1022300004460D4616461F46DDF820804FEA282941
:1022400008F0FF0AF348B0F90000844204DAF248CB
:10225000B0F90000854201DBBDE8F087A019401EFF
:10226000EC49B1F90010884203DBEA480088001B02
:1022700006B2E819401EE849B1F90010884203DBB4
:10228000E5480088401B07B205EB070CACF1010CD8
:102290000CF0FF0304EB060CACF1010C0CF0FF0298
:1022A000E9B2E0B2FFF766FF3D460DE0344607E0D5
:1022B0004846FFF727FE5046FFF724FE601E04B293
:1022C000002CF5DC681E05B2002DEFDC00BFC3E773
:1022D00038B50446D0480094B0F90030CD48B0F984
:1022E000002000210846FFF7A1FF38BD142801D8BF
:1022F0000C2900D97047C94A1060C94A116000BF53
:10230000F8E710B50446C748FFF752FE012C09D183
:10231000C548FFF722FE0220C44908700320BC49CB
:10232000087002E0C248FFF718FEC248FFF715FE2A
:10233000032C05D13620FFF7C6FDC020FFF7E2FDD4
:1023400000210846FFF7D2FF4FF6E070BA49088037
:102350000020FFF7BDFF10BD10B50120FFF7D1FF32
:1023600010BD10B504462012FFF7CCFDE0B2FFF718
:10237000C9FD10BD2DE9F04104460D461646002C5E
:102380000BDBA448B0F90000844206DA002D04DB20
:10239000A148B0F90000854201DBBDE8F081EBB255
:1023A000E2B2E9B2E0B2FFF7E5FE3046FFF7D9FF4F
:1023B00000BFF2E72DE9F04705460C4616461F46DA
:1023C0004FEA272807F0FF099248B0F9000085423C
:1023D00004DA9148B0F90000844201DBBDE8F087DF
:1023E000A019401E8C49B1F90010884203DB8A48CD
:1023F0000088001B06B204EB060CACF1010C0CF0DB
:10240000FF03EAB2E1B2E8B2FFF7B4FE05E04046EE
:10241000FFF778FD4846FFF775FD301EA6F1010174
:102420000EB2F4D100BFD9E72DE9F04704460D46BE
:1024300016461F464FEA272807F0FF097548B0F9EE
:102440000000844204DA7448B0F90000854201DBE0
:10245000BDE8F087A019401E6E49B1F9001088420E
:1024600003DB6C480088001B06B2EBB204EB060CE1
:10247000ACF1010C0CF0FF02E9B2E0B2FFF77AFE1A
:1024800005E04046FFF73EFD4846FFF73BFD301EA6
:10249000A6F101010EB2F4D100BFD9E710B5034691
:1024A00003F0F800000201F0FC0440EAC40040EA36
:1024B000E20010BD014601F4FC6040EAC12040EAA0
:1024C000E12080B270472DE9F05F04460D46914649
:1024D0001E460A9F4FF0000BB246781E00FB06F81E
:1024E0004C48B0F9000084420BDAE81B401C4A4912
:1024F000B1F90010884204DAA019002801DD002D8E
:1025000001DABDE8F09F4348B0F90000864204DCE0
:102510004148B0F90000874200DDF2E7A019401EF3
:102520003C49B1F90010884209DBA01939490988F2
:10253000401A0FFA80FB37480088001B06B2E81BE0
:10254000401C002805DA781B401E00FB1A88681C16
:1025500007B2002C07DA301906B260420FFA80FB8E
:10256000A8EB040800242C48B0F90000854209DBE0
:1025700029480088281A401C381A07B226480088C3
:10258000401E05B2EBB204EB060CACF1010C0CF0F2
:10259000FF02A5EB070C0CF1010C0CF0FF01E0B2FF
:1025A000FFF7E8FD002516E000240CE039F81810CC
:1025B0000812FFF7A7FC19F81800FFF7A3FC08F1B1
:1025C0000108601C04B2B442F0DBD844022000FBD6
:1025D0001A88681C05B2BD42E6DB00BF91E72DE911
:1025E000FC5F06460F4693469946DDE90CA4094870
:1025F000B0F90000864227DA0748B0F900008742A8
:1026000022DA062000FB0460401E00281CD415E0DE
:102610003300002034000020360000202800002075
:102620002C0000203D6C0000786C0000320000207F
:10263000856C0000926C000030000020082000FB38
:102640000470401E002801D5BDE8FC9F00254FE026
:10265000052D02D10020019005E00BEB8B002844F2
:10266000FE49085C01904FF000083DE0019800F041
:102670000100C8B1012C09D11FFA89F207EB080348
:1026800019B2731918B2FFF775FE28E01FFA89F026
:1026900008FB047211B205FB0462009010B22346DD
:1026A0002246FFF7C3FD1AE0CA4518D0012C09D114
:1026B0001FFA8AF207EB080319B2731918B2FFF771
:1026C00059FE0CE01FFA8AF008FB047211B205FBF8
:1026D0000462009010B223462246FFF7A7FD01983E
:1026E0004010019008F10108B8F1080FBEDB6D1C25
:1026F000062DADDB00BFA7E72DE9FF4F81B00646F1
:102700000F46DDE90EB4062000FB0460401ED449EC
:10271000B1F90010884214DA082000FB0470401E52
:10272000D049B1F9001088420BDA062000FB0460A2
:10273000401E002805D4082000FB0470401E00281D
:1027400002D505B0BDE8F08F4FF0080C0CFB047CFF
:10275000ACF1010C0CF0FF034FF0060C0CFB046C09
:10276000ACF1010C0CF0FF02F9B2F0B2FFF702FD80
:102770004FF001084FF0000A3BE0002000902FE0EE
:102780004FF000091DE0039800EB80004844B34976
:10279000085C00EA080048B1002504E0049988B20A
:1027A000FFF7DFFD6D1CA542F8DB08E0002504E023
:1027B0001FFA8BF0FFF7D5FD6D1CA542F8DB09F180
:1027C0000109B9F1050FDEDB002504E01FFA8BF0EB
:1027D000FFF7C7FD6D1CA542F8DB0098401C009078
:1027E0000098A042CCDB4FEA48604FEA10680AF13B
:1027F000010ABAF1080FC0DB00BFA2E72DE9FC41D6
:1028000004460E461546984600270C2E02DD002091
:10281000BDE8FC8118E001200021CDE9001095F908
:10282000002006EB86035B0019B204EB44035B0057
:1028300018B24346FFF760FF6D1C601C84B2142C75
:1028400001DD3846E4E77F1C28780028E3D13846CC
:10285000DEE730B504460A2C0AD30A20B4FBF0F5B3
:102860002846FFF7F6FF0A20B4FBF0F100FB114405
:1028700004F1300041B27C487C4A126881547B48A4
:1028800000680B2804D279480068401C774908602A
:1028900030BD10B5044642F20F70844200D90446A0
:1028A000B4F57A7F03D30020704908601AE0642CE5
:1028B00006D320206C49087001206C49086011E0A3
:1028C0000A2C07D320206849087048700220674905
:1028D000086007E020206449087048708870032071
:1028E000624908602046FFF7B4FF10BD10B50446EA
:1028F0005F48844200D9044642F21070844203D3F8
:1029000000205A49086027E0B4F57A7F06D32020DA
:10291000554908700120554908601DE0642C07D313
:10292000202051490870487002205049086013E087
:102930000A2C08D320204C49087048708870032066
:102940004A49086008E020204749087048708870AC
:10295000C8700420454908602046FFF77AFF10BD83
:10296000B0F57A7F01D340F2E73064280CD36421BC
:10297000B0FBF1F1303149B23B4A11706421B0FB38
:10298000F1F201FB120002E02021374A11700A2106
:10299000B0FBF1F1303149B2334A51700A21B0FB3A
:1029A000F1F201FB12002E212F4A917000F130014B
:1029B00049B2D1700021117170470146FF2904D935
:1029C0002A22294B1A705A7019E00A0950B20A28B3
:1029D00003DA00F1300250B202E000F1370250B2E7
:1029E000214A107001F00F000A2803DA00F13002CA
:1029F00050B202E000F1370250B21B4A50702C2254
:102A0000194B9A700022DA7070477CB505460C4667
:102A100018490C800020154908602846FFF719FF67
:102A200000201149114A12688854134A128891B241
:102A3000124A128890B223460B4AFFF7DFFE0F4876
:102A400000680A49096808440C490860084600689B
:102A5000142828D914200860012011E042670000E2
:102A600034000020360000205401002038000020EF
:102A70009F860100300000202C000020280000204C
:102A80000021F84ACDE90010128802EB82025200C0
:102A900011B2F54A128802EB4202520010B2F34B17
:102AA0002A22FFF729FE7CBD7CB505460C46002096
:102AB000EF4908602846FFF7ECFE0020ED49EC4A9C
:102AC00012688854E74A128891B2E74A128890B295
:102AD0002346E84AFFF792FEE3480068E4490968A4
:102AE0000844E149086008460068142815D91420F4
:102AF000086001200021DB4ACDE90010128802EBBA
:102B00008202520011B2D84A128802EB42025200ED
:102B100010B2D64B2A22FFF7EFFD7CBD7CB50546EF
:102B20000C460020D24908602846FFF7DFFE00204F
:102B3000D049CF4A12688854CA4A128891B2CA4A08
:102B4000128890B22346CB4AFFF758FEC648006869
:102B5000C74909680844C449086008460068142841
:102B600015D91420086001200021BE4ACDE90010CB
:102B7000128802EB8202520011B2BB4A128802EBA9
:102B80004202520010B2B94B2A22FFF7B5FD7CBDBC
:102B90007CB505460C462846FFF7E2FEB14A12888E
:102BA00091B2B14A128890B22346B24AFFF726FE8C
:102BB000AD480068001DAC4908600846006814284C
:102BC00015D91420086001200021A64ACDE9001083
:102BD000128802EB8202520011B2A34A128802EB61
:102BE0004202520010B2A14B2A22FFF785FD7CBDA4
:102BF0007CB505460C462846FFF7DFFE994A128849
:102C000091B2994A128890B223469A4AFFF7F6FD8C
:102C100095480068C01C944908600846006814285C
:102C200015D914200860012000218E4ACDE900103A
:102C3000128802EB8202520011B28B4A128802EB18
:102C40004202520010B2894B2A22FFF755FD7CBD8B
:102C50002DE9FC5F06460D4617469846DDE90D9BBB
:102C6000DDF830A084490F98086084491098086006
:102C7000814800680968401A81490860002081493C
:102C80000860814805806F231A46112100200095B5
:102C9000FFF7CCFA3346652275210A20FFF7C4FB03
:102CA0003346652211210A20FFF784FB142405E036
:102CB0003246762120B2FFF75DFB0A346E2CF7DD39
:102CC000112405E0324621B20920FFF753FB0A34F4
:102CD000752CF7DB32240CE0012128B2CDE900018C
:102CE00097F9002033B2782120B2FFF705FDA41D2B
:102CF0007F1C387808B1642CEEDB99F80000B8B17D
:102D00001A240EE0012128B2CDE9000199F9002032
:102D10000FFA8BF321B20020FFF7EEFC083409F123
:102D2000010999F8000008B1322CEBDB522400E0D5
:102D30002A240EE0012128B2CDE9000198F90020F3
:102D40000FFA8AF321B20020FFF7D6FC083408F10D
:102D5000010898F8000008B1782CEBDBBDE8FC9F77
:102D600070B504460D4645480068201A6421484362
:102D70004349096890FBF1F4622C02DD62244FF4B0
:102D80007845002C02DA00244FF47845C4F1740031
:102D900001B22A463B4800880B3000B2FFF7EAFA3E
:102DA000C4F1730001B22A46364800880B3000B2E5
:102DB000FFF7E0FA70BD10B532480068401C314999
:102DC000086008460068632801DD002008602E487E
:102DD0000388642211212B4800880B3000B2FFF7D2
:102DE000E9FA10BD2948006F40F000402749086704
:102DF0000846006F40F4006008670846006E20F443
:102E0000F86008660846006E00F5A8600866084687
:102E1000006F20F0700008670846006F08670846DA
:102E2000006F20F4005008670846006F40F08040B3
:102E300008670846006F20F0FE5000F180700867B8
:102E400000BF1248006D00F040000028F9D00F4884
:102E5000006F20F400600D4908670D480D490860B7
:102E6000704700002C0000202800002000F8FFFF21
:102E700038000020540100204000002044000020C1
:102E8000480000203C0000204C00002000E00F40E3
:102E900000B4C40420000020FE48006870472DE9FB
:102EA000F04106460C4615461CB142F210708442B1
:102EB00001D9BDE8F081062D00DD0625FDF75AFA9F
:102EC0000746F5480660F548006840F02000F349E1
:102ED000086000BFF248006800F020000028F9D028
:102EE000F048C06820F00100EE49C8600420086086
:102EF00002204860E7480068B0FBF4F0401E88629A
:102F000000208863012048620846806940F0010083
:102F10008861E548006820F0FF0040EA4510E2497A
:102F200008604FF48070E1490860DE48C06840F0F6
:102F30000100DC49C8603846FDF720FA00BFB8E759
:102F400010B50120D7494862D3480068804710BDBA
:102F50000120D44948620002D4498031086070479A
:102F60000120D04948620002D049086070472DE92D
:102F7000F04106460C4615461CB142F210708442E0
:102F800001D9BDE8F081062D00DD0625FDF7F2F937
:102F90000746C7480660C148006840F01000BF49B6
:102FA000086000BFBE48006800F010000028F9D09B
:102FB000C048C06820F00100BE49C8600420086015
:102FC00002204860B3480068B0FBF4F0401E8862FD
:102FD00000208863012048620846806940F00100B3
:102FE0008861B148001F006820F47F0040EA455026
:102FF000AD49091F08604020AC490860AD48C06871
:1030000040F00100AB49C8603846FDF7B7F900BF92
:10301000B7E710B50120A7494862A5480068804776
:1030200010BD0120A34948624020A04980310860BA
:1030300070472DE9F04106460C4615461CB142F298
:103040001070844201D9BDE8F081062D00DD06250F
:10305000FDF790F90746984806609048006840F0F0
:1030600008008E49086000BF8D48006800F0080025
:103070000028F9D09148C06820F001008F49C8604D
:10308000042008600220486082480068B0FBF4F029
:10309000401E8862002088630120486208468069DB
:1030A00040F0010088618048001F006820F0FF00A8
:1030B00040EA45107C49091F086010207B490860E0
:1030C0007E48C06840F001007C49C8603846FDF782
:1030D00055F900BFB7E710B5012078494862764836
:1030E0000068804710BD01207449486210206F4974
:1030F00080310860704710B56848006840F02000D3
:103100006649086000BF6648006800F0200000289B
:10311000F9D06448C06820F480706249C860042017
:10312000086002208860C01EC8624F20C8638815EE
:1031300048620846806920F4807088610846C0684B
:1031400040F48070C8602046FDF718F910BD55485E
:10315000406DC0F1FF30704750483C38006840F087
:1031600002004E493C3908604C485438006840F031
:1031700001004A495439086000BF49485438006882
:1031800000F001000028F8D04D48006820F0C00091
:103190004B490860081D006820F07F4000F14C504A
:1031A000091D086046481C38006840F0800044490A
:1031B0001C3908604348006840F0C000414908607D
:1031C0003F480C38006840F0C0003D490C390860A9
:1031D00010203D4908622720C860704730B501467D
:1031E000012400BF00BF3848406800F001000028FB
:1031F000F9D1FE2000EA4100334D286028460068DE
:1032000040F0010028600B20686000BF2E48406835
:1032100000F001000028F9D12B488068C2B20520D7
:10322000294D686000BF2848406800F00100002870
:10323000F9D125488068C3B2641C2348406800F077
:10324000060008B1052CCDDD03EB022080B230BDB5
:10325000024600BF1C48406800F001000028F9D178
:10326000FE2000EA4200184B18601846006820F063
:1032700001001860C8B298600720586000BF12486B
:10328000406800F001000028F9D10F48406800F0C4
:103290000E00704720000020500000205CE60F4028
:1032A0005CEA0F4000F0044068E400E00CE100E05C
:1032B0005400002000E004405800002000D00440EA
:1032C00028450040204400400010024030B504462C
:1032D00000BFC548406800F001000028F9D1FE2079
:1032E00000EA4400C04D28602846006820F0010034
:1032F0002860C8B2A8600320686000BFBA48406870
:1033000000F001000028F9D1B748406800F00E0035
:1033100038B10420B44D68602846406800F00E00C3
:1033200030BDD0B2B04DA8600120686000BFAE488B
:10333000406800F001000028F9D1AB48406800F077
:103340000E0038B10420A84D68602846406800F09F
:103350000E00E5E7D8B2A44DA8600520686000BF64
:10336000A148406800F001000028F9D19E4840685B
:1033700000F00E00D4E710B5FFF7EEFE9B480068A2
:1033800020F0200099490860081D006820F47000B2
:10339000091D08609648006820F0200094490860E4
:1033A00093482030006820F02000914920310860C7
:1033B0008E480C38006840F020008C490C390860B9
:1033C00010BD10B504460023C022022160B2FFF7F1
:1033D0007DFF1023CA22012160B2FFF777FF60B2A0
:1033E000FFF7FCFE10BD70B50446002160B2FFF788
:1033F0002FFF60B2FFF7F2FE0646012160B2FFF731
:1034000027FF60B2FFF7EAFE054605F0EF032A0A40
:10341000012160B2FFF75AFFE8B240F010032A0A18
:10342000012160B2FFF752FF311301208840C6F33B
:103430000B01484370BD10B501206E49086044205F
:10344000FFF7BFFF00BF6C4800682028FBD0442076
:10345000FFF7C9FF0446002066490860204610BDFA
:1034600010B56448006828B901206249086044200A
:10347000FFF7A7FF10BD70B504465E48006838B975
:1034800001205C4908604420FFF79BFF002070BDCD
:1034900059480068202801D10020F8E74420FFF7B0
:1034A000A2FF054625600020524908600120EEE792
:1034B00010B5FFF751FE4D48006820F004004B495D
:1034C0000860081D006820F47060091D0860484805
:1034D000006820F004004649086045482030006834
:1034E00020F0040042492031086040480C38006850
:1034F00040F004003D490C39086010BD10B5044689
:1035000000237522022160B2FFF7E0FE10BD2DE915
:10351000F04104460D461646002160B2FFF798FEC2
:1035200060B2FFF75BFE074643F6095017FB00F059
:103530002860012160B2FFF78BFE60B2FFF74EFEFC
:1035400007B2B81040F6354110FB01F03060BDE81D
:10355000F0817CB505460C460120284908604020D2
:10356000FFF7CCFF00BF4FF0402000690428FAD0DD
:103570006A4601A94020FFF7CAFF01982860009819
:10358000206000201D4908607CBD10B51B48006804
:1035900028B90120194908604020FFF7AFFF10BD8E
:1035A0007CB505460C461548006838B9012013491A
:1035B00008604020FFF7A2FF00207CBD4FF04020B4
:1035C0000069042801D10020F7E76A4601A94020DC
:1035D000FFF79DFF019828600098206000200749B0
:1035E00008600120E9E70000001002402845004083
:1035F000004400405C00002080400040600000204B
:1036000000204FF0E02188614FF08060FE490860A3
:10361000704770B50446FCF7A9FE2068401C206086
:103620002068002809DCF9480068456800E06D68FA
:10363000A868A042FBD10020A860FCF799FE70BDED
:1036400070B50024002500BF28E004EB4400F049D9
:1036500001EB80008068401E04EB4401EC4A02EB61
:103660008101886004EB4400114601EB8000806812
:1036700090B904EB440102EB8100FFF7CAFF04EBB1
:103680004400E34901EB8000406804EB4401E04A58
:1036900002EB810188600125601CC4B2DD4800781E
:1036A0008442D2DB15B10025FFF7AAFF70BD0020D0
:1036B00014E000EB8001D84A02EB8101C96859B1DE
:1036C00000EB800102EB8101C968491E00EB80021A
:1036D000D14B03EB8202D160411CC8B20A28E8DB5F
:1036E000704710B50446FCF741FE204600F0B4FBDD
:1036F000CA48CB49086003224FF47A710A2000F0CF
:10370000F6FBC848C649486001224FF47A710B2085
:1037100000F0EDFB10BD00EBC00101EB0011C24A4F
:1037200002EB011101F5A87100EB8002BA4B43F8DE
:1037300022104FF0807100EBC00202EB0012BA4B76
:1037400003EB0212C2F88C114FF0143100EBC002EF
:1037500002EB001203EB0212C2F884114FF0123197
:1037600000EBC00202EB001203EB0212C2F8801160
:103770004FF0033100EBC00202EB001203EB021228
:10378000C2F87C114FF0023100EBC00202EB0012D4
:1037900003EB0212C2F87811491000EBC00202EBF1
:1037A000001203EB0212C2F87411002100EBC002F8
:1037B00002EB001203EB0212C2F870114FF011314C
:1037C00000EBC00202EB001203EB0212C2F86C1114
:1037D0004FF0103100EBC00202EB001203EB0212BB
:1037E000C2F868114FF0093100EBC00202EB001281
:1037F00003EB0212C2F864114FF0083100EBC00273
:1038000002EB001203EB0212C2F860114FF0073115
:1038100000EBC00202EB001203EB0212C2F85C11D3
:103820004FF0063100EBC00202EB001203EB021274
:10383000C2F858114FF0053100EBC00202EB001244
:1038400003EB0212C2F854114FF0043100EBC00236
:1038500002EB001203EB0212C2F8501170472DE97F
:10386000F84F05460E4617469846DDE90BABDDF8E6
:103870002890FCF77FFD0090674814306649486047
:10388000143088611430C8621430086414304865FC
:10389000143088661430C8678C38C0F89010002443
:1038A00007E0002004EB84015B4A02EB81018860A1
:1038B000641C0A2CF5DB5848544908600020FFF7C7
:1038C0002AFF5948C0F888510120FFF724FF5648C5
:1038D000C0F818730220FFF71EFF5348C0F8A894E1
:1038E0000320FFF718FF5048C0F838B60420FFF750
:1038F00012FF4D490E98C1F8C8070520FFF70BFFCE
:1039000049491098C1F858090620FFF704FF4649B5
:103910001298C1F8E80A0720FFF7FDFE4249149803
:10392000C1F8780C3C490E74084680F8248080F871
:1039300038A00D98C1B2384880F84C100F98C1B229
:10394000354880F860101198C1B2334880F874107F
:103950001398C1B2304880F888101598C1B22E482B
:1039600080F89C100098FCF709FD0120BDE8F88F55
:1039700010B5044600204FF0E0210861886122481C
:103980001C30006820F07F4040F060401E491C3130
:103990000860601E4FF0E02148610720086100F0D8
:1039A0006AFD10BDFF22194B186800BF4068037CF8
:1039B000934205DA83681BB9C3680BB9027C0146E0
:1039C000124B1B688342F1D1104B1960704700B550
:1039D00002460E480068C260FFF712FE00BD01609B
:1039E000704710B50446FCF7C1FC2068401E2060FB
:1039F0002068002806DA054800688460FCF7B8FCF7
:103A0000FFF7FEFD12E0000004ED00E0640000207E
:103A1000C81100206800002060010020AF360000BF
:103A20006C0000204136000028020020FCF7A0FCBA
:103A300010BD00B50246002082F8340082F835003F
:103A4000002102F12C00FFF7CAFF012102F1300032
:103A5000FFF7C5FF00BD70B504460D46E06A0A28B1
:103A600005D1A06A401CA0624FF0FF3070BD94F8F1
:103A7000340044F8205094F83400401C0A2190FB94
:103A8000F1F201FB120084F8340004F12C00FFF77E
:103A9000C0FD0020EAE770B5044604F12C00FFF7F2
:103AA000A0FF04F13000FFF79CFF94F8350054F8B4
:103AB000205094F83500401C0A2190FBF1F201FBE4
:103AC000120084F8350004F13000FFF7A2FD28460B
:103AD00070BD10B503460A461148007803281ADA6B
:103AE00000211846FFF77BFF0D48007800EB4000EF
:103AF0000C4901EB800042600A200949097801EB7A
:103B00004101084C04EB8101886005480078401CA5
:103B10000349087001E0002010BD0120FCE700000F
:103B200068000020C811002010B50121F84800F0FD
:103B3000F5FDC4B204F0010050B10121F44800F0D9
:103B4000DDFDF448FFF765FD0121F14800F0D9FDE6
:103B500004F0020058B10221ED4800F0CFFDED481D
:103B6000001DFFF756FD0221E94800F0CAFD04F0F0
:103B7000040058B10421E64800F0C0FDE5480830D3
:103B8000FFF747FD0421E24800F0BBFD04F0080008
:103B900058B10821DE4800F0B1FDDE480C30FFF7D7
:103BA00038FD0821DA4800F0ACFD04F0100058B1EF
:103BB0001021D74800F0A2FDD6481030FFF729FDAC
:103BC0001021D34800F09DFD04F0200058B12021C1
:103BD000CF4800F093FDCF481430FFF71AFD2021A5
:103BE000CB4800F08EFD04F0400058B14021C84899
:103BF00000F084FDC7481830FFF70BFD4021C44892
:103C000000F07FFD04F0800058B18021C04800F032
:103C100075FDC0481C30FFF7FCFC8021BC4800F05B
:103C200070FDFFF7EDFC10BD10B50121BA4800F0A2
:103C300075FDC4B204F0010050B10121B64800F096
:103C40005DFDB648FFF7E5FC0121B34800F059FDE2
:103C500004F0020058B10221AF4800F04FFDAF4818
:103C6000001DFFF7D6FC0221AB4800F04AFD04F02E
:103C7000040058B10421A84800F040FDA7480830CE
:103C8000FFF7C7FC0421A44800F03BFD04F0080046
:103C900058B10821A04800F031FDA0480C30FFF7D2
:103CA000B8FC08219C4800F02CFD04F0100058B12D
:103CB0001021994800F022FD98481030FFF7A9FC28
:103CC0001021954800F01DFDFFF79AFC10BD2DE96D
:103CD000F04104460D4616461F46DDF81880062CB6
:103CE0007ED2DFE804F0030D0E0F4D4E8C488D4957
:103CF0000860081D006840F0FF00091D086085E0AD
:103D000084E083E0884801F099F800BF864801F01C
:103D1000A9F80028FAD01DB100BF81488349086086
:103D20008248001D006840F0FF008049091D0860BE
:103D3000132000F02DFE2946754800F0E2FC2946CC
:103D4000734800F0EAFD3A462946714800F0EDFC60
:103D5000002229466E4800F0BDFC43460122294658
:103D60006B4800F00AFD2946694800F0D1FC700755
:103D7000010E132000F07EFE132000F03BFE45E014
:103D800044E06948801C01F059F800BF6648801C77
:103D900001F068F80028F9D01DB100BF60486449FF
:103DA00008606348001D006840F01F006049091D5D
:103DB00008602E2000F0ECFD2946574800F0A1FCD9
:103DC0002946554800F0A9FD3A462946524800F0D8
:103DD000ACFC00222946504800F07CFC434600E041
:103DE00011E0012229464C4800F0C7FC29464A4808
:103DF00000F08EFC7007010E2E2000F03BFE2E20FE
:103E000000F0F8FD02E00020BDE8F08100BF0120D5
:103E1000FAE770B504460D46062C18D2DFE804F028
:103E2000030405060E0F14E013E012E0294638489B
:103E300000F06EFC132000F0DDFD0AE009E02946E9
:103E4000354800F065FC2E2000F0D4FD01E0002094
:103E500070BD00BF0120FBE770B5044600250026B9
:103E60002D2C24D008DC0D2C0DD0102C10D0142CAF
:103E700013D0282C32D115E0322C1DD0422C20D06A
:103E8000502C2BD122E02B4800F02AFF2A4D27E0AE
:103E90002A4800F025FF2A4D22E02A4800F020FFA2
:103EA000294D1DE0294800F01BFF294D18E0294845
:103EB00000F016FF284D13E0284800F011FF284DB0
:103EC0000EE0284800F00CFF274D09E0274800F0DD
:103ED00007FF274D00F05AFE064601E0002070BDA6
:103EE00000BFB54201D10120F9E70020F7E72DE935
:103EF000F04105460E4614460027FCF73BFA804683
:103F000000F044FEB0FBF6F0471E102D7ED231E0EB
:103F1000007000404C120020005002408C12002023
:103F20004B434F4C20450040030800F020750040F3
:103F300020550240400540075573CB0010388007DC
:103F40000024F4004005C004002D3101400540026A
:103F5000005A6202400500C21C2BA6024005C001A7
:103F600080F0FA0240054001AA40F903400500C173
:103F700000B4C404DFE805F008346390BDF14A4A98
:103F80004A4AEFEEEDECEBEAFA4800F057FF232047
:103F900000F0FEFC0121F84800F0BFFFFF21F648C9
:103FA00000F0AAFF0021F44800F072FF2221F2483D
:103FB00000F072FF3A46FF21EF4800F0B7FFFF2103
:103FC000ED4800F0A1FF0121EB4800F0ABFF6007D6
:103FD000010E232000F04EFD232000F00BFD12E225
:103FE000E448401C00F02AFF252000F0D1FC01210C
:103FF000E24800F092FFFF21E04800F07DFF002141
:10400000DE4800F045FF2221DC4800E0F8E100F046
:1040100043FF3A46FF21D94800F088FFFF21D748E7
:1040200000F072FF0121D54800F07CFF6007010E0F
:10403000252000F01FFD252000F0DCFCE3E1CD4849
:10404000801C00F0FBFE272000F0A2FC0121CC48E0
:1040500000F063FFFF21CA4800F04EFF0021C8486E
:1040600000F016FF2221C64800F016FF3A46FF2155
:10407000C34800F05BFFFF21C14800F045FF01216C
:10408000BF4800F04FFF6007010E272000F0F2FC50
:10409000272000F0AFFCB6E1B648C01C00F0CEFE11
:1040A000332000F075FC0121B64800F036FFFF21F7
:1040B000B44800F021FF0021B24800F0E9FE2221BF
:1040C000B04800F0E9FE3A46FF21AE4800F02EFF6E
:1040D000FF21AC4800F018FF0121AA4800F022FFA0
:1040E0006007010E332000F0C5FC332000F082FC95
:1040F00089E1A048001D00F0A1FE562000F048FC18
:104100000121A14800F009FFFF219F4800F0F4FEC3
:1041100000219D4800F0BCFE22219B4800F0BCFE1F
:104120003A46FF21984800F001FFFF21964800F031
:10413000EBFE0121944800F0F5FE6007010E5620C9
:1041400000F098FC562000F055FC5CE12CE1E4E026
:10415000B6E088E05AE02DE0FFE78648401D00F019
:104160006DFE6C2000F014FC0121884800F0D5FEA3
:10417000FF21864800F0C0FE0021844800F088FE40
:104180002221824800F088FE3A46FF217F4800F055
:10419000CDFEFF217D4800F0B7FE01217B4800F0F5
:1041A000C1FE6007010E6C2000F064FC6C2000F082
:1041B00021FC28E1764800F041FE6E2000F0E8FB8B
:1041C0000121744800F0A9FEFF21724800F094FE1E
:1041D0000021704800F05CFE22216E4800F05CFE79
:1041E0003A46FF216B4800F0A1FEFF21694800F02C
:1041F0008BFE0121674800F095FE6007010E6E20DE
:1042000000F038FC6E2000F0F5FBFCE06048401C3C
:1042100000F014FE702000F0BBFB01215E4800F0AE
:104220007CFEFF215C4800F067FE00215A4800F048
:104230002FFE2221584800F02FFE3A46FF21564813
:1042400000F074FEFF21544800F05EFE0121524848
:1042500000F068FE6007010E702000F00BFC70207B
:1042600000F0C8FBCFE04A48801C00F0E7FD722058
:1042700000F08EFB0121494800F04FFEFF21474826
:1042800000F03AFE0021454800F002FE222143489A
:1042900000F002FE3A46FF21404800F047FEFF21B1
:1042A0003E4800F031FE01213C4800F03BFE600733
:1042B000010E722000F0DEFB722000F09BFBA2E0FA
:1042C0003348C01C00F0BAFD742000F061FB0121EE
:1042D000334800F022FEFF21314800F00DFE00219E
:1042E0002F4800F0D5FD22212D4800F0D5FD3A469B
:1042F000FF212B4800F01AFEFF21294800F004FEA0
:104300000121274800F00EFE6007010E742000F026
:10431000B1FB742000F06EFB75E01D48001D00F03D
:104320008DFD762000F034FB01211E4800F0F5FDE4
:10433000FF211C4800F0E0FD00211A4800F0A8FD14
:104340002221184800F0A8FD3A46FF21154800F048
:10435000EDFDFF21134800F0D7FD0121114800F0C9
:10436000E1FD6007010E762000F084FB762000F06E
:1043700041FB48E0000400F000000340001003404F
:104380000020034000300340004003400050034041
:10439000005C00F0006003400070034000C0044077
:1043A00000D0044000E00440244800F047FD78209D
:1043B00000F0EEFA0121224800F0AFFDFF21204875
:1043C00000F09AFD00211E4800F062FD22211C48E9
:1043D00000F062FD3A46FF21194800F0A7FDFF21D9
:1043E000174800F091FD0121154800F09BFD600782
:1043F000010E782000F03EFB782000F0FBFA02E08E
:104400000020BDE8F08100BF4046FBF7B7FF012068
:10441000F7E77047704710B5FF210A4800F07BFDB1
:1044200009490868804710BD10B5FF21074800F012
:1044300072FD05494868804710BD7047055C00F073
:1044400000F00440006003406C0000200070034056
:1044500072B62DE9F00F0F480168C1F800D001B520
:10446000FFF7A0FABDE801400168D1F800D0BDE82F
:10447000F00F62B6704707480268D2F800D0BDE876
:10448000F00F0FBC5DF804CB01B05DF804EB01B098
:1044900062B67047640000207047704770477546E9
:1044A00000F02CF8AE4605006946534620F00700A0
:1044B000854618B020B5FBF766FFBDE820404FF0F9
:1044C00000064FF000074FF000084FF0000B21F0FE
:1044D0000701AC46ACE8C009ACE8C009ACE8C009CB
:1044E000ACE8C0098D46704710B50446AFF30080B4
:1044F0002046BDE81040FBF702BF000000487047AF
:10450000AC12002001491820ABBEFEE726000200D5
:104510007047012202FA01F1C160704782680123ED
:1045200003FA01F122EA010181607047012202FAD7
:1045300001F1C160826811438160704732B1C06887
:104540004FF0011202FA01F1084070474068012261
:104550008A4042F48032104010F4803F08BF704718
:1045600040F470204FF4803202FA01F18843704722
:104570000A4601F00F0101236FF30F0203FA01F164
:104580001143826A11438162704730B444698900E3
:104590004FF00F0C0CFA01FC02F00F0524EA0C049A
:1045A0008D402C434461046A03F0030324EA0C0C9D
:1045B0008B404CEA03030362C36949004FF0300C9F
:1045C0000CFA01FC02F0300223EA0C0302FA01F1BA
:1045D0001943C16130BC704700EB411000F140014C
:1045E000002003E08B6842F8043B401CCB6813F4C6
:1045F000807F18BF70470828F4D3704702680123F2
:1046000003FA01F122EA0101016070470268012307
:1046100003FA01F111430160704710B400EB41103F
:10462000910050F840CF0F228A4003F00F042CEA8B
:10463000020C8C404CEA040CC0F800C0D0F818C042
:10464000C3F303242CEA020C8C404CEA040CC0F89F
:1046500018C0D0F804C0C3F303142CEA020C8C4039
:104660004CEA040CC0F804C0D0F81CC0C3F30354D7
:104670002CEA020C8C404CEA040CC0F81CC013F469
:10468000702F4FF001040DD0D0F814C0C3F30243D3
:104690002CEA02028B401A434261026904FA01F1DA
:1046A000114304E0026904FA01F122EA0101016107
:1046B00010BC7047012202FA01F10160704722B17B
:1046C0000068C84000F0010070474068C84000F032
:1046D00001007047D0F8003412F0010F14BF0B43F3
:1046E0008B43C0F8003412F0020FD0F8202414BF1E
:1046F000114322EA0101C0F820147047C0F81C14CD
:104700007047D0F8102422EA0101C0F81014704755
:10471000D0F810241143C0F810147047002914BFBA
:10472000D0F81804D0F814047047D0F8083412F008
:10473000010F14BF0B438B43C0F80834D0F8043486
:1047400012F0020F14BF0B438B43C0F80434D0F8AF
:104750000C3412F0040F14BF194323EA0101C0F80E
:104760000C14D0F8381512F4803F14BF41F0010149
:1047700021F00101C0F8381570472DE9F00301263A
:104780004FF0000C0325C2F3411706FA0CF40C425B
:1047900011D0D0F8C48F4FEA4C0405FA04F928EA86
:1047A0000908C0F8C48FD0F8C48F07FA04F448EAA7
:1047B0000404C0F8C44F0CF1010C0CF0FF0CBCF168
:1047C000080FE2D3D0F800C512F0010F14BF4CEA75
:1047D000010C2CEA010CC0F800C5D0F804C512F099
:1047E000020F14BF4CEA010C2CEA010CC0F804C5FE
:1047F000D0F808C512F0040F14BF4CEA010C2CEAE3
:10480000010CC0F808C5D0F818C512F0080F14BF85
:104810004CEA010C2CEA010CC0F818C512F0100F7C
:10482000D0F83C2514BF0A438A43C0F83C25D0F891
:104830000C2513F0010F14BF0A438A43C0F80C255E
:10484000D0F8102513F0020F14BF0A438A43C0F8B2
:104850001025D0F8142513F0040F14BF0A438A431F
:10486000C0F81425D0F81C2513F0080F14BF0A4314
:104870008A43C0F81C25D0F8442513F4007F14BFE8
:104880000A438A43C0F84425D0F8402513F4407FFA
:1048900014BF0A438A43C0F84025D0F82825002BCE
:1048A0000CBF114322EA0101C0F82815BDE8F0034E
:1048B000704700000E4AC0F30741D26E01238B40BF
:1048C0001A420C4A1ABF02EBC101496852F8311072
:1048D000020AD1F82C354FF00F0C0CFA02FC00F054
:1048E0000F0023EA0C0390401843C1F82C057047D1
:1048F00000E00F40406E000050F82100704730B5D6
:104900000C4605460022FFF7E5FE21462846BDE895
:10491000304000230122FFF730BF30B50C4605467A
:104920000022FFF7D7FE21462846BDE83040082385
:104930000122FFF722BF30B50C46054608230122AD
:10494000FFF71BFF21462846BDE830400122FFF754
:10495000C1BE30B50C4605460222FFF7BBFE21461C
:104960002846BDE8304008230122FFF706BF30B5D6
:104970000C4605460222FFF7ADFE21462846BDE85B
:10498000304008230122FFF7F8BE40F8212070478D
:104990001649042804BF086820F4803018D0052880
:1049A00004BF086820F4003012D0062812D00F2867
:1049B00015D0102838BF7047103800F01F010122B1
:1049C00002FA01F142090A4850F8220001607047DA
:1049D00008607047086820F48020086070474FF036
:1049E000E020016921F002010161704724ED00E03F
:1049F000A06F00001649042804BF086840F4803006
:104A000018D0052804BF086840F4003012D00628EA
:104A100012D00F2815D0102838BF7047103800F07A
:104A20001F01012202FA01F142090A4850F822004E
:104A30000160704708607047086840F48020086093
:104A400070474FF0E020016941F0020101617047B9
:104A500024ED00E08C6F000010B5FBF75FFC002830
:104A600018BF012010BD10B5FBF75FFC002818BF70
:104A7000012010BD084A20F00303D25813688007B4
:104A8000C00E4FF0FF0C0CFA00FC23EA0C0301FAF5
:104A900000F0184310607047F06E00000844016891
:104AA0006FF352011143016012F0020F14BFB021E5
:104AB0008C21016214BF4FF4306140F60C01416259
:104AC0007047425822F0010242507047425842F06B
:104AD00001024250704708440168006911F0020F5A
:104AE00014BF4000401C70470844016811F0020FD9
:104AF00014BF5108511E01617047002A826814BF1B
:104B0000114322EA01018160704721F03F031844FC
:104B1000036813F0020F18BF520803699A1A11F0C4
:104B2000010F14BFC26182617047C0F8C81F70478F
:104B300010B4002BDDE901C418BF04234360B1FBAE
:104B4000FCFC0021891CBCFBF1F35B1EFF2BF9D898
:104B500001619107090E02F0300241EA032111437D
:104B6000621E1143016010BC7047C26812F0020F50
:104B7000FBD081607047416821F0020141607047BD
:104B8000416841F0020141607047000070B44B4D34
:104B90002A6E296F11F0004F14BF01F0700002F06F
:104BA0003000202808BF464818D005DC88B11028FE
:104BB00008BF444812D009E0302808BF47F23050FF
:104BC0000CD0702808BF4FF4004007D070BC002004
:104BD00070477C203C4B00EA121018584FF0FF330E
:104BE00011F0004F02D011F4006F06D001F0004C1C
:104BF00002F400645CEA040C36D1D5F860C1D5F843
:104C0000644104F01F06C4F30424641C761C16FBE4
:104C100004F46400B0FBF4F0CCF309044443CCF397
:104C2000892C00FB0CF0D5F810C004EB902042F466
:104C300080020CF4704CBCF5804F08BF234B13D09E
:104C400009DCBCF5005F08BF214B0DD0BCF5405F0F
:104C500008BF204B08E0BCF5E04F08BF1E4B03D057
:104C6000BCF5104F08BF1D4B12F4800F21D011F07E
:104C7000004F19D011F0804F09D011F4006F0CD003
:104C800001F0004C02F400625CEA020205D0C1F3BC
:104C9000C551491CB0FBF1F00BE04000C1F3865157
:104CA000491CB0FBF1F004E0C2F3C351491CB0FB56
:104CB000F1F0834238BF184670BC704700E00F40E7
:104CC00000093D000024F400E46F0000005A620275
:104CD00000B4C40480F0FA0240787D01002D310157
:104CE000434B30B4196E1A6F21F4800141F4006116
:104CF00042F4006419661C6721EA000212F0010FF9
:104D000014D060F0010211409A159A651966D3F823
:104D100050C0D2021CF4807F08D1521E04BF30BCA8
:104D20007047D3F850C01CF4807FF6D021F4FE61A8
:104D300000F4FE621143DFF8BCC024F0700222F0E0
:104D4000004200EA0C0C4CEA020200F0080C42EAB5
:104D5000CC0219661A6700F4005C21F4005122F4B9
:104D600000524CEA01014CEA02024FF0400CC3F839
:104D700058C012F0004F08BF19661A6718BF1966AD
:104D800021F00101DFF870C021F0F86100EA0C0C9D
:104D90004CEA010122F0FC5200F0FC5C4CEA0202F9
:104DA00010F0804F08BF22F0804209D0DFF84CC0DD
:104DB00022F4800200EA0C0C41F480014CEA020269
:104DC00010F4006F08BF4FF400400AD1D3F868C157
:104DD0001CF0010F01D1401EF8D121F4006122F432
:104DE000006219661A6730BC1020FBF793BA000006
:104DF00000E00F40300000800100C007000040408C
:104E000003490A6E22F4F01210430866704700004E
:104E100000E00F40C0F307230749C0B2194401F076
:104E20007043C1F3130143EA411141EA800040F0AD
:104E3000007000220260704700E60F40C0F30723B5
:104E40000749C0B2194401F07043C1F3130143EAAA
:104E5000411141EA800040F0007001220260704779
:104E600000E60F40C0F307220849C0B2114401F028
:104E70007042C1F3130142EA411141EA800040F05F
:104E800000700068002818BF0120704700EA0F403A
:104E9000C0F8C81F7047000010B4C26822F00102B9
:104EA00022F48072C2600A0E0260114A1268114B2D
:104EB00002EA030CACF18054CBB2C1F30722B4F583
:104EC000202407D043F40071416042F400718160F6
:104ED00010BC70474FF4704C0CEA1114234343F498
:104EE000007343600CEA1121114341F40071EEE7B5
:104EF00000E00F400000FF70C26840F2011319404B
:104F000022EA0101C1607047C26840F201131940F2
:104F10001143C160704741627047826922EA010112
:104F200081617047826911438161704711F0FF0F01
:104F300018BF826211F47F4F18BFC2627047000031
:104F400010B591EA030F48BF83F0004300F14A8394
:104F5000841A71EB030C05D2121943EB0C03001BEE
:104F600061EB0C01DFF824E14FEA1154A4EB135C70
:104F70001EEA430F18BF9EEA445F73D023EA0E0374
:104F8000DCF1200E21EA045143F4801332D322FADB
:104F90000CFE10EB0E0023FA0CFE41EB0E01CCF1DF
:104FA000200E03FA0EFE10EB0E0051F10001B1F5D8
:104FB000801FCCF1200E32D201EB045112FA0EF216
:104FC000BDE8104058BF7047401C38BF5FEA42023E
:104FD00018BF7047002814BF20F0010041F1000104
:104FE0004FEA410313F5001F38BF7047A1F1C041DC
:104FF00000F0DEBA012A43EB0302ACF1200CDCF135
:105000001F0E32BF4FF0000E23FA0CF310EB03001B
:1050100041EB0451B4EB115FD0D0A1EB045101F589
:10502000801149085FEA300001EB04510ED350F1C2
:10503000000038BF12FA0EFE08D1BDE81040C9E7E3
:10504000401C38BF5FEA4202CAD1C3E7BDE8104046
:105050004FEA410313F5001F38BF7047A1F1C0416B
:1050600000F0A6BA9EEA445F08D011EA5E0FBDE8E0
:10507000104004BF01F0004100207047BDE810401F
:1050800070B500F047FA00BF64FBBE3E0000E0FFD1
:105090002DE9C04130B4DFF8A0C23CEA111418BFBA
:1050A0003CEA131400F0EC8081EA03051CEA1114B9
:1050B00044EAD57418BF1CEA131500F0C780A4EBAE
:1050C00005044FF0004545EAC12145EAC32341EA02
:1050D000505143EA525304F17F74994204F500346D
:1050E0004FEAC0204FEAC22208BF904200F09C80E5
:1050F0004FEA13650FF24016765D4FEA134506FB43
:1051000005F7C7F1807706FB07F74FEAD737A7FB0C
:1051100003687642C8F58038A7FB06CE38BFA8F1F1
:10512000010807FB08E64FF0000EA6FB028CE6FB29
:1051300003CEDCF1000CCEF1004E38BFAEF1010E13
:10514000A6FB0C584FF000074FF00005E6FB0E875A
:10515000A1FB08C6A0FB07CE16EB0E0645F1000525
:10516000E1FB076515F1E04E7EBFA4F580345FEAF0
:1051700046066D4116F1800745F100054FEA1727F5
:105180004FEA066647EA0567A6F1DE46B6F1805F9C
:105190004FEA15251FD9384624F0010C05EBC471E0
:1051A000BCF1FE6F01EB0C1102D8F0BCBDE8008130
:1051B00024425CBF01F5801E9EEAC47F02D4F0BC8D
:1051C000BDE80081244238D4F0BCA1F1C041BDE863
:1051D000004100F0EDB94FEAD22242EA43524FEAD1
:1051E000D323A7FB02864FEAD02040EA415007FBB9
:1051F00003661EEA0E0F4FEAD12105FB026658BF77
:10520000A6EB0056B6EB00564FEA520E4EEAC37EAE
:1052100018EB0E0E56EB530EBDD518EB02085E418F
:105220007F1C55F10005B6E74FF480154FF00007DD
:105230004FF000064FF00008ADE7F0BC4FF0000063
:1052400001F1C04101F00041BDE8008111EA0C1FED
:105250000CEA131500D00CE013EA0C1F00F02580B7
:105260004FF00000F0BC81EA030101F00041BDE80D
:105270000081F0BCBDE8004181EA030100F098B96B
:10528000F0BCBDE8004170B500F044F9097EFC3E79
:1052900000F007B881EA03014FF0000001F000417F
:1052A000704781EA030100F083B9F0BCBDE800411A
:1052B0004FF0000021497047FFFDFBF9F7F5F4F2CC
:1052C000F0EEEDEBE9E8E6E4E3E1E0DEDDDBDAD8A1
:1052D000D7D5D4D3D1D0CFCDCCCBCAC8C7C6C5C4FF
:1052E000C2C1C0BFBEBDBCBBBAB9B8B7B6B5B4B316
:1052F000B2B1B0AFAEADACABAAA9A8A8A7A6A5A401
:10530000A3A3A2A1A09F9F9E9D9C9C9B9A999998C4
:105310009797969595949393929191908F8F8E8E67
:105320008D8C8C8B8B8A89898888878786858584F4
:1053300084838382828181800000FF070000F87FE0
:105340004FEA1153A3F58063D3F11E03A8BFD3F135
:10535000200C08DB4FF0004242EAC12252EA5052D0
:1053600032FA03F0704709420BD4102BC4BF00205F
:10537000704703F5787CBCF1FF3F05D04FF0FF305C
:1053800070474FF00000704770B500F0C3F800BFE1
:105390004992248000207047F0E7B0FA80F310FAB9
:1053A00003F10AD0C3F11D0303F580634FEA4150B6
:1053B0004FEA035202EBD12170474FF000007047D3
:1053C000DFF848C170B51CEA111E1EBF1CEA131598
:1053D0009EEA0C0F95EA0C0F00F06F8081EA03043F
:1053E00023EA4C134EEAD47E21EA4C1141F4801199
:1053F00043F48013AE44A1FB024CA0FB0365AEF165
:105400007F7E361955EB0C05A1FB034C4CF10003D4
:10541000A0FB021C16EB0C06654153F10003094288
:1054200018BF46F0010613F4007F0BD14FEA033199
:105430004FEA0530340341EA155140EA16506FF047
:1054400003020AE04FEAC3214FEAC520F40241EA11
:10545000555140EA56506FF0020202EB2E4201EB2A
:10546000025585EACE710AD05FEA440C18BF24F0D9
:10547000004450F1000041F1000120EAD47040F2F4
:10548000FE7C624500D270BDA84214BF4FF080443C
:105490004FF04044002E08BF0024BEF1806FA8BF2B
:1054A000A1F1C041BDE8704080F282804FF0000061
:1054B00001F1C04101F0004170479EEA0C0F0CEA77
:1054C000131518BF95EA0C0F06D04FF0000081EAC3
:1054D000030E0EF0004170BD00F01CF88900013E83
:1054E00000F007B800F009B84FEA430C5FEA5C5CD3
:1054F00008D081EA030100F05BB84FEA410C5FEA93
:105500005C5CF6D14FF00000014970470000FF07D6
:105510000000F87F0EF1020E2EF0030E5EF8046B11
:10552000364205D4012A43EB030515F5001F12D8B6
:10553000012841EB010C1CF5001F0CD80ED14FEADD
:10554000D17C15F5001F0CEB4C0C0CF1020C08BFC4
:105550004CEBD37C04E04FF0080C01E04FEAD37C25
:105560000CEB4C0526FA05F606F00706B6F1040C1E
:1055700006D20EEB860CBDE870404CF0010C604783
:10558000DFE80CF0090B02024FF000414FF0000081
:10559000A1F5002170BD19461046012851EB010408
:1055A00018BFD4F5001484BF002001F0004170BD85
:1055B0000808A0F500114FEA3101704791EA030F86
:1055C00010B581F000413FF5C3AC83F0004300F01B
:1055D00009B8000010B591EA030F48BF83F00043FB
:1055E0003FF5B6AC841A71EB030C07D212198CF09C
:1055F000004C43EB0C03001B61EB0C01DFF8A4E152
:105600004FEA1154A4EB135C1EEA430F18BF9EEA45
:10561000445F00F0B08023EA6E03524221EA045155
:10562000C3EB6E0338BF5B1EDCF1200E25D322FADC
:105630000CFE10EB0E0043FA0CFE41EB0E01CCF118
:10564000200E03FA0EFE10EB0E0051F10001CCF11A
:10565000200E29D412FA0EF201EB0451BDE81040DD
:1056600058BF7047401C1CBFB2F1004F7047002864
:105670000CBF491C20F00100704712EB020E43EBF7
:10568000030218BF4FF0010E4EEA4202ACF1200CAB
:10569000DCF11E0E54D943FA0CFE10EB0E0051F152
:1056A000FF31CCF11E0ED5D50EF1010E12FA0EFE11
:1056B000404141EB010101EB445C5FEA5C5C10D9C5
:1056C00010EBDE7001EB045138BFBEF1004FBDE8B6
:1056D000104018BF704700280CBF491C20F0010083
:1056E000704730D24FEAD42C11F5001124F4006435
:1056F0001BD0B1FA81F20B3AA41AA41ED2F12003F6
:10570000914030FA03F31943904001EBCC71002C27
:1057100001EB0451BDE81040A8BF704701F1C04142
:105720004FF0000001F000417047B0FA80F310FA2A
:1057300003F100D110BDE41A173C4805C90AE4E79B
:1057400001EB045110BD491001EB0451BDE81040BC
:105750004FEA300002E04FF0000170474A0008BFF6
:105760000042F8D0B2F5001F28BF704701F0004199
:105770004FF0000070479EEA445F07D011EA5E0FC9
:10578000BDE8104004BF002100207047BDE8104074
:1057900070B5FFF7BFFE00BF40DFF63E83F000416B
:1057A000104670470000E0FF4FF04070E1EE100A35
:1057B000704708080808081818183830303070F09A
:1057C000E0C0C080000000000000000000000000F9
:1057D00000000000000000000000000000000000C9
:1057E00000000000000000000000000000000000B9
:1057F0000080C0C0E0E0F070703030181818180851
:105800000808080000000000000000000000000080
:105810000000000001030303070F0E0C1C3838B80A
:10582000F8F0F0F8F8F8F8F8F8FCFCF8F8F8F8F800
:10583000F8F8F8F8F8F8F8F8F0E0E0F0F0F0F078C0
:10584000383C1C1F0F07030301000000000000008C
:105850000000000000000000000000000000000048
:105860000000000000000000000000000000000038
:1058700000060F0F0F0F0F0707071FFFFFFFFFFFA8
:10588000FFFFFFFFFFFFFFFFFFFFFFFF1F0F1F1FB8
:105890001F1F1F1F1E0E040000000F050B0000003D
:1058A00000000000000000000000000000000000F8
:1058B00000000000000000000000000000000000E8
:1058C00000000000000000000000000000000001D7
:1058D000071FFFFFFFFFFFFFFFFFFFFF1F07030083
:1058E00000000000000000000000000000000000B8
:1058F00000000000000000000000000000000000A8
:105900000000000000000000000000000000000097
:105910000000000000000000000000000000000087
:1059200000000000003C7F7FFFFFFFFFFFFF7F3F85
:10593000280000000000000000000000000000003F
:105940000000000000000000000000000000000057
:105950000000000000000000000000000000000047
:105960000000000000000000000000000000000037
:105970000000000000000000000000000000000027
:105980000000000000000000000000000000000017
:105990000000000000000000000000000000000007
:1059A00000000000000000000000080808080818B7
:1059B00018183830303070F0E0C0C08000000000AF
:1059C00000000000000000000000000000000000D7
:1059D00000000000000000000000000000000000C7
:1059E00000000000000000000080C0C0E0E0F07097
:1059F0007030301818181808080808000000F0085F
:105A0000042424E42424040404040408F103030308
:105A1000070F0E0C1C3838B8F8F0F0F8F8F8F8F862
:105A2000F8FCFCF8F8F8F8F8F8F8F8F8F8F8F8F8EE
:105A3000F0E0E0F0F0F0F078383C1C1F0F070303B3
:105A40000100000000000000000000000000000055
:105A50000000FF00000404078444408040408000B0
:105A6000000102FC0000000000060F0F0F0F0F07DF
:105A700007071FFFFFFFFFFFFFFFFFFFFFFFFFFF06
:105A8000FFFFFFFF1F0F1F1F1F1F1F1F1E0E040002
:105A900000000F050B0000000000000000000000E7
:105AA000000000000000FF000000000001028488E8
:105AB0008402010000800000018284848404048444
:105AC0000404840810E00001071FFFFFFFFFFFFF31
:105AD000FFFFFFFF1F0703000000000000000000A1
