:020000040000FA
:10000000700200203D030000510300005303000074
:1000100055030000570300005903000000000000D2
:100020000000000000000000000000005B03000072
:100030005D030000000000005F030000610300009A
:100040006303000063030000630300006303000018
:100050006303000063030000630300006303000008
:1000600063030000630300006303000063030000F8
:1000700063030000630300006303000063030000E8
:1000800063030000630300006303000063030000D8
:1000900063030000630300006303000063030000C8
:1000A0006303000085070000630300006303000092
:1000B00063030000630300004907000063030000BE
:1000C0006303000063030000630300006303000098
:1000D0006303000063030000630300006303000088
:1000E0006303000063030000630300006303000078
:1000F0006303000063030000630300006303000068
:100100006303000063030000630300006303000057
:100110006303000063030000630300006303000047
:100120006303000063030000630300006303000037
:100130006303000063030000630300006303000027
:1001400000000000000000000000000000000000AF
:100150006303000063030000630300006303000007
:10016000000000000000000000000000000000008F
:10017000000000000000000000000000000000007F
:10018000000000000000000000000000000000006F
:10019000000000000000000000000000000000005F
:1001A000000000000000000000000000000000004F
:1001B0006303000063030000A9070000630300005D
:1001C0006303000063030000630300006303000097
:1001D0006303000063030000630300006303000087
:1001E0006303000063030000630300006303000077
:1001F0006303000063030000630300006303000067
:1002000063030000630300006303000000000000BC
:100210006303000063030000630300006303000046
:100220006303000063030000630300006303000036
:100230006303000063030000630300006303000026
:100240006303000063030000630300006303000016
:100250006303000063030000630300006303000006
:1002600063030000630300006303000000F002F872
:1002700000F03CF80AA090E8000C82448344AAF104
:100280000107DA4501D100F031F8AFF2090EBAE802
:100290000F0013F0010F18BFFB1A43F001031847BA
:1002A00098220000B8220000103A24BF78C878C114
:1002B000FAD8520724BF30C830C144BF04680C606C
:1002C000704700000023002400250026103A28BFB4
:1002D00078C1FBD8520728BF30C148BF0B607047B8
:1002E0001FB501F0D0FA1FBD10B510BD00F043FEE0
:1002F0001146FFF7F5FF00F04DF800F061FE03B482
:10030000FFF7F2FF03BC00F065FE00000138FDD1ED
:1003100070470000EFF3108072B67047EFF3108063
:100320007047EFF3108062B6704730BF704780F3BC
:1003300011887047EFF31180704700004EF6885027
:10034000CEF20000016841F470010160FFF78EBF3A
:10035000FEE7FEE7FEE7FEE7FEE7FEE7FEE7FEE775
:10036000FEE7FEE772B6704762B67047EFF31080A3
:1003700072B6704780F31088704730BF70470248EC
:100380000249014A024B70477000002070020020B1
:100390007000002000F0BDFD02E000BF00F086F913
:1003A000FBE7000070B5044654B900224021A5487F
:1003B00001F051F84FF48071A24801F030F81BE0D1
:1003C000632C00D963244FF480719E4801F031F80A
:1003D00060436421B0FBF1F52A464FF483719948DC
:1003E00001F041F84FF48071964801F01DF80122A8
:1003F0004021944801F02FF870BD70B5044654B9FF
:10040000002280218F4801F026F84FF480718D483A
:1004100001F005F81BE0632C00D963244FF48071D0
:10042000884801F006F860436421B0FBF1F52A46E4
:1004300040F20711834801F016F84FF480718148AB
:1004400000F0F2FF012280217E4801F004F870BD27
:1004500010B50446002001F083F97B4801F09EF9B5
:100460007A4801F09BF97A4800F0D2FE794800F012
:10047000CFFE0421784800F019FF0821764800F0EB
:1004800015FF00224FF480716E4800F0B5FF224640
:100490004FF480716B4800F0D5FF01224FF4837157
:1004A000684800F0E0FF012240F20711654800F0C3
:1004B000DAFF4FF48071634800F0B6FF10BD70B5ED
:1004C0000446002001F04CF95F4801F067F95F48ED
:1004D00001F064F9614800F09BFE02215E4800F0E3
:1004E000E5FE0022C021574800F086FF2246C021C9
:1004F000544800F0A7FFC021524800F09AFF00EBDB
:10050000800040006421B0FBF1F52A46C5214D482A
:1005100000F0A9FFC0214B4800F086FF70BD10B568
:100520004F48007848B101222021464800F093FF4F
:10053000C021444800F078FF08E000222021414813
:1005400000F089FFC0213F4800F069FF444890F95E
:10055000000080F001004249087010BD2DE9F04113
:1005600006460F4615461C460CB9012402E0632CD2
:1005700000D963243946304600F05BFF6421B1FBAB
:10058000F4F1B0FBF1F842462946304600F06BFF2B
:10059000BDE8F08170B505460C46002001F0E0F89A
:1005A000294801F0FBF82948801E01F0F7F82D4892
:1005B00000F02EFE2C4800F02BFE01212B4800F00D
:1005C00075FE0221294800F071FE002240211D48DD
:1005D00000F012FF2A4640211A4800F033FF402164
:1005E000184800F026FF64214843B0FBF4F6324679
:1005F0004021144800F037FF4021124800F019FF55
:1006000064214843B0FBF4F6324641210D4800F026
:100610002AFF40210B4800F007FF0122032109486F
:1006200000F019FF70BD10B50848801E01F0A2F857
:100630004021044800F0F3FE00220321014800F0AD
:100640000AFF10BD00900240014000F0050800F0D4
:1006500005080500050C05000050024005040500D2
:1006600000000020050003000504030000700040A6
:1006700010B55F20FFF796FE0020FFF7BEFE5F205B
:100680002B490870002048700120887010BD10B5FB
:100690000020FFF787FE5F20FFF7AFFE5F202449B1
:1006A0004870002008700220887010BD10B500202E
:1006B000FFF778FE0020FFF7A0FE00201C494870DD
:1006C0000870887010BD10B50920FFF76BFE092077
:1006D000FFF793FE092016494870087003208870C0
:1006E00010BD10B55F20FFF75DFE5F20FFF785FEB0
:1006F0005F200F49487008700320887010BD10B546
:10070000FFF7D4FF32214FF47A70FFF743FF322016
:10071000074948700870042088704FF47A7000F020
:1007200088F9002003490860FFF77DFF10BD000035
:10073000010000200400002010B500F042FE10BDB2
:1007400010B500F037FE10BD10B500240021204880
:1007500000F091FC044611211D4800F07BFC04F0E0
:100760001100112802D1FFF7AEFF0AE014F0100FBC
:1007700002D0FFF78CFF04E014F0010F01D0FFF767
:1007800077FF10BD10B50A2401201249086000222D
:100790001146114800F03DFC28B100210E4800F040
:1007A00024FCFFF7ACFF10BD10B5002400210B485E
:1007B00001F056F850B1FF21084801F046F8FF213A
:1007C000064801F05BF8044600F048F910BD00004F
:1007D000005002400400002000C0034000600340BD
:1007E00010B5144800F0DAFF134800F0D7FF2920B5
:1007F00000F07CFD0021114800F0FCFB8021104836
:1008000000F02AFD40F2124200210C4800F0E9FB02
:1008100040F20631094800F007FC0021074800F0CB
:10082000F1FB6021292000F0D3FD292000F090FD8C
:1008300010BD0000003C00F0020800F000C00340C2
:100840000060004010B54A4800F0A8FF49484A49F6
:100850000860081D006840F01F00091D08602E2078
:1008600000F044FD1121454800F0F7FB11214348F9
:1008700000F000FD02221121404800F003FC00229C
:1008800011213E4800F0D2FB0A23012211213B48EE
:1008900000F020FC1121394800F0E6FB40212E2019
:1008A00000F096FD2E2000F053FD10BD10B530482D
:1008B00000F074FF3048001D006840F01F002E4912
:1008C000091D086002212D4800F0E2FC01220221EE
:1008D0002A4800F0ABFB082301220221274800F040
:1008E000F9FB00220221254800F0FCFC10BD10B5E8
:1008F000234890F9000080F0020021490870084662
:10090000027802211D4800F0EDFC10BD10B518481A
:10091000401F00F043FFC0214FF0402000F0B8FC22
:100920000122C0214FF0402000F080FB0C23012267
:10093000C0214FF0402000F0CDFB10BD10B50446A3
:1009400034B1402211464FF0402000F0CBFC05E0CE
:10095000002240214FF0402000F0C4FC10BD10B533
:100960000446224680214FF0402000F0BBFC10BD21
:10097000050800F04B434F4C205502400050024008
:100980000800002070B504460025002600F0AEFDEA
:1009900006464FF47A70B6FBF0F06043451E2846D9
:1009A00070BD10B52B4800F0F9FE6E2000F09EFCE3
:1009B0000121294800F04BFFFF21274800F036FFB6
:1009C0000021254800F0FEFE2221234800F0FEFE13
:1009D0004FF47A70FFF7D6FF04462246FF211E48E7
:1009E00000F043FFFF211C4800F028FF01211A48B6
:1009F00000F032FF20216E2000F0EAFC6E2000F0B3
:100A0000A7FC10BD10B53220FFF7BCFF04462246FC
:100A1000FF21114800F029FF10BD70B505460024E4
:100A20002846FFF7AFFF044600E0641E002CFCD10F
:100A300070BD70B505460024FFF782FE2846FFF71B
:100A4000A1FF044600E0641E002CFCD1FFF774FEF9
:100A500070BD0000005C00F00060034010B50F485E
:100A600000781E2805DC00200D49087000F084F98C
:100A700001E000F08BF9FFF752FD084908780846BD
:100A80000078FE2802D10520087004E003480078B1
:100A9000401C0249087010BD70470000090000208A
:100AA0000A00002070B505460C461DB90020FFF76E
:100AB00045FF02E04020FFF741FF204600F014FA16
:100AC00070BD70B504460D460B2C01DC052D01DD13
:100AD000002070BDC4EBC400C0B240F08001002013
:100AE000FFF7E0FF45F040010020FFF7DBFF0120AA
:100AF000EFE710B5002400BF04E000210120FFF75C
:100B0000D1FF641CB4F5FC7FF7D300210846FFF742
:100B1000D8FF10BD08B500F0B3F9FFF7F7FE0020CD
:100B2000FFF71DFF0020009002E00098401C00909D
:100B300000980A28F9D38020FFF711FF2121002017
:100B4000FFF7B0FFBA210020FFF7ACFF042100201F
:100B5000FFF7A8FF14210020FFF7A4FF20210020A9
:100B6000FFF7A0FF0C210020FFF79CFFFFF7C1FF5C
:100B700008BD70B50546002400BF0AE0A5F12000BD
:100B800000EB8000774A1044015D0120FFF78AFFE7
:100B9000641C052CF2D300210120FFF783FF70BDF8
:100BA00010B5044603E02078FFF7E3FF641C2078CB
:100BB0000028F8D110BD70B504460A2C08DA6AA0E6
:100BC000FFF7EEFF04F13001C8B2FFF7D2FFB6E045
:100BD000642C15DA66A0FFF7E3FF0A2094FBF0F01F
:100BE0003030C5B22846FFF7C4FF0A2094FBF0F16D
:100BF00000FB11403030C5B22846FFF7BAFF9EE037
:100C0000B4F57A7F23DA5BA0FFF7CAFF642094FB78
:100C1000F0F03030C5B22846FFF7ABFF642094FBFC
:100C2000F0F100FB114084B20A2094FBF0F0303068
:100C3000C5B22846FFF79DFF0A2094FBF0F100FBA8
:100C400011403030C5B22846FFF793FF77E042F2FB
:100C50001070844233DA2020FFF78BFF4FF47A7054
:100C600094FBF0F03030C5B22846FFF782FF4FF416
:100C70007A7094FBF0F100FB114084B2642094FB85
:100C8000F0F03030C5B22846FFF773FF642094FBC4
:100C9000F0F100FB114084B20A2094FBF0F03030F8
:100CA000C5B22846FFF765FF0A2094FBF0F100FB70
:100CB00011403030C5B22846FFF75BFF3FE042F2FB
:100CC000107094FBF0F03030C5B22846FFF751FFAA
:100CD00042F2107094FBF0F100FB114084B24FF42B
:100CE0007A7094FBF0F03030C5B22846FFF741FF30
:100CF0004FF47A7094FBF0F100FB114084B2642051
:100D000094FBF0F03030C5B22846FFF732FF642084
:100D100094FBF0F100FB114084B20A2094FBF0F048
:100D20003030C5B22846FFF724FF0A2094FBF0F1CB
:100D300000FB11403030C5B22846FFF71AFF70BDE6
:100D400070B50546002400210846FFF7BAFE00BF33
:100D500004E0295D0120FFF7A5FE641CB4F5FC7FCB
:100D6000F7D370BD90180000202020200000000064
:100D7000202020002020000010B53248FFF7E0FFBF
:100D800010BD10B53048FFF7DBFF10BD10B52F4880
:100D9000007820B9FFF7ADFE01202C490870002132
:100DA0000220FFF78EFE2A4991F9011088B2FFF761
:100DB00002FF2520FFF7DDFE00210846FFF781FE38
:100DC00024A0FFF7EDFE01210220FFF77AFE204963
:100DD00091F9001088B2FFF7EEFE2520FFF7C9FE5B
:100DE00001210020FFF76DFE1CA0FFF7D9FE0221B4
:100DF0000020FFF766FE1BA0FFF7D2FE144890F913
:100E00000200052818D2DFE800F003070B0F1300DB
:100E100016A0FFF7C5FE13E015A0FFF7C1FE0FE017
:100E200014A0FFF7BDFE0BE013A0FFF7B9FE07E02B
:100E300012A0FFF7B5FE03E00CA0FFF7B1FE00BF64
:100E400000BF10BD601E0000701A00000A000020E4
:100E5000010000204D74724C000000004D7472526D
:100E6000000000004469722000000000537400007C
:100E7000464C0000465200004677000042770000D2
:100E80007CB51D4800F08AFC1C4800F087FC1C481B
:100E900000F022FB40F6020000F0BAF940F60240F2
:100EA00000F0B6F941F2024000F0B2F92C214FF007
:100EB000402000F009FA0021114800F0E7FA10483C
:100EC00000F0E1FA054600F011FB044608200D4948
:100ED00000231A46CDE900102146094800F0D9FA4E
:100EE000074800F0FEFA7CBD10B5044621460448D0
:100EF00000F0ECFA10BD0000001C00F0000800F04B
:100F00000080004008AF2F0010B5184800F098FB93
:100F100010BD10B5FFF714FCFFF7F6FF00F0E6FA7E
:100F20000446FFF7F7FD00F0E1FA0446FFF78AFCFC
:100F300000F0DCFA04464FF47A70FFF789FA00F00B
:100F4000D5FA04464FF47A70FFF7B9FA00F0CEFAFA
:100F50000446FFF726FD00F0C9FA0446FFF740FCFF
:100F600000F0C4FA0446FFF7E7FB10BD4005400758
:100F7000704770477047754600F028F8AE46050088
:100F80006946534620F00700854618B020B5FFF7A4
:100F9000F6F9BDE820404FF000064FF000074FF093
:100FA00000084FF0000B21F00701AC46ACE8C00987
:100FB000ACE8C009ACE8C009ACE8C0098D46704790
:100FC0000446AFF300802046FFF799F900487047C8
:100FD0000C00002001491820ABBEFEE726000200ED
:100FE000704700EB411042627047012202FA01F1A2
:100FF000016070478268012303FA01F122EA0101CE
:10100000816070478268012303FA01F11143816016
:10101000704722B10068C84000F001007047406886
:10102000C84000F00100704701617047D0F80034FB
:1010300012F0010F14BF0B438B43C0F8003412F0C1
:10104000020FD0F8202414BF114322EA0101C0F896
:1010500020147047C0F81C14704700F58262D0F865
:10106000100488431060704700F58262D0F81004C5
:10107000084310607047002914BFD0F81804D0F856
:1010800014047047D0F8083412F0010F14BF0B435A
:101090008B43C0F80834D0F8043412F0020F14BFA8
:1010A0000B438B43C0F80434D0F80C3412F0040F17
:1010B00014BF194323EA0101C0F80C14D0F8381505
:1010C00012F4803F14BF41F0010121F00101C0F88A
:1010D000381570472DE9F00701274FF0000C032663
:1010E000C2F3411800F6C47407FA0CF50D4210D093
:1010F000D0F8C49F4FEA4C0506FA05FA29EA0A0916
:10110000C4F80090D4F8009008FA05F549EA0505FE
:1011100025600CF1010C0CF0FF0CBCF1080FE3D3BF
:10112000D0F800C512F0010F14BF4CEA010C2CEAF4
:10113000010CC0F800C5D0F804C512F0020F14BFAE
:101140004CEA010C2CEA010CC0F804C5D0F808C523
:1011500012F0040F14BF4CEA010C2CEA010CC0F889
:1011600008C5D0F818C512F0080F14BF4CEA010CDE
:101170002CEA010CC0F818C512F0100FD0F83C256D
:1011800014BF0A438A43C0F83C25D0F80C2513F05D
:10119000010F14BF0A438A43C0F80C25D0F810256C
:1011A00013F0020F14BF0A438A43C0F81025D0F889
:1011B000142513F0040F14BF0A438A43C0F8142502
:1011C000D0F81C2513F0080F14BF0A438A43C0F857
:1011D0001C25D0F8442513F4007F14BF0A438A432A
:1011E000C0F84425D0F8402513F4407F14BF0A43CB
:1011F0008A43C0F84025D0F82825002B0CBF1143A6
:1012000022EA0101C0F82815BDE8F0077047000088
:101210000F4AC0F30741D26E01238B401A420D4A98
:101220001ABF02EBC1014A6852F83120C0F307210E
:1012300002F22C53D2F82C254FF00F0C0CFA01FCC3
:1012400000F00F0022EA0C0288401043186070473B
:1012500000E00F40D821000030B50C4605460022C2
:10126000FFF7E4FE21462846BDE830400023012276
:10127000FFF730BF30B50C4605460022FFF7D6FE1B
:1012800021462846BDE8304008230122FFF722BF4F
:1012900030B50C46054608230122FFF71BFF214607
:1012A0002846BDE830400122FFF7C0BE30B50C46ED
:1012B00005460222FFF7BAFE21462846BDE8304027
:1012C00008230122FFF706BF30B50C46054602226F
:1012D000FFF7ACFE21462846BDE830400823012236
:1012E000FFF7F8BE40F82120704700001649042897
:1012F00004BF086820F4803018D0052804BF0868AF
:1013000020F4003012D0062812D00F2815D0102853
:1013100038BF7047103800F01F01012202FA01F1B6
:1013200042090A4850F8220001607047086070477F
:10133000086820F48020086070474FF0E0200169C1
:1013400021F002010161704724ED00E03823000024
:101350001649042804BF086840F4803018D00528D6
:1013600004BF086840F4003012D0062812D00F28BD
:1013700015D0102838BF7047103800F01F01012227
:1013800002FA01F142090A4850F822000160704750
:1013900008607047086840F48020086070474FF08C
:1013A000E020016941F002010161704724ED00E095
:1013B0002423000010B5FEF7ADFF002818BF012060
:1013C00010BD10B5FEF7ADFF002818BF012010BDFD
:1013D000084A20F00303D25813688007C00E4FF06C
:1013E000FF0C0CFA00FC23EA0C0301FA00F018438E
:1013F0001060704788220000084401686FF35201B2
:101400001143016012F0020F14BFB0218C21016260
:1014100014BF4FF4306140F60C01416270474258EE
:1014200022F0010242507047425842F001024250FD
:10143000704708440168006911F0020F14BF4000B2
:10144000401C70470844016811F0020F14BF510896
:10145000511E01617047002A826814BF114322EABD
:1014600001018160704721F03F031844036813F0C5
:10147000020F18BF520803699A1A11F0010F14BF26
:10148000C26182617047D0F8C80F7047C0F8C81FAA
:10149000704710B4002BDDE901C418BF042343607A
:1014A000B1FBFCFC0021891CBCFBF1F35B1EFF2B94
:1014B000F9D801619107090E02F0300241EA0321D7
:1014C0001143621E1143016010BC7047C26812F0E4
:1014D000020FFBD081607047416821F0020141603A
:1014E0007047416841F002014160704770B44B4D54
:1014F0002A6E296F11F0004F14BF01F0700002F046
:101500003000202808BF464818D005DC88B11028D4
:1015100008BF444812D009E0302808BF47F23050D5
:101520000CD0702808BF4FF4004007D070BC0020DA
:1015300070477C203C4B00EA121018584FF0FF33E4
:1015400011F0004F02D011F4006F06D001F0004CF2
:1015500002F400645CEA040C36D1D5F860C1D5F819
:10156000644104F01F06761CC4F30424641C16FBBB
:1015700004F46400B0FBF4F0CCF309044443CCF36E
:10158000892C00FB0CF0D5F810C004EB902042F43D
:1015900080020CF4704CBCF5804F08BF234B13D075
:1015A00009DCBCF5005F08BF214B0DD0BCF5405FE6
:1015B00008BF204B08E0BCF5E04F08BF1E4B03D02E
:1015C000BCF5104F08BF1D4B12F4800F21D011F055
:1015D000004F19D011F0804F09D011F4006F0CD0DA
:1015E00001F0004C02F400625CEA020205D0C1F393
:1015F000C551491CB0FBF1F00BE04000C1F386512E
:10160000491CB0FBF1F004E0C2F3C351491CB0FB2C
:10161000F1F0834238BF184670BC704700E00F40BD
:1016200000093D000024F4007C230000005A6202FF
:1016300000B4C40480F0FA0240787D01002D31012D
:10164000434B30B4196E1A6F21F4800141F40061EC
:1016500042F4006419661C6721EA000212F0010FCF
:1016600014D060F0010211409A159A651966D3F8FA
:1016700050C0D2021CF4807F08D1521E04BF30BC7F
:101680007047D3F850C01CF4807FF6D021F4FE617F
:1016900000F4FE621143DFF8BCC024F0700222F0B7
:1016A000004200EA0C0C4CEA020200F0080C42EA8C
:1016B000CC0219661A6700F4005C21F4005122F490
:1016C00000524CEA01014CEA02024FF0400CC3F810
:1016D00058C012F0004F08BF19661A6718BF196684
:1016E00021F00101DFF870C021F0F86100EA0C0C74
:1016F0004CEA010122F0FC5200F0FC5C4CEA0202D0
:1017000010F0804F08BF22F0804209D0DFF84CC0B3
:1017100022F4800200EA0C0C41F480014CEA02023F
:1017200010F4006F08BF4FF400400AD1D3F868C12D
:101730001CF0010F01D1401EF8D121F4006122F408
:10174000006219661A6730BC1020FEF7DFBD00008A
:1017500000E00F40300000800100C0070000404062
:1017600003490A6E22F4F012104308667047000025
:1017700000E00F40C0F307230749C0B2194401F04D
:101780007043C1F3130143EA411141EA800040F084
:10179000007000220260704700E60F40C0F307238C
:1017A0000749C0B2194401F07043C1F3130143EA81
:1017B000411141EA800040F0007001220260704750
:1017C00000E60F40C0F8C81F7047000010B4C268A0
:1017D00022F0010222F48072C2600A0E0260114AF5
:1017E0001268114B02EA030CACF18054CBB2C1F386
:1017F0000722B4F520240DD14FF4704C0CEA1114DB
:10180000234343F4007343600CEA1121114341F474
:10181000007104E043F40071416042F400718160A2
:1018200010BC704700E00F400000FF70C26840F23B
:101830000113194022EA0101C1607047C26840F2F9
:10184000011319401143C1607047416270478269BA
:1018500022EA010181617047826911438161704709
:10186000002914BF006AC069704711F0FF0F18BF4C
:10187000826211F47F4F18BFC2627047FF290CBF0C
:10188000806CC06C70474FF04070E1EE100A7047FA
:10189000000000000000005F0000000700070014C7
:1018A0007F147F14242A7F2A122313086462364986
:1018B0005522500005030000001C22410000412277
:1018C0001C0014083E081408083E080800503000A8
:1018D00000080808080800606000002010080402E2
:1018E0003E5149453E00427F4000426151494621F8
:1018F00041454B311814127F1027454545393C4A64
:1019000049493001710905033649494936064949B3
:10191000291E003636000000563600000814224109
:101920000014141414140041221408020151090671
:10193000324979413E7E1111117E7F494949363E37
:10194000414141227F4141221C7F494949417F0950
:101950000909013E4149497A7F0808087F00417F13
:1019600041002040413F017F081422417F40404018
:10197000407F020C027F7F0408107F3E4141413EC0
:101980007F090909063E4151215E7F091929464612
:101990004949493101017F01013F4040403F1F203B
:1019A00040201F3F4038403F63140814630708700D
:1019B00008076151494543007F4141000204081076
:1019C000200041417F0004020102044040404040A9
:1019D000000102040020545454787F4844443838AD
:1019E00044444420384444487F3854545418087EB2
:1019F0000901020C5252523E7F0804047800447DD3
:101A000040002040443D007F1028440000417F40BA
:101A1000007C041804787C08040478384444443872
:101A20007C14141408081414187C7C080404084856
:101A300054545420043F4440203C4040207C1C200F
:101A400040201C3C4030403C44281028440C50505E
:101A5000503C4464544C44000836410000007F0070
:101A600000004136080010080810081F247C241FBD
:101A700008080808081818183830303070F0E0C02E
:101A8000C080000000000000000000000000000016
:101A90000000000000000000000000000000000046
:101AA00000000000000000000000000000000080B6
:101AB000C0C0E0E0F070703030181818180808083E
:101AC000080000000000000000000000000000000E
:101AD000000001030303070F0E0C1C3838B8F8F0A0
:101AE000F0F8F8F8F8F8F8FCFCF8F8F8F8F8F8F876
:101AF000F8F8F8F8F8F8F0E0E0F0F0F0F078383CBA
:101B00001C1F0F070303010000000000000000007D
:101B100000000000000000000000000000000000C5
:101B200000000000000000000000000000000006AF
:101B30000F0F0F0F0F0707071FFFFFFFFFFFFFFF2D
:101B4000FFFFFFFFFFFFFFFFFFFF1F0F1F1F1F1FF5
:101B50001F1F1E0E040000000F050B0000000000F8
:101B60000000000000000000000000000000000075
:101B70000000000000000000000000000000000065
:101B80000000000000000000000000000001071F2E
:101B9000FFFFFFFFFFFFFFFFFFFF1F070300000026
:101BA0000000000000000000000000000000000035
:101BB0000000000000000000000000000000000025
:101BC0000000000000000000000000000000000015
:101BD0000000000000000000000000000000000005
:101BE0000000003C7F7FFFFFFFFFFFFF7F3F2800DB
:101BF00000000000000000000000000000000000E5
:101C000000000000000000000000000000000000D4
:101C100000000000000000000000000000000000C4
:101C200000000000000000000000000000000000B4
:101C300000000000000000000000000000000000A4
:101C40000000000000000000000000000000000094
:101C50000000000000000000000000000000000084
:101C60000000000000000000080808080818181804
:101C70003830303070F0E0C0C0800000000000005C
:101C80000000000000000000000000000000000054
:101C90000000000000000000000000000000000044
:101CA0000000000000000080C0C0E0E0F070703074
:101CB000301818181808080808000000F008042454
:101CC00024E42424040404040408F1030303070F98
:101CD0000E0C1C3838B8F8F0F0F8F8F8F8F8F8FC02
:101CE000FCF8F8F8F8F8F8F8F8F8F8F8F8F8F0E090
:101CF000E0F0F0F0F078383C1C1F0F070303010000
:101D000000000000000000000000000000000000D3
:101D1000FF0000040407844440804040800000012C
:101D200002FC0000000000060F0F0F0F0F0707074F
:101D30001FFFFFFFFFFFFFFFFFFFFFFFFFFFFFFF93
:101D4000FFFF1F0F1F1F1F1F1F1F1E0E040000007D
:101D50000F050B0000000000000000000000000064
:101D600000000000FF0000000000010284888402DF
:101D7000010000800000018284848404048404043F
:101D8000840810E00001071FFFFFFFFFFFFFFFFFB8
:101D9000FFFF1F070300000000000000000000001C
:101DA0000000000000000000000000000000000033
:101DB00000000000000000000F10204080808080A4
:101DC00088888A858080898F8880808382828F80BE
:101DD000808F82858880808F5020003C7F7FFFFF2E
:101DE000FFFFFFFF7F3F2800000000000000000011
:101DF00000000000000000000000000000000000E3
:101E000000000000000000000000000000000000D2
:101E100000000000000000000000000000000000C2
:101E200000000000000000000000000000000000B2
:101E300000000000000000000000000000000000A2
:101E40000000000000000000000000000000000092
:101E50000000000000000000000000000000000082
:101E600000000000FC040404F80000FC44A4241852
:101E70000000F8040404F80000FC0000FC04040462
:101E8000F80000FC242424D80000F8040404F8001E
:101E9000000404FC040400000000000060800080D6
:101EA00060000040E00000000000C040C0000000F2
:101EB0000000000000000000030202020100000315
:101EC0000000010200000102020201000003000004
:101ED0000302020201008043422222B190909192BB
:101EE000322221404080000300000000000000007A
:101EF00000010201000000000300000000000301D7
:101F000002000000000000000000000000000000CF
:101F100000000000000000000000000000000000C1
:101F2000000000000000C038066110525203010199
:101F300000000001010302525010610638E0000069
:101F40000000000000000000000000000000000091
:101F50000000000000000000000000000000000081
:101F60000000000000000000000000000000000071
:101F700000000000000000000000FF024222F222E8
:101F80003222B2A2322332223222322232E2229290
:101F900002FF000000000000000000000000000040
:101FA0000000000000000000000000000000000031
:101FB0000000000000000000000000000000000021
:101FC0000000000000000000008080808000FF0012
:101FD0009249FF00000000C021120C30C080800038
:101FE00000FF492400FF0080808080000000000086
:101FF00000000000000000000000000000000000E1
:1020000000000000000000000000000000000000D0
:102010000000000000000000000000003F404040C1
:102020005E0C1F1014121316121612161216121628
:102030001216121612171211101F0C5E4040403F6C
:102040000000000000000000000000000000000090
:1020500000000000000000000040004010000000F0
:1020600000800540100000000050004011000000FA
:1020700000900540110000000060004012000000C8
:1020800000A0054012000000007000401300000096
:1020900000B00540130000000040024014000000A2
:1020A00000C0054014000000005002402E00000057
:1020B00000D005402E000000006002402F0000000C
:1020C00000E005402F0000000070024030000000DA
:1020D00000F005403000000000D003404600000042
:1020E00000000640460000000010064047000000C7
:1020F0000020064048000000003006407F0000003D
:1021000000400640800000000050064084000000AF
:10211000006006408C0000000040004010000000FD
:102120000080054010000000005000401100000039
:102130000090054011000000006000401200000007
:1021400000A00540120000000070004013000000D5
:1021500000B00540130000000040024014000000E1
:1021600000C0054014000000005002402E00000096
:1021700000D005402E000000006002402F0000004B
:1021800000E005402F000000007002403000000019
:1021900000F005403000000000D003404300000084
:1021A000000006404300000000100640440000000C
:1021B00000200640450000000030064058000000A6
:1021C0000040064059000000005006405C0000003E
:1021D00000600640640000000040004000800540B0
:1021E00000500040009005400060004000A0054005
:1021F0000070004000B005400040024000C00540B3
:102200000050024000D005400060024000E0054060
:102210000070024000F0054000D00340000006407E
:102220000010064000100640002006400020064036
:1022300000300640003006400040064000400640A6
:102240000050064000500640006006400060064016
:102250000070064000700640008006400080064086
:1022600000900640009006400007000000060000B5
:102270000005000000040000000300000002000050
:1022800000010000000000000000000018ED00E068
:102290001CED00E020ED00E000E400E004E400E0DC
:1022A00008E400E00CE400E010E400E014E400E0E6
:1022B00018E400E01CE400E020E400E024E400E096
:1022C00028E400E02CE400E030E400E034E400E046
:1022D00038E400E03CE400E040E400E044E400E0F6
:1022E00048E400E04CE400E050E400E054E400E0A6
:1022F00058E400E05CE400E060E400E064E400E056
:1023000068E400E06CE400E070E400E074E400E005
:1023100078E400E07CE400E080E400E084E400E0B5
:1023200088E400E000E100E004E100E008E100E012
:102330000CE100E010E100E080E100E084E100E079
:1023400088E100E08CE100E090E100E000E200E0E4
:1023500004E200E008E200E00CE200E010E200E04D
:1023600080E200E084E200E088E200E08CE200E04D
:1023700090E200E000D0121300389C1C40420F0095
:1023800000201C0080841E0000802500999E3600DD
:102390000040380000093D0000803E0000004B0076
:1023A000404B4C0000204E00808D5B0000C05D0063
:1023B0000080700000127A0000007D008096980076
:1023C000001BB7000080BB00C0E8CE00647ADA00D2
:1023D0000024F4000000FA0080A81201002D310151
:1023E00000366E0140787D014000000000000000D2
:1023F0003E00080000000000A000000002000000F5
:1024000034540100000000002B70060000000000A2
:10241000280000000000000027000100000000006C
:10242000200000000000000050000000020000003A
:102430001AAC000000000000179409000000000022
:1024400016980500000000001400000000000000C5
:102450001380080000000000A00000000800000039
:102460001000000000000000280000000200000032
:1024700040000000040000006000000000000000B8
:102480005D000C0000000000500000000000000093
:102490004E0002000000000041AC010000000000FE
:1024A0003C000000000000003A800900000000002D
:1024B00030000000000000002800000000000000C4
:1024C000270001000000000023600600000000005B
:1024D00021600800000000001E0000000000000055
:1024E0001DC00400000000005000000002000000B9
:1024F00018000000000000001400000000000000B0
:1025000060000000040000000024F40030003000EF
:10251000005A62029100910000879303D200D2001A
:1025200000B4C4041301130100E1F5055401540182
:10253000000E270795019501582500000000002096
:102540000C000000A8020000642500000C00002020
:1025500064020000C402000000000000000000004F
:042560000000000077
:040000050000033DB7
:00000001FF
