:020000040000FA
:10000000900200203D030000510300005303000054
:1000100055030000570300005903000000000000D2
:100020000000000000000000000000005B03000072
:100030005D030000000000005F030000610300009A
:100040006303000063030000630300006303000018
:100050006303000063030000630300006303000008
:1000600063030000630300006303000063030000F8
:1000700063030000630300006303000063030000E8
:1000800063030000BF08000063030000990800003C
:1000900063030000630300006303000063030000C8
:1000A00063030000510800006303000063030000C5
:1000B00063030000630300001508000063030000F1
:1000C0006303000063030000630300006303000098
:1000D0006303000063030000630300006303000088
:1000E0006303000063030000630300006303000078
:1000F0006303000063030000630300006303000068
:10010000FB080000230900004B0900006303000006
:100110006303000063030000630300006303000047
:100120006303000063030000630300006303000037
:100130006303000063030000630300006303000027
:1001400000000000000000000000000000000000AF
:100150006303000063030000630300006303000007
:10016000000000000000000000000000000000008F
:10017000000000000000000000000000000000007F
:10018000000000000000000000000000000000006F
:10019000000000000000000000000000000000005F
:1001A000000000000000000000000000000000004F
:1001B0006303000063030000730800006303000092
:1001C0006303000063030000630300006303000097
:1001D0006303000063030000630300006303000087
:1001E0006303000063030000630300006303000077
:1001F0006303000063030000630300006303000067
:1002000063030000630300006303000000000000BC
:100210006303000063030000630300006303000046
:100220006303000063030000630300006303000036
:100230006303000063030000630300006303000026
:100240006303000063030000630300006303000016
:100250006303000063030000630300006303000006
:1002600063030000630300006303000000F002F872
:1002700000F03CF80AA090E8000C82448344AAF104
:100280000107DA4501D100F031F8AFF2090EBAE802
:100290000F0013F0010F18BFFB1A43F001031847BA
:1002A000A4320000C4320000103A24BF78C878C1DC
:1002B000FAD8520724BF30C830C144BF04680C606C
:1002C000704700000023002400250026103A28BFB4
:1002D00078C1FBD8520728BF30C148BF0B607047B8
:1002E0001FB501F0F2FE1FBD10B510BD01F041F9C0
:1002F0001146FFF7F5FF00F04DF801F05FF903B488
:10030000FFF7F2FF03BC01F063F900000138FDD1F3
:1003100070470000EFF3108072B67047EFF3108063
:100320007047EFF3108062B6704730BF704780F3BC
:1003300011887047EFF31180704700004EF6885027
:10034000CEF20000016841F470010160FFF78EBF3A
:10035000FEE7FEE7FEE7FEE7FEE7FEE7FEE7FEE775
:10036000FEE7FEE772B6704762B67047EFF31080A3
:1003700072B6704780F31088704730BF70470248EC
:100380000249014A024B7047900000209002002071
:100390009000002000F049FF00F094FC00E000BF56
:1003A000FDE7000010B5624801F01AFE212001F0BF
:1003B000BFFB03215F4801F012F903215D4801F002
:1003C00013F903215B4801F07FF900231A4603214A
:1003D000584801F040F9E32300220321554801F079
:1003E00082F90321534801F077F90321514801F0C4
:1003F00003F9E021212001F00DFC212001F0CAFBCE
:1004000010BD10B54A48401C01F0EAFD4A4801F011
:10041000E7FD0E21494801F0D9FA00220E21474894
:1004200001F0BEF9002301220E21444801F00CFA2C
:10043000402001F07DFB412001F07AFB422001F0D9
:1004400077FB00213E4801F0CAF800213C4801F04A
:10045000CBF800213A4801F037F90121384801F082
:10046000BEF80121364801F0BFF80121344801F0FF
:100470002BF90221324801F0B2F80221304801F094
:10048000B3F802212E4801F01FF901230022114682
:100490002B4801F0E0F8602300221146284801F0C3
:1004A00022F9022300221946254801F0D4F86223DC
:1004B00000220221224801F016F902230022012124
:1004C0001F4801F0C8F86123002201211C4801F0F7
:1004D0000AF900211A4801F0FFF80121184801F03B
:1004E000FBF80221164801F0F7F80021144801F04A
:1004F00083F80121124801F07FF80221104801F031
:100500007BF82021402001F085FB2021412001F0D3
:1005100081FB2021422001F07DFB402001F03AFBCD
:10052000412001F037FB422001F034FB10BD0000F8
:10053000003800F000800340040800F00040024052
:100540000090034010B52F480078022802DC00F02C
:1005500009FC02E000202C49087000F074FD2949D4
:10056000087808460078FE2802D10520087004E0CB
:1005700024480078401C2349087010BD10B500F0D5
:10058000ECFB2249087800EBD0714910B0EB410137
:100590000BD11F4801F052F801211D4801F04EF81F
:1005A00002211B4801F04AF800BF184800780521D5
:1005B00090FBF1F201FB120008B900F0CEFB1348EA
:1005C00000780A2190FBF1F201FB120058B90E48A5
:1005D0000078012801D000F0CAFB03210D4801F08A
:1005E0002DF800F06FFB09480078FE2803D10520A4
:1005F0000649087004E005480078401C034908706B
:1006000010BD0000010000200000002002000020BA
:10061000009003400080034010B5734801F0E0FCF7
:10062000724873490860081D006840F01F00091DEA
:1006300008602E2001F07CFA11216E4801F0C7F805
:1006400011216C4801F0D0F902221121694801F012
:10065000D3F800221121674801F0A2F80A230122F1
:100660001121644801F0F0F81121624801F0B6F858
:1006700040212E2001F0CEFA2E2001F08BFA10BD81
:1006800010B5594801F0ACFC5948001D006840F015
:100690001F005749091D08600221564801F0B2F9B0
:1006A00001220221534801F07BF808230122022194
:1006B000504801F0C9F8002202214E4801F0E8F943
:1006C00010BD10B54C4890F9000080F002004A4976
:1006D0000870084602780221464801F0D9F910BD99
:1006E00010B54148401F01F07BFCC0214FF0402075
:1006F00001F088F90122C0214FF0402001F050F8AC
:100700000C230122C0214FF0402001F09DF810BDC4
:1007100010B5044634B1402211464FF0402001F09C
:10072000B7F905E0002240214FF0402001F0B0F978
:1007300010BD10B50446224680214FF0402001F044
:10074000A7F910BD10B52848801E01F049FCC02152
:100750002A4801F057F90122C021284801F020F869
:100760000C230122C021254801F06EF810BD10B500
:10077000044654B140221146204801F089F98022F4
:1007800011461E4801F084F909E0002240211B486F
:1007900001F07EF900228021184801F079F910BD9E
:1007A00010B51148401E01F01BFC0121144801F056
:1007B00029F901221146124800F0F2FF0A23012212
:1007C00011460F4801F040F810BD10B504462CB199
:1007D000012211460A4801F05BF904E000220121E0
:1007E000074801F055F910BD050800F04B434F4C88
:1007F00020550240005002400300002000700040DD
:100800000040024010B501F0FEF910BD10B501F036
:10081000F3F910BD10B500240021564800F0E5FFA3
:1008200004461121534800F0CFFF04F011001128B5
:1008300002D100F054FA0AE014F0100F02D000F0D8
:100840002FFA04E014F0010F01D000F017FA10BDE8
:1008500010B501204849086000221146474800F0C1
:1008600094FF28B10021454800F08AFF00F059FAB2
:1008700010BD10B500240021414801F013FC50B117
:10088000FF213F4801F003FCFF213D4801F018FC27
:100890000446FFF757FE10BD10B50024002139486B
:1008A00001F000FC50B1FF21364801F0F0FBFF21C0
:1008B000344801F005FC0446FFF760FE10BD08B5A2
:1008C00000220321304800F09FFEA8B103212E48EA
:1008D00000F085FE6A4603212B4800F0E3FE40F657
:1008E000AB110098484340F2C351A1EB10300A21EC
:1008F000B0FBF1F02549086008BD08B5002211469B
:10090000234800F081FE58B10021214800F067FE25
:100910006A4600211E4800F0C5FE1E490098086086
:1009200008BD08B500220121194800F06DFE58B13C
:100930000121174800F053FE6A460121144800F0D7
:10094000B1FE15490098086008BD08B500220221D3
:100950000F4800F059FE58B102210D4800F03FFE4B
:100960006A4602210A4800F09DFE0C490098086082
:1009700008BD0000005002400400002000C00340F9
:100980000060034000000340008003400800002096
:10099000009003400C0000201400002010000020F4
:1009A00070B505460C461DB90020FFF7B1FE02E008
:1009B0004020FFF7ADFE204600F022FC70BD70B570
:1009C00004460D460B2C01DC052D01DD002070BD19
:1009D000C4EBC400C0B240F080010020FFF7E0FF8C
:1009E00045F040010020FFF7DBFF0120EFE710B5E5
:1009F000002400BF04E000210120FFF7D1FF641CA8
:100A0000B4F5FC7FF7D300210846FFF7D8FF10BDEF
:100A100010B500F0C1FBFFF763FE0020FFF789FE71
:100A2000012000F0A5FC8020FFF783FE212100209B
:100A3000FFF7B6FFBA210020FFF7B2FF0421002024
:100A4000FFF7AEFF14210020FFF7AAFF20210020AE
:100A5000FFF7A6FF0C210020FFF7A2FFFFF7C7FF5B
:100A600010BD70B50546002400BF0AE0A5F12000C6
:100A700000EB8000774A1044015D0120FFF790FFF2
:100A8000641C052CF2D300210120FFF789FF70BD03
:100A900010B5044603E02078FFF7E3FF641C2078DC
:100AA0000028F8D110BD70B504460A2C08DA6AA0F7
:100AB000FFF7EEFF04F13001C8B2FFF7D2FFB6E056
:100AC000642C15DA66A0FFF7E3FF0A2094FBF0F030
:100AD0003030C5B22846FFF7C4FF0A2094FBF0F17E
:100AE00000FB11403030C5B22846FFF7BAFF9EE048
:100AF000B4F57A7F23DA5BA0FFF7CAFF642094FB8A
:100B0000F0F03030C5B22846FFF7ABFF642094FB0D
:100B1000F0F100FB114084B20A2094FBF0F0303079
:100B2000C5B22846FFF79DFF0A2094FBF0F100FBB9
:100B300011403030C5B22846FFF793FF77E042F20C
:100B40001070844233DA2020FFF78BFF4FF47A7065
:100B500094FBF0F03030C5B22846FFF782FF4FF427
:100B60007A7094FBF0F100FB114084B2642094FB96
:100B7000F0F03030C5B22846FFF773FF642094FBD5
:100B8000F0F100FB114084B20A2094FBF0F0303009
:100B9000C5B22846FFF765FF0A2094FBF0F100FB81
:100BA00011403030C5B22846FFF75BFF3FE042F20C
:100BB000107094FBF0F03030C5B22846FFF751FFBB
:100BC00042F2107094FBF0F100FB114084B24FF43C
:100BD0007A7094FBF0F03030C5B22846FFF741FF41
:100BE0004FF47A7094FBF0F100FB114084B2642062
:100BF00094FBF0F03030C5B22846FFF732FF642096
:100C000094FBF0F100FB114084B20A2094FBF0F059
:100C10003030C5B22846FFF724FF0A2094FBF0F1DC
:100C200000FB11403030C5B22846FFF71AFF70BDF7
:100C300070B50546002400210846FFF7C0FE00BF3E
:100C400004E0295D0120FFF7ABFE641CB4F5FC7FD6
:100C5000F7D370BDBC26000020202020000000003B
:100C6000202020002020000010B5FFF7D5FCFFF762
:100C700069FD4FF47A7000F07FF910BD10B50020C7
:100C8000FFF775FD462000F021F9002000F049F93A
:100C9000462032490870002048700120887010BD3D
:100CA00010B50020FFF763FD002000F00FF946208B
:100CB00000F037F9462029494870002008700220CA
:100CC000887010BD10B5002000F000F9002000F081
:100CD00028F90020214948700870887010BD10B5AF
:100CE0000020FFF744FD3C2000F0F0F83C2000F02D
:100CF00018F93C201949487008700320887010BD0D
:100D000010B50020FFF733FD5F2000F0DFF85F2013
:100D100000F007F95F2011494870087003208870BF
:100D200010BD10B5FFF7CEFF0120FFF720FD3220E8
:100D300000F0CCF8322000F0F4F832200749487077
:100D40000870042088704FF47A7000F011FB0020C6
:100D500003490860FFF7B6FF10BD7047240000206C
:100D60000400002010B54548FFF762FF10BD10B524
:100D70004348007820B9FFF73AFE01204049087047
:100D800000210220FFF71BFE3E4991F9011088B2B5
:100D9000FFF789FE2520FFF764FE00210846FFF7D4
:100DA0000EFE39A0FFF774FE01210220FFF707FEB7
:100DB000344991F9001088B2FFF775FE2520FFF73E
:100DC00050FE01210020FFF7FAFD31A0FFF760FE81
:100DD00002210020FFF7F3FD2FA0FFF759FE29485D
:100DE00090F90200052818D2DFE800F003070B0F86
:100DF00013002BA0FFF74CFE13E02AA0FFF748FEDC
:100E00000FE029A0FFF744FE0BE028A0FFF740FE0B
:100E100007E027A0FFF73CFE03E021A0FFF738FE24
:100E200000BF00BF03210420FFF7C9FD2149098845
:100E300088B2FFF738FE03210020FFF7C0FD1EA097
:100E4000FFF726FE04210820FFF7B9FD1C49098899
:100E500088B2FFF728FE04210846FFF7B0FD1949C4
:100E6000098888B2FFF71FFE04210020FFF7A7FDC5
:100E70001549098888B2FFF716FE10BD8C2C0000BA
:100E800027000020240000204D74724C0000000058
:100E90004D7472520000000044697220000000008E
:100EA00053740000464C0000465200004677000094
:100EB000427700000800002054656D703A00000081
:100EC000140000200C0000201000002070B5044623
:100ED00054B900224021A54800F0DFFE4FF4807194
:100EE000A24800F0BEFE1BE0632C00D963244FF43F
:100EF00080719E4800F0BFFE60436421B0FBF1F5B5
:100F00002A464FF48371994800F0CFFE4FF4807168
:100F1000964800F0ABFE01224021944800F0BDFE4F
:100F200070BD70B5044654B9002280218F4800F08E
:100F3000B4FE4FF480718D4800F093FE1BE0632CEB
:100F400000D963244FF48071884800F094FE604318
:100F50006421B0FBF1F52A4640F20711834800F006
:100F6000A4FE4FF48071814800F080FE01228021B0
:100F70007E4800F092FE70BD10B50446002001F0DE
:100F800011F87B4801F02CF87A4801F029F87A48EA
:100F900000F0F8FC794800F0F5FC0421784800F0F6
:100FA0005BFD0821764800F057FD00224FF4807168
:100FB0006E4800F043FE22464FF480716B4800F00B
:100FC00063FE01224FF48371684800F06EFE012237
:100FD00040F20711654800F068FE4FF480716348E5
:100FE00000F044FE10BD70B50446002000F0DAFFAA
:100FF0005F4800F0F5FF5F4800F0F2FF614800F045
:10100000C1FC02215E4800F027FD0022C0215748A4
:1010100000F014FE2246C021544800F035FEC021E5
:10102000524800F028FE00EB800040006421B0FB35
:10103000F1F52A46C5214D4800F037FEC0214B4846
:1010400000F014FE70BD10B54F48007848B1012281
:101050002021464800F021FEC021444800F006FE51
:1010600008E000222021414800F017FEC0213F483F
:1010700000F0F7FD444890F9000080F0010042497B
:10108000087010BD2DE9F04106460F4615461C4676
:101090000CB9012402E0632C00D9632439463046A0
:1010A00000F0E9FD6421B1FBF4F1B0FBF1F8424638
:1010B0002946304600F0F9FDBDE8F08170B50546DF
:1010C0000C46002000F06EFF294800F089FF2948F7
:1010D000801E00F085FF2D4800F054FC2C4800F0E5
:1010E00051FC01212B4800F0B7FC0221294800F0F7
:1010F000B3FC002240211D4800F0A0FD2A464021FB
:101100001A4800F0C1FD4021184800F0B4FD6421E8
:101110004843B0FBF4F632464021144800F0C5FDC8
:101120004021124800F0A7FD64214843B0FBF4F6CB
:10113000324641210D4800F0B8FD40210B4800F037
:1011400095FD01220321094800F0A7FD70BD10B5EF
:101150000848801E00F030FF4021044800F081FD67
:1011600000220321014800F098FD10BD00900240CC
:10117000014000F0050800F005080500050C050019
:10118000005002400504050028000020050003006F
:1011900005040300007000407CB51D4800F020FFEE
:1011A0001C4800F01DFF1C4800F0B8FD40F602008E
:1011B00000F0E8FB40F6024000F0E4FB41F20240A0
:1011C00000F0E0FB2C214FF0402000F053FC002108
:1011D000114800F07DFD104800F077FD054600F055
:1011E000A7FD044608200D4900231A46CDE900104A
:1011F0002146094800F06FFD074800F094FD7CBDD2
:1012000010B504462146044800F082FD10BD0000E0
:10121000001C00F0000800F00080004008AF2F0024
:1012200010B5144800F02EFE10BD70B5FFF7EEFAB1
:10123000FFF7F6FF00F07CFD044600F05DF800F0DB
:101240002AF8FFF7E5FBFFF7E7F9FFF77BFA4FF422
:101250007A70FFF791FEFFF7D4F8FFF7A3F800F0DC
:101260005FF900F065FD0546AC4201D1FFF7CAFA0F
:1012700070BD00004005400770B5044600250026FB
:1012800000F056FD06464FF47A70B6FBF0F060436E
:10129000451E284670BD10B53D4800F0A1FE6E20E9
:1012A00000F046FC01213B4800F0F3FEFF213948E5
:1012B00000F0DEFE0021374800F0A6FE222135486E
:1012C00000F0A6FE4FF47A70FFF7D6FF04462246E0
:1012D000FF21304800F0EBFEFF212E4800F0D0FE49
:1012E00001212C4800F0DAFE20216E2000F092FC53
:1012F0006E2000F04FFC10BD10B5274800F070FEC6
:10130000232000F015FC0121244800F0C2FEFF213B
:10131000224800F0ADFE0021204800F075FE222199
:101320001E4800F075FE3220FFF7A6FF0446224655
:10133000FF211A4800F0BBFEFF21184800F0A0FE74
:101340000121164800F0AAFE0021232000F062FCD3
:10135000232000F01FFC10BD70B505460024284670
:10136000FFF78AFF044600E0641E002CFCD170BD2C
:1013700070B505460024FFF749FA2846FFF77CFFC1
:10138000044600E0641E002CFCD1FFF73BFA70BD60
:10139000005C00F000600340000400F00000034027
:1013A00010B500BF584800F07CFB0028FAD110BDF2
:1013B0002DE9F04105460F46164600240022294635
:1013C000514800F0B1FB39464F4800F074FB00BFB4
:1013D0004D4800F060FB0028FAD103214A4800F094
:1013E00066FB00BF484800F05CFB0028FAD1464885
:1013F00000F063FBC4B244B1102C03D10421424875
:1014000000F055FB0020BDE8F08131463E4800F079
:1014100052FB05213C4800F04AFB00BF3A4800F06F
:1014200040FB0028FAD1384800F047FBC4B20CB1A9
:101430000020E8E70120E6E72DE9F04104460D46EB
:1014400000270026002221462F4800F06DFB2E4881
:1014500000F033FBC7B229462B4800F02CFB0721D4
:10146000294800F024FBFFF79BFF274800F025FBED
:10147000C7B201222146244800F056FBFFF790FF37
:10148000214800F01AFBC7B21F4800F012FB0646C5
:1014900007211D4800F00BFB1B4800F00EFB10B9A4
:1014A0003046BDE8F0810020FBE710B5174800F09A
:1014B00097FD174800F094FD164800F063FA1648AF
:1014C00000F060FA0421154800F0B8FA082113482A
:1014D00000F0A6FA0A2301220421104800F0B4F912
:1014E0000923012208210D4800F0AEF902220C2147
:1014F0000A4800F055F900F01BFC04460022214682
:10150000014800F0E7FA10BD00000240002000F0A2
:10151000010800F003080100030C01000050004026
:1015200010B50024FFF73CF90120FFF74EF9FFF753
:10153000BCFF05E0052216211D20FFF739FF0446F8
:10154000002CF7D0002405E0002210211D20FFF719
:101550002FFF0446002CF7D00CB1FFF78FFB0120C2
:101560000149087010BD0000290000207047704735
:101570007047754600F028F8AE46050069465346A8
:1015800020F00700854618B020B5FEF7F8FEBDE84C
:1015900020404FF000064FF000074FF000084FF0DA
:1015A000000B21F00701AC46ACE8C009ACE8C0096B
:1015B000ACE8C009ACE8C0098D4670470446AFF3FB
:1015C00000802046FEF79BFE004870472C0000205C
:1015D00001491820ABBEFEE7260002007047012239
:1015E00002FA01F1C16070478268012303FA01F138
:1015F00022EA010181607047012202FA01F1C16013
:10160000826811438160704732B1C0684FF00112A7
:1016100002FA01F108407047406801228A4042F412
:101620008032104010F4803F08BF704740F47020B3
:101630004FF4803202FA01F1884370470A4601F004
:101640000F0101236FF30F0203FA01F11143826AC4
:1016500011438162704730B4446989004FF00F0C28
:101660000CFA01FC02F00F0524EA0C048D402C4317
:101670004461046A03F0030324EA0C0C8B404CEA37
:1016800003030362C36949004FF0300C0CFA01FCFC
:1016900002F0300223EA0C0302FA01F11943C1619E
:1016A00030BC704700EB411000F14001002003E026
:1016B0008B6842F8043B401CCB6813F4807F18BF52
:1016C00070470828F4D370470268012303FA01F138
:1016D00022EA0101016070470268012303FA01F167
:1016E00011430160704710B400EB4110910050F8B5
:1016F00040CF0F228A4003F00F042CEA020C8C40EA
:101700004CEA040CC0F800C0D0F818C0C3F303249E
:101710002CEA020C8C404CEA040CC0F818C0D0F83B
:1017200004C0C3F303142CEA020C8C404CEA040CF2
:10173000C0F804C0D0F81CC0C3F303542CEA020C58
:101740008C404CEA040CC0F81CC013F4702F4FF00E
:1017500001040DD0D0F814C0C3F302432CEA0202F6
:101760008B401A434261026904FA01F1114304E01B
:10177000026904FA01F122EA0101016110BC70471B
:10178000012202FA01F10160704722B10068C840ED
:1017900000F0010070474068C84000F00100704749
:1017A000D0F8003412F0010F14BF0B438B43C0F884
:1017B000003412F0020FD0F8202414BF114322EAA3
:1017C0000101C0F820147047C0F81C14704700F5E0
:1017D0008262D0F8100488431060704700F582627E
:1017E000D0F81004084310607047002914BFD0F8E7
:1017F0001804D0F814047047D0F8083412F0010F20
:1018000014BF0B438B43C0F80834D0F8043412F0F3
:10181000020F14BF0B438B43C0F80434D0F80C34D0
:1018200012F0040F14BF194323EA0101C0F80C148D
:10183000D0F8381512F4803F14BF41F0010121F0B7
:101840000101C0F8381570472DE9F00701274FF066
:10185000000C0326C2F3411800F6C47407FA0CF515
:101860000D4210D0D0F8C49F4FEA4C0506FA05FA95
:1018700029EA0A09C4F80090D4F8009008FA05F59E
:1018800049EA050525600CF1010C0CF0FF0CBCF1D8
:10189000080FE3D3D0F800C512F0010F14BF4CEAD3
:1018A000010C2CEA010CC0F800C5D0F804C512F0F8
:1018B000020F14BF4CEA010C2CEA010CC0F804C55D
:1018C000D0F808C512F0040F14BF4CEA010C2CEA42
:1018D000010CC0F808C5D0F818C512F0080F14BFE5
:1018E0004CEA010C2CEA010CC0F818C512F0100FDC
:1018F000D0F83C2514BF0A438A43C0F83C25D0F8F1
:101900000C2513F0010F14BF0A438A43C0F80C25BD
:10191000D0F8102513F0020F14BF0A438A43C0F811
:101920001025D0F8142513F0040F14BF0A438A437E
:10193000C0F81425D0F81C2513F0080F14BF0A4373
:101940008A43C0F81C25D0F8442513F4007F14BF47
:101950000A438A43C0F84425D0F8402513F4407F59
:1019600014BF0A438A43C0F84025D0F82825002B2D
:101970000CBF114322EA0101C0F82815BDE8F007A9
:10198000704700000F4AC0F30741D26E01238B401D
:101990001A420D4A1ABF02EBC1014A6852F83120BF
:1019A000C0F3072102F22C53D2F82C254FF00F0C74
:1019B0000CFA01FC00F00F0022EA0C0288401043F0
:1019C0001860704700E00F40E431000030B50C466D
:1019D00005460022FFF7E4FE21462846BDE83040D8
:1019E00000230122FFF730BF30B50C460546002228
:1019F000FFF7D6FE21462846BDE8304008230122E5
:101A0000FFF722BF30B50C46054608230122FFF739
:101A10001BFF21462846BDE830400122FFF7C0BE2B
:101A200030B50C4605460222FFF7BAFE214628468D
:101A3000BDE8304009230122FFF706BF30B50C4650
:101A400005460222FFF7ACFE21462846BDE830409D
:101A500008230122FFF7F8BE30B50C4605460222E6
:101A6000FFF79EFE21462846BDE8304008230122AC
:101A7000FFF7EABE30B50C4605460222FFF790FE9E
:101A800021462846BDE8304008230122FFF7DCBE8E
:101A900040F821207047406810F0400018BF012036
:101AA0007047406810F0010018BF01207047416086
:101AB00070478068704781607047406810F0010F80
:101AC00005D110F0120F1CBF00F01C007047002061
:101AD00070470000036A43F010030362002A14BF3A
:101AE0000E4A0F4A02EB820301EB830302EB8202F0
:101AF0005B1E9200B3FBF2F2521EC260D0F8C02F00
:101B000012F0010F08BF7047064A1144521CB1FB86
:101B1000F2F1491E41F08001C1607047801A060051
:101B2000A08601007F47370142EA4101016070470A
:101B30001649042804BF086820F4803018D005280E
:101B400004BF086820F4003012D0062812D00F28F5
:101B500015D0102838BF7047103800F01F0101223F
:101B600002FA01F142090A4850F822000160704768
:101B700008607047086820F48020086070474FF0C4
:101B8000E020016921F002010161704724ED00E0CD
:101B9000443300001649042804BF086840F480302C
:101BA00018D0052804BF086840F4003012D0062879
:101BB00012D00F2815D0102838BF7047103800F009
:101BC0001F01012202FA01F142090A4850F82200DD
:101BD0000160704708607047086840F48020086022
:101BE00070474FF0E020016941F002010161704748
:101BF00024ED00E03033000010B5FEF78BFB002829
:101C000018BF012010BD10B5FEF78BFB002818BFD0
:101C1000012010BD084A20F00303D2581368800742
:101C2000C00E4FF0FF0C0CFA00FC23EA0C0301FA83
:101C300000F01843106070479432000008440168B7
:101C40006FF352011143016012F0020F14BFB02173
:101C50008C21016214BF4FF4306140F60C014162E7
:101C60007047425822F0010242507047425842F0F9
:101C700001024250704708440168006911F0020FE8
:101C800014BF4000401C70470844016811F0020F67
:101C900014BF5108511E01617047002A826814BFA9
:101CA000114322EA01018160704721F03F0318448B
:101CB000036813F0020F18BF520803699A1A11F053
:101CC000010F14BFC26182617047D0F8C80F70471E
:101CD000C0F8C81F704710B4002BDDE901C418BF5D
:101CE00004234360B1FBFCFC0021891CBCFBF1F325
:101CF0005B1EFF2BF9D801619107090E02F030023B
:101D000041EA03211143621E1143016010BC704778
:101D1000C26812F0020FFBD081607047416821F069
:101D2000020141607047416841F002014160704723
:101D300070B44B4D2A6E296F11F0004F14BF01F0A3
:101D4000700002F03000202808BF464818D005DC9B
:101D500088B1102808BF444812D009E0302808BFD5
:101D600047F230500CD0702808BF4FF4004007D025
:101D700070BC002070477C203C4B00EA12101858C1
:101D80004FF0FF3311F0004F02D011F4006F06D076
:101D900001F0004C02F400645CEA040C36D1D5F882
:101DA00060C1D5F8644104F01F06761CC4F3042416
:101DB000641C16FB04F46400B0FBF4F0CCF30904DB
:101DC0004443CCF3892C00FB0CF0D5F810C004EB95
:101DD000902042F480020CF4704CBCF5804F08BF98
:101DE000234B13D009DCBCF5005F08BF214B0DD09D
:101DF000BCF5405F08BF204B08E0BCF5E04F08BFD2
:101E00001E4B03D0BCF5104F08BF1D4B12F4800FC2
:101E100021D011F0004F19D011F0804F09D011F4EA
:101E2000006F0CD001F0004C02F400625CEA020288
:101E300005D0C1F3C551491CB0FBF1F00BE04000E7
:101E4000C1F38651491CB0FBF1F004E0C2F3C35169
:101E5000491CB0FBF1F0834238BF184670BC704794
:101E600000E00F4000093D000024F400883300002A
:101E7000005A620200B4C40480F0FA0240787D0186
:101E8000002D3101434B30B4196E1A6F21F48001DB
:101E900041F4006142F4006419661C6721EA000203
:101EA00012F0010F14D060F0010211409A159A65EA
:101EB0001966D3F850C0D2021CF4807F08D1521E9C
:101EC00004BF30BC7047D3F850C01CF4807FF6D0FC
:101ED00021F4FE6100F4FE621143DFF8BCC024F07F
:101EE000700222F0004200EA0C0C4CEA020200F000
:101EF000080C42EACC0219661A6700F4005C21F46F
:101F0000005122F400524CEA01014CEA02024FF067
:101F1000400CC3F858C012F0004F08BF19661A678A
:101F200018BF196621F00101DFF870C021F0F861D7
:101F300000EA0C0C4CEA010122F0FC5200F0FC5CBF
:101F40004CEA020210F0804F08BF22F0804209D014
:101F5000DFF84CC022F4800200EA0C0C41F480014E
:101F60004CEA020210F4006F08BF4FF400400AD19F
:101F7000D3F868C11CF0010F01D1401EF8D121F443
:101F8000006122F4006219661A6730BC1020FEF767
:101F9000BDB9000000E00F40300000800100C00724
:101FA0000000404003490A6E22F4F0121043086614
:101FB0007047000000E00F40C0F307230749C0B29C
:101FC000194401F07043C1F3130143EA411141EA9E
:101FD000800040F0007000220260704700E60F4071
:101FE000C0F307230749C0B2194401F07043C1F39D
:101FF000130143EA411141EA800040F000700122E0
:102000000260704700E60F40C0F8C81F704700002C
:1020100010B4C26822F0010222F48072C2600A0E7B
:102020000260114A1268114B02EA030CACF18054B1
:10203000CBB2C1F30722B4F520240DD14FF4704C7C
:102040000CEA1114234343F4007343600CEA11219A
:10205000114341F4007104E043F40071416042F423
:102060000071816010BC704700E00F400000FF70FD
:10207000C26840F20113194022EA0101C1607047B1
:10208000C26840F2011319401143C16070474162B8
:102090007047826922EA01018161704782691143B8
:1020A00081617047002914BF006AC069704711F050
:1020B000FF0F18BF826211F47F4F18BFC2627047D2
:1020C000FF290CBF806CC06C70474FF04070E1EE90
:1020D000100A7047080808080818181838303030F7
:1020E00070F0E0C0C08000000000000000000000B0
:1020F00000000000000000000000000000000000E0
:1021000000000000000000000000000000000000CF
:1021100000000080C0C0E0E0F07070303018181887
:102120001808080808000000000000000000000077
:1021300000000000000001030303070F0E0C1C3811
:1021400038B8F8F0F0F8F8F8F8F8F8FCFCF8F8F817
:10215000F8F8F8F8F8F8F8F8F8F8F0E0E0F0F0F04F
:10216000F078383C1C1F0F0703030100000000003B
:10217000000000000000000000000000000000005F
:10218000000000000000000000000000000000004F
:10219000000000060F0F0F0F0F0707071FFFFFFFBD
:1021A000FFFFFFFFFFFFFFFFFFFFFFFFFFFF1F0F0F
:1021B0001F1F1F1F1F1F1E0E040000000F050B0016
:1021C000000000000000000000000000000000000F
:1021D00000000000000000000000000000000000FF
:1021E00000000000000000000000000000000000EF
:1021F0000001071FFFFFFFFFFFFFFFFFFFFF1F079C
:1022000003000000000000000000000000000000CB
:1022100000000000000000000000000000000000BE
:1022200000000000000000000000000000000000AE
:10223000000000000000000000000000000000009E
:10224000000000000000003C7F7FFFFFFFFFFFFF5A
:102250007F3F280000000000000000000000000098
:10226000000000000000000000000000000000006E
:10227000000000000000000000000000000000005E
:10228000000000000000000000000000000000004E
:10229000000000000000000000000000000000003E
:1022A000000000000000000000000000000000002E
:1022B000000000000000000000000000000000001E
:1022C00000000000000000000000000008080808EE
:1022D000081818183830303070F0E0C0C0800000A6
:1022E00000000000000000000000000000000000EE
:1022F00000000000000000000000000000000000DE
:10230000000000000000000000000080C0C0E0E00D
:10231000F07070303018181818080808080000000D
:10232000F008042424E42424040404040408F1032D
:102330000303070F0E0C1C3838B8F8F0F0F8F8F863
:10234000F8F8F8FCFCF8F8F8F8F8F8F8F8F8F8F805
:10235000F8F8F0E0E0F0F0F0F078383C1C1F0F07E0
:102360000303010000000000000000000000000066
:1023700000000000FF000004040784444080404047
:102380008000000102FC0000000000060F0F0F0F8C
:102390000F0707071FFFFFFFFFFFFFFFFFFFFFFF05
:1023A000FFFFFFFFFFFF1F0F1F1F1F1F1F1F1E0E1F
:1023B000040000000F050B000000000000000000FA
:1023C0000000000000000000FF000000000001020B
:1023D00084888402010000800000018284848404D7
:1023E00004840404840810E00001071FFFFFFFFFBE
:1023F000FFFFFFFFFFFF1F070300000000000000BA
:1024000000000000000000000000000000000000CC
:102410000000000000000000000000000F1020403D
:102420008080808088888A858080898F888080836A
:1024300082828F80808F82858880808F5020003CB0
:102440007F7FFFFFFFFFFFFF7F3F280000000000AE
:10245000000000000000000000000000000000007C
:10246000000000000000000000000000000000006C
:10247000000000000000000000000000000000005C
:10248000000000000000000000000000000000004C
:10249000000000000000000000000000000000003C
:1024A000000000000000000000000000000000002C
:1024B000000000000000000000000000000000001C
:1024C0000000000000000000FC040404F80000FC10
:1024D00044A424180000F8040404F80000FC0000E0
:1024E000FC040404F80000FC242424D80000F804B0
:1024F0000404F800000404FC0404000000000000D0
:102500006080008060000040E00000000000C040EB
:10251000C0000000000000000000000003020202F2
:10252000010000030000010200000102020201009C
:10253000000300000302020201008043422222B194
:1025400090909192322221404080000300000000D0
:102550000000000000010201000000000300000074
:102560000000030102000000000000000000000065
:10257000000000000000000000000000000000005B
:1025800000000000000000000000C038066110528A
:1025900052030101000000010103025250106106C4
:1025A00038E0000000000000000000000000000013
:1025B000000000000000000000000000000000001B
:1025C000000000000000000000000000000000000B
:1025D0000000000000000000000000000000FF02FA
:1025E0004222F2223222B2A232233222322232227A
:1025F00032E2229202FF0000000000000000000012
:1026000000000000000000000000000000000000CA
:1026100000000000000000000000000000000000BA
:10262000000000000000000000000000008080802A
:102630008000FF009249FF00000000C021120C3012
:10264000C080800000FF492400FF0080808080005F
:10265000000000000000000000000000000000007A
:10266000000000000000000000000000000000006A
:10267000000000000000000000000000000000005A
:102680003F4040405E0C1F10141213161216121613
:10269000121612161216121612171211101F0C5EB5
:1026A0004040403F0000000000000000000000002B
:1026B000000000000000000000000000000000001A
:1026C0000000005F00000007000700147F147F1463
:1026D000242A7F2A122313086462364955225000A7
:1026E00005030000001C2241000041221C001408C8
:1026F0003E081408083E080800503000000808088A
:102700000808006060000020100804023E5149459E
:102710003E00427F400042615149462141454B31D4
:102720001814127F1027454545393C4A4949300164
:10273000710905033649494936064949291E0036BB
:10274000360000005636000008142241001414140C
:10275000141400412214080201510906324979413A
:102760003E7E1111117E7F494949363E4141412249
:102770007F4141221C7F494949417F090909013EA6
:102780004149497A7F0808087F00417F4100204085
:10279000413F017F081422417F404040407F020CAE
:1027A000027F7F0408107F3E4141413E7F090909B5
:1027B000063E4151215E7F09192946464949493162
:1027C00001017F01013F4040403F1F2040201F3F4B
:1027D0004038403F631408146307087008076151CC
:1027E000494543007F414100020408102000414157
:1027F0007F00040201020440404040400001020406
:102800000020545454787F48444438384444442089
:10281000384444487F3854545418087E0901020C47
:102820005252523E7F0804047800447D400020400C
:10283000443D007F1028440000417F40007C041884
:1028400004787C0804047838444444387C14141414
:1028500008081414187C7C080404084854545420B4
:10286000043F4440203C4040207C1C2040201C3C35
:102870004030403C44281028440C5050503C4464A4
:10288000544C44000836410000007F0000004136EF
:10289000080010080810081F247C241F08080808D6
:1028A000081818183830303070F0E0C0C0800000D0
:1028B0000000000000000000000000000000000018
:1028C0000000000000000000000000000000000008
:1028D000000000000000000000000080C0C0E0E038
:1028E000F070703030181818180808080800000038
:1028F00000000000000000000000000000000103D4
:102900000303070F0E0C1C3838B8F8F0F0F8F8F88D
:10291000F8F8F8FCFCF8F8F8F8F8F8F8F8F8F8F82F
:10292000F8F8F0E0E0F0F0F0F078383C1C1F0F070A
:102930000303010000000000000000000000000090
:102940000000000000000000000000000000000087
:102950000000000000000000000000060F0F0F0F35
:102960000F0707071FFFFFFFFFFFFFFFFFFFFFFF2F
:10297000FFFFFFFFFFFF1F0F1F1F1F1F1F1F1E0E49
:10298000040000000F050B00000000000000000024
:102990000000000000000000000000000000000037
:1029A0000000000000000000000000000000000027
:1029B00000000000000000000001071FFFFFFFFFF4
:1029C000FFFFFFFFFFFF1F070300000000000000E4
:1029D00000000000000000000000000000000000F7
:1029E00000000000000000000000000000000000E7
:1029F00000000000000000000000000000000000D7
:102A00000000000000000000000000000000003C8A
:102A10007F7FFFFFFFFFFFFF7F3F280000000000D8
:102A200000000000000000000000000000000000A6
:102A30000000000000000000000000000000000096
:102A40000000000000000000000000000000000086
:102A50000000000000000000000000000000000076
:102A60000000000000000000000000000000000066
:102A70000000000000000000000000000000000056
:102A80000000000000000000000000000000000046
:102A900000000000080808080818181838303030FE
:102AA00070F0E0C0C08000000000000000000000E6
:102AB0000000000000000000000000000000000016
:102AC0000000000000000000000000000000000006
:102AD00000000080C0C0E0E0F070703030181818BE
:102AE0001808080808000000F008042424E424243E
:102AF000040404040408F1030303070F0E0C1C383C
:102B000038B8F8F0F0F8F8F8F8F8F8FCFCF8F8F84D
:102B1000F8F8F8F8F8F8F8F8F8F8F0E0E0F0F0F085
:102B2000F078383C1C1F0F07030301000000000071
:102B3000000000000000000000000000FF00000492
:102B400004078444408040408000000102FC0000F3
:102B5000000000060F0F0F0F0F0707071FFFFFFFF3
:102B6000FFFFFFFFFFFFFFFFFFFFFFFFFFFF1F0F45
:102B70001F1F1F1F1F1F1E0E040000000F050B004C
:102B80000000000000000000000000000000000045
:102B9000FF00000000000102848884020100008020
:102BA000000001828484840404840404840810E006
:102BB0000001071FFFFFFFFFFFFFFFFFFFFF1F07D2
:102BC0000300000000000000000000000000000002
:102BD00000000000000000000000000000000000F5
:102BE000000000000F1020408080808088888A8547
:102BF0008080898F8880808382828F80808F828589
:102C00008880808F5020003C7F7FFFFFFFFFFFFF09
:102C10007F3F2800000000000000000000000000CE
:102C200000000000000000000000000000000000A4
:102C30000000000000000000000000000000000094
:102C40000000000000000000000000000000000084
:102C50000000000000000000000000000000000074
:102C60000000000000000000000000000000000064
:102C70000000000000000000000000000000000054
:102C80000000000000000000000000000000000044
:102C9000FC040404F80000FC44A424180000F80418
:102CA0000404F80000FC0000FC040404F80000FC2C
:102CB000242424D80000F8040404F800000404FCD0
:102CC00004040000000000006080008060000040FC
:102CD000E00000000000C040C00000000000000054
:102CE00000000000030202020100000300000102D4
:102CF00000000102020201000003000003020202C0
:102D000001008043422222B19090919232222140D0
:102D100040800003000000000000000000010201EC
:102D2000000000000300000000000301020000009A
:102D30000000000000000000000000000000000093
:102D40000000000000000000000000000000000083
:102D50000000C0380661105252030101000000015A
:102D6000010302525010610638E00000000000002C
:102D70000000000000000000000000000000000053
:102D80000000000000000000000000000000000043
:102D90000000000000000000000000000000000033
:102DA000000000000000FF024222F2223222B2A202
:102DB000322332223222322232E2229202FF0000F9
:102DC0000000000000000000000000000000000003
:102DD00000000000000000000000000000000000F3
:102DE00000000000000000000000000000000000E3
:102DF00000000000008080808000FF009249FF00FA
:102E0000000000C021120C30C080800000FF492467
:102E100000FF0080808080000000000000000000B3
:102E200000000000000000000000000000000000A2
:102E30000000000000000000000000000000000092
:102E400000000000000000003F4040405E0C1F10EA
:102E50001412131612161216121612161216121633
:102E600012171211101F0C5E4040403F000000007E
:102E70000000000000000000000000000000000052
:102E800000000000000000000000005F00000007DC
:102E9000000700147F147F14242A7F2A12231308AA
:102EA000646236495522500005030000001C22418F
:102EB000000041221C0014083E081408083E0808BF
:102EC000005030000008080808080060600000207A
:102ED000100804023E5149453E00427F40004261D5
:102EE0005149462141454B311814127F1027454561
:102EF00045393C4A49493001710905033649494978
:102F000036064949291E00363600000056360000B4
:102F1000081422410014141414140041221408024D
:102F200001510906324979413E7E1111117E7F49D6
:102F30004949363E414141227F4141221C7F494956
:102F400049417F090909013E4149497A7F0808083A
:102F50007F00417F41002040413F017F0814224112
:102F60007F404040407F020C027F7F0408107F3E7C
:102F70004141413E7F090909063E4151215E7F09D9
:102F8000192946464949493101017F01013F404025
:102F9000403F1F2040201F3F4038403F631408142B
:102FA0006307087008076151494543007F414100AC
:102FB00002040810200041417F0004020102044085
:102FC00040404040000102040020545454787F489F
:102FD0004444383844444420384444487F385454A6
:102FE0005418087E0901020C5252523E7F08040414
:102FF0007800447D40002040443D007F102844007C
:1030000000417F40007C041804787C080404783870
:10301000444444387C14141408081414187C7C08A4
:103020000404084854545420043F4440203C404089
:10303000207C1C2040201C3C4030403C4428102870
:10304000440C5050503C4464544C440008364100F9
:1030500000007F0000004136080010080810081F1B
:10306000247C241F00400040100000000080054028
:1030700010000000005000401100000000900540CA
:1030800011000000006000401200000000A0054098
:1030900012000000007000401300000000B0054066
:1030A00013000000004002401400000000C0054072
:1030B00014000000005002402E00000000D0054027
:1030C0002E000000006002402F00000000E00540DC
:1030D0002F000000007002403000000000F00540AA
:1030E0003000000000D00340460000000000064011
:1030F0004600000000100640470000000020064087
:1031000048000000003006407F00000000400640FC
:10311000800000000050064084000000006006406F
:103120008C000000004000401000000000800540BE
:103130001000000000500040110000000090054009
:1031400011000000006000401200000000A00540D7
:1031500012000000007000401300000000B00540A5
:1031600013000000004002401400000000C00540B1
:1031700014000000005002402E00000000D0054066
:103180002E000000006002402F00000000E005401B
:103190002F000000007002403000000000F00540E9
:1031A0003000000000D00340430000000000064053
:1031B00043000000001006404400000000200640CC
:1031C0004500000000300640580000000040064066
:1031D00059000000005006405C00000000600640FE
:1031E00064000000004000400080054000500040A6
:1031F000009005400060004000A0054000700040C5
:1032000000B005400040024000C0054000500240B0
:1032100000D005400060024000E005400070024020
:1032200000F0054000D003400000064000100640BA
:1032300000100640002006400020064000300640F6
:103240000030064000400640004006400050064066
:1032500000500640006006400060064000700640D6
:103260000070064000800640008006400090064046
:103270000090064000070000000600000005000066
:103280000004000000030000000200000001000034
:10329000000000000000000018ED00E01CED00E060
:1032A00020ED00E000E400E004E400E008E400E0D9
:1032B0000CE400E010E400E014E400E018E400E0B6
:1032C0001CE400E020E400E024E400E028E400E066
:1032D0002CE400E030E400E034E400E038E400E016
:1032E0003CE400E040E400E044E400E048E400E0C6
:1032F0004CE400E050E400E054E400E058E400E076
:103300005CE400E060E400E064E400E068E400E025
:103310006CE400E070E400E074E400E078E400E0D5
:103320007CE400E080E400E084E400E088E400E085
:1033300000E100E004E100E008E100E00CE100E071
:1033400010E100E080E100E084E100E088E100E0DD
:103350008CE100E090E100E000E200E004E200E047
:1033600008E200E00CE200E010E200E080E200E0B1
:1033700084E200E088E200E08CE200E090E200E01D
:1033800000D0121300389C1C40420F0000201C008B
:1033900080841E0000802500999E36000040380081
:1033A00000093D0000803E0000004B00404B4C00F7
:1033B00000204E00808D5B0000C05D00008070002A
:1033C00000127A0000007D0080969800001BB70074
:1033D0000080BB00C0E8CE00647ADA000024F4006C
:1033E0000000FA0080A81201002D310100366E01A4
:1033F00040787D0140000000000000003E00080011
:1034000000000000A0000000020000003454010091
:10341000000000002B7006000000000028000000E3
:103420000000000027000100000000002000000054
:103430000000000050000000020000001AAC000074
:103440000000000017940900000000001698050015
:1034500000000000140000000000000013800800BD
:1034600000000000A00000000800000010000000A4
:1034700000000000280000000200000040000000E2
:103480000400000060000000000000005D000C006F
:103490000000000050000000000000004E0002008C
:1034A0000000000041AC0100000000003C000000F2
:1034B000000000003A800900000000003000000019
:1034C00000000000280000000000000027000100AC
:1034D00000000000236006000000000021600800DA
:1034E000000000001E000000000000001DC00400DD
:1034F0000000000050000000020000001800000062
:103500000000000014000000000000006000000047
:10351000040000000024F40030003000005A620271
:103520009100910000879303D200D20000B4C4043C
:103530001301130100E1F50554015401000E2707A2
:103540009501950164350000000000202C0000006A
:10355000A8020000903500002C000020640200004A
:10356000C402000001000000000000000000000094
:10357000000000000000000000000000000000004B
:10358000000000000000000000000000000000003B
:040000050000033DB7
:00000001FF
